{
  "contractName": "StakingToken",
  "abi": [
    {
      "inputs": [
        {
          "internalType": "string",
          "name": "tokenName",
          "type": "string"
        },
        {
          "internalType": "string",
          "name": "tokenSymbol",
          "type": "string"
        },
        {
          "internalType": "uint256",
          "name": "tokenTotalSupply",
          "type": "uint256"
        },
        {
          "internalType": "uint8",
          "name": "tokenDecimals",
          "type": "uint8"
        }
      ],
      "stateMutability": "nonpayable",
      "type": "constructor"
    },
    {
      "anonymous": false,
      "inputs": [
        {
          "indexed": true,
          "internalType": "address",
          "name": "user",
          "type": "address"
        },
        {
          "indexed": false,
          "internalType": "uint256",
          "name": "amount",
          "type": "uint256"
        },
        {
          "indexed": false,
          "internalType": "uint256",
          "name": "index",
          "type": "uint256"
        },
        {
          "indexed": false,
          "internalType": "uint256",
          "name": "timestamp",
          "type": "uint256"
        }
      ],
      "name": "Staked",
      "type": "event"
    },
    {
      "anonymous": false,
      "inputs": [
        {
          "indexed": true,
          "internalType": "address",
          "name": "from",
          "type": "address"
        },
        {
          "indexed": true,
          "internalType": "address",
          "name": "to",
          "type": "address"
        },
        {
          "indexed": false,
          "internalType": "uint256",
          "name": "value",
          "type": "uint256"
        }
      ],
      "name": "Transfer",
      "type": "event"
    },
    {
      "inputs": [
        {
          "internalType": "uint256",
          "name": "newDivideRate",
          "type": "uint256"
        }
      ],
      "name": "changeDivideRate",
      "outputs": [
        {
          "internalType": "bool",
          "name": "",
          "type": "bool"
        }
      ],
      "stateMutability": "nonpayable",
      "type": "function"
    },
    {
      "inputs": [
        {
          "internalType": "uint256",
          "name": "newRewardRate",
          "type": "uint256"
        }
      ],
      "name": "changeRewardRate",
      "outputs": [
        {
          "internalType": "bool",
          "name": "",
          "type": "bool"
        }
      ],
      "stateMutability": "nonpayable",
      "type": "function"
    },
    {
      "inputs": [
        {
          "internalType": "address",
          "name": "staker",
          "type": "address"
        }
      ],
      "name": "hasStake",
      "outputs": [
        {
          "components": [
            {
              "internalType": "uint256",
              "name": "totalAmount",
              "type": "uint256"
            },
            {
              "components": [
                {
                  "internalType": "address",
                  "name": "user",
                  "type": "address"
                },
                {
                  "internalType": "uint256",
                  "name": "amount",
                  "type": "uint256"
                },
                {
                  "internalType": "uint256",
                  "name": "timestamp",
                  "type": "uint256"
                },
                {
                  "internalType": "uint256",
                  "name": "claimable",
                  "type": "uint256"
                }
              ],
              "internalType": "struct Stakable.Stake[]",
              "name": "stakes",
              "type": "tuple[]"
            }
          ],
          "internalType": "struct Stakable.StakingSummary",
          "name": "",
          "type": "tuple"
        }
      ],
      "stateMutability": "view",
      "type": "function",
      "constant": true
    },
    {
      "inputs": [
        {
          "internalType": "address",
          "name": "staker",
          "type": "address"
        }
      ],
      "name": "hasStakePublic",
      "outputs": [
        {
          "internalType": "uint256",
          "name": "",
          "type": "uint256"
        },
        {
          "components": [
            {
              "internalType": "address",
              "name": "user",
              "type": "address"
            },
            {
              "internalType": "uint256",
              "name": "amount",
              "type": "uint256"
            },
            {
              "internalType": "uint256",
              "name": "timestamp",
              "type": "uint256"
            },
            {
              "internalType": "uint256",
              "name": "claimable",
              "type": "uint256"
            }
          ],
          "internalType": "struct Stakable.Stake[]",
          "name": "",
          "type": "tuple[]"
        }
      ],
      "stateMutability": "view",
      "type": "function",
      "constant": true
    },
    {
      "inputs": [],
      "name": "getBlockTime",
      "outputs": [
        {
          "internalType": "uint256",
          "name": "",
          "type": "uint256"
        }
      ],
      "stateMutability": "view",
      "type": "function",
      "constant": true
    },
    {
      "inputs": [],
      "name": "getOwner",
      "outputs": [
        {
          "internalType": "address",
          "name": "",
          "type": "address"
        }
      ],
      "stateMutability": "view",
      "type": "function",
      "constant": true
    },
    {
      "inputs": [],
      "name": "getName",
      "outputs": [
        {
          "internalType": "string",
          "name": "",
          "type": "string"
        }
      ],
      "stateMutability": "view",
      "type": "function",
      "constant": true
    },
    {
      "inputs": [],
      "name": "getSymbol",
      "outputs": [
        {
          "internalType": "string",
          "name": "",
          "type": "string"
        }
      ],
      "stateMutability": "view",
      "type": "function",
      "constant": true
    },
    {
      "inputs": [],
      "name": "getTotalSupply",
      "outputs": [
        {
          "internalType": "uint256",
          "name": "",
          "type": "uint256"
        }
      ],
      "stateMutability": "view",
      "type": "function",
      "constant": true
    },
    {
      "inputs": [],
      "name": "getDecimal",
      "outputs": [
        {
          "internalType": "uint8",
          "name": "",
          "type": "uint8"
        }
      ],
      "stateMutability": "view",
      "type": "function",
      "constant": true
    },
    {
      "inputs": [
        {
          "internalType": "address",
          "name": "account",
          "type": "address"
        }
      ],
      "name": "getBalance",
      "outputs": [
        {
          "internalType": "uint256",
          "name": "",
          "type": "uint256"
        }
      ],
      "stateMutability": "view",
      "type": "function",
      "constant": true
    },
    {
      "inputs": [],
      "name": "getContractAddress",
      "outputs": [
        {
          "internalType": "address",
          "name": "",
          "type": "address"
        }
      ],
      "stateMutability": "view",
      "type": "function",
      "constant": true
    },
    {
      "inputs": [
        {
          "internalType": "address",
          "name": "account",
          "type": "address"
        },
        {
          "internalType": "uint256",
          "name": "amount",
          "type": "uint256"
        }
      ],
      "name": "mint",
      "outputs": [
        {
          "internalType": "bool",
          "name": "",
          "type": "bool"
        }
      ],
      "stateMutability": "nonpayable",
      "type": "function"
    },
    {
      "inputs": [
        {
          "internalType": "address",
          "name": "account",
          "type": "address"
        },
        {
          "internalType": "uint256",
          "name": "amount",
          "type": "uint256"
        }
      ],
      "name": "burn",
      "outputs": [
        {
          "internalType": "bool",
          "name": "",
          "type": "bool"
        }
      ],
      "stateMutability": "nonpayable",
      "type": "function"
    },
    {
      "inputs": [
        {
          "internalType": "address",
          "name": "receipient",
          "type": "address"
        },
        {
          "internalType": "uint256",
          "name": "amount",
          "type": "uint256"
        }
      ],
      "name": "transfer",
      "outputs": [
        {
          "internalType": "bool",
          "name": "",
          "type": "bool"
        }
      ],
      "stateMutability": "nonpayable",
      "type": "function"
    },
    {
      "inputs": [
        {
          "internalType": "uint256",
          "name": "amount",
          "type": "uint256"
        }
      ],
      "name": "stake",
      "outputs": [
        {
          "internalType": "bool",
          "name": "",
          "type": "bool"
        }
      ],
      "stateMutability": "nonpayable",
      "type": "function"
    },
    {
      "inputs": [
        {
          "internalType": "uint256",
          "name": "amount",
          "type": "uint256"
        },
        {
          "internalType": "uint256",
          "name": "stake_index",
          "type": "uint256"
        }
      ],
      "name": "widthdrawStake",
      "outputs": [
        {
          "internalType": "bool",
          "name": "",
          "type": "bool"
        }
      ],
      "stateMutability": "nonpayable",
      "type": "function"
    }
  ],
  "bytecode": "0x6080604052600860005560646001553480156200001b57600080fd5b5060405162002baf38038062002baf8339818101604052810190620000419190620004b5565b60036001816001815401808255809150500390600052602060002090505033600260006101000a81548173ffffffffffffffffffffffffffffffffffffffff021916908373ffffffffffffffffffffffffffffffffffffffff1602179055508360079080519060200190620000b8929190620001ef565b508260089080519060200190620000d1929190620001ef565b508160058190555080600660006101000a81548160ff021916908360ff160217905550600554600a60003373ffffffffffffffffffffffffffffffffffffffff1673ffffffffffffffffffffffffffffffffffffffff1681526020019081526020016000208190555033600960006101000a81548173ffffffffffffffffffffffffffffffffffffffff021916908373ffffffffffffffffffffffffffffffffffffffff1602179055503373ffffffffffffffffffffffffffffffffffffffff16600073ffffffffffffffffffffffffffffffffffffffff167fddf252ad1be2c89b69c2b068fc378daa952ba7f163c4a11628f55a4df523b3ef600554604051620001dd919062000576565b60405180910390a350505050620005f7565b828054620001fd90620005c2565b90600052602060002090601f0160209004810192826200022157600085556200026d565b82601f106200023c57805160ff19168380011785556200026d565b828001600101855582156200026d579182015b828111156200026c5782518255916020019190600101906200024f565b5b5090506200027c919062000280565b5090565b5b808211156200029b57600081600090555060010162000281565b5090565b6000604051905090565b600080fd5b600080fd5b600080fd5b600080fd5b6000601f19601f8301169050919050565b7f4e487b7100000000000000000000000000000000000000000000000000000000600052604160045260246000fd5b6200030882620002bd565b810181811067ffffffffffffffff821117156200032a5762000329620002ce565b5b80604052505050565b60006200033f6200029f565b90506200034d8282620002fd565b919050565b600067ffffffffffffffff82111562000370576200036f620002ce565b5b6200037b82620002bd565b9050602081019050919050565b60005b83811015620003a85780820151818401526020810190506200038b565b83811115620003b8576000848401525b50505050565b6000620003d5620003cf8462000352565b62000333565b905082815260208101848484011115620003f457620003f3620002b8565b5b6200040184828562000388565b509392505050565b600082601f830112620004215762000420620002b3565b5b815162000433848260208601620003be565b91505092915050565b6000819050919050565b62000451816200043c565b81146200045d57600080fd5b50565b600081519050620004718162000446565b92915050565b600060ff82169050919050565b6200048f8162000477565b81146200049b57600080fd5b50565b600081519050620004af8162000484565b92915050565b60008060008060808587031215620004d257620004d1620002a9565b5b600085015167ffffffffffffffff811115620004f357620004f2620002ae565b5b620005018782880162000409565b945050602085015167ffffffffffffffff811115620005255762000524620002ae565b5b620005338782880162000409565b9350506040620005468782880162000460565b925050606062000559878288016200049e565b91505092959194509250565b62000570816200043c565b82525050565b60006020820190506200058d600083018462000565565b92915050565b7f4e487b7100000000000000000000000000000000000000000000000000000000600052602260045260246000fd5b60006002820490506001821680620005db57607f821691505b602082108103620005f157620005f062000593565b5b50919050565b6125a880620006076000396000f3fe608060405234801561001057600080fd5b506004361061010b5760003560e01c806387ceff09116100a2578063a9059cbb11610071578063a9059cbb146102e4578063c4e41b2214610314578063e10b0c2c14610332578063e73e14bf14610363578063f8b2cb4f146103935761010b565b806387ceff0914610248578063893d20e8146102665780639dc29fac14610284578063a694fc3a146102b45761010b565b806340c10f19116100de57806340c10f19146101885780634c92a1ec146101b85780635db19f77146101e857806374f237c4146102185761010b565b8063150704011461011057806317d7de7c1461012e57806332a2c5d01461014c57806334ce10c41461016a575b600080fd5b6101186103c3565b6040516101259190611a85565b60405180910390f35b610136610455565b6040516101439190611a85565b60405180910390f35b6101546104e7565b6040516101619190611ae8565b60405180910390f35b6101726104f4565b60405161017f9190611b1f565b60405180910390f35b6101a2600480360381019061019d9190611ba1565b61050b565b6040516101af9190611bfc565b60405180910390f35b6101d260048036038101906101cd9190611c17565b61057b565b6040516101df9190611bfc565b60405180910390f35b61020260048036038101906101fd9190611c44565b6105ec565b60405161020f9190611bfc565b60405180910390f35b610232600480360381019061022d9190611c17565b610610565b60405161023f9190611bfc565b60405180910390f35b610250610681565b60405161025d9190611c93565b60405180910390f35b61026e610689565b60405161027b9190611ae8565b60405180910390f35b61029e60048036038101906102999190611ba1565b6106b3565b6040516102ab9190611bfc565b60405180910390f35b6102ce60048036038101906102c99190611c17565b610723565b6040516102db9190611bfc565b60405180910390f35b6102fe60048036038101906102f99190611ba1565b610858565b60405161030b9190611bfc565b60405180910390f35b61031c61086f565b6040516103299190611c93565b60405180910390f35b61034c60048036038101906103479190611cae565b610879565b60405161035a929190611dfd565b60405180910390f35b61037d60048036038101906103789190611cae565b610a93565b60405161038a9190611ed9565b60405180910390f35b6103ad60048036038101906103a89190611cae565b610ca6565b6040516103ba9190611c93565b60405180910390f35b6060600880546103d290611f2a565b80601f01602080910402602001604051908101604052809291908181526020018280546103fe90611f2a565b801561044b5780601f106104205761010080835404028352916020019161044b565b820191906000526020600020905b81548152906001019060200180831161042e57829003601f168201915b5050505050905090565b60606007805461046490611f2a565b80601f016020809104026020016040519081016040528092919081815260200182805461049090611f2a565b80156104dd5780601f106104b2576101008083540402835291602001916104dd565b820191906000526020600020905b8154815290600101906020018083116104c057829003601f168201915b5050505050905090565b6000803090508091505090565b6000600660009054906101000a900460ff16905090565b6000600260009054906101000a900473ffffffffffffffffffffffffffffffffffffffff1673ffffffffffffffffffffffffffffffffffffffff163373ffffffffffffffffffffffffffffffffffffffff161461056757600080fd5b6105718383610cef565b6001905092915050565b6000600260009054906101000a900473ffffffffffffffffffffffffffffffffffffffff1673ffffffffffffffffffffffffffffffffffffffff163373ffffffffffffffffffffffffffffffffffffffff16146105d757600080fd5b6105e360005483610e6a565b60019050919050565b6000806105f98484610ed6565b90506106053382610cef565b600191505092915050565b6000600260009054906101000a900473ffffffffffffffffffffffffffffffffffffffff1673ffffffffffffffffffffffffffffffffffffffff163373ffffffffffffffffffffffffffffffffffffffff161461066c57600080fd5b61067882600154610e6a565b60019050919050565b600042905090565b6000600960009054906101000a900473ffffffffffffffffffffffffffffffffffffffff16905090565b6000600260009054906101000a900473ffffffffffffffffffffffffffffffffffffffff1673ffffffffffffffffffffffffffffffffffffffff163373ffffffffffffffffffffffffffffffffffffffff161461070f57600080fd5b6107198383611193565b6001905092915050565b6000600a60003373ffffffffffffffffffffffffffffffffffffffff1673ffffffffffffffffffffffffffffffffffffffff168152602001908152602001600020548211156107a7576040517f08c379a000000000000000000000000000000000000000000000000000000000815260040161079e90611fa7565b60405180910390fd5b60006107b233610a93565b9050600a60003373ffffffffffffffffffffffffffffffffffffffff1673ffffffffffffffffffffffffffffffffffffffff168152602001908152602001600020548382600001516108049190611ff6565b1115610845576040517f08c379a000000000000000000000000000000000000000000000000000000000815260040161083c906120be565b60405180910390fd5b61084e83611390565b6001915050919050565b6000610865338484611575565b6001905092915050565b6000600554905090565b60006060600080600460008673ffffffffffffffffffffffffffffffffffffffff1673ffffffffffffffffffffffffffffffffffffffff1681526020019081526020016000205490506000604051806040016040528060008152602001600384815481106108ea576108e96120de565b5b9060005260206000209060020201600101805480602002602001604051908101604052809291908181526020016000905b828210156109c157838290600052602060002090600402016040518060800160405290816000820160009054906101000a900473ffffffffffffffffffffffffffffffffffffffff1673ffffffffffffffffffffffffffffffffffffffff1673ffffffffffffffffffffffffffffffffffffffff16815260200160018201548152602001600282015481526020016003820154815250508152602001906001019061091b565b50505050815250905060005b816020015151811015610a72576000610a03836020015183815181106109f6576109f56120de565b5b602002602001015161188b565b90508083602001518381518110610a1d57610a1c6120de565b5b6020026020010151606001818152505082602001518281518110610a4457610a436120de565b5b60200260200101516020015185610a5b9190611ff6565b945050600181610a6b9190611ff6565b90506109cd565b50828160000181815250508060000151816020015194509450505050915091565b610a9b6119d2565b600080600460008573ffffffffffffffffffffffffffffffffffffffff1673ffffffffffffffffffffffffffffffffffffffff168152602001908152602001600020549050600060405180604001604052806000815260200160038481548110610b0857610b076120de565b5b9060005260206000209060020201600101805480602002602001604051908101604052809291908181526020016000905b82821015610bdf57838290600052602060002090600402016040518060800160405290816000820160009054906101000a900473ffffffffffffffffffffffffffffffffffffffff1673ffffffffffffffffffffffffffffffffffffffff1673ffffffffffffffffffffffffffffffffffffffff168152602001600182015481526020016002820154815260200160038201548152505081526020019060010190610b39565b50505050815250905060005b816020015151811015610c90576000610c2183602001518381518110610c1457610c136120de565b5b602002602001015161188b565b90508083602001518381518110610c3b57610c3a6120de565b5b6020026020010151606001818152505082602001518281518110610c6257610c616120de565b5b60200260200101516020015185610c799190611ff6565b945050600181610c899190611ff6565b9050610beb565b5082816000018181525050809350505050919050565b6000600a60008373ffffffffffffffffffffffffffffffffffffffff1673ffffffffffffffffffffffffffffffffffffffff168152602001908152602001600020549050919050565b600073ffffffffffffffffffffffffffffffffffffffff168273ffffffffffffffffffffffffffffffffffffffff1603610d5e576040517f08c379a0000000000000000000000000000000000000000000000000000000008152600401610d5590612159565b60405180910390fd5b80600554610d6c9190611ff6565b60058190555080600a60008473ffffffffffffffffffffffffffffffffffffffff1673ffffffffffffffffffffffffffffffffffffffff16815260200190815260200160002054610dbd9190611ff6565b600a60008473ffffffffffffffffffffffffffffffffffffffff1673ffffffffffffffffffffffffffffffffffffffff168152602001908152602001600020819055508173ffffffffffffffffffffffffffffffffffffffff16600073ffffffffffffffffffffffffffffffffffffffff167fddf252ad1be2c89b69c2b068fc378daa952ba7f163c4a11628f55a4df523b3ef83604051610e5e9190611c93565b60405180910390a35050565b600260009054906101000a900473ffffffffffffffffffffffffffffffffffffffff1673ffffffffffffffffffffffffffffffffffffffff163373ffffffffffffffffffffffffffffffffffffffff1614610ec457600080fd5b81600081905550806001819055505050565b600080600460003373ffffffffffffffffffffffffffffffffffffffff1673ffffffffffffffffffffffffffffffffffffffff168152602001908152602001600020549050600060038281548110610f3157610f306120de565b5b90600052602060002090600202016001018481548110610f5457610f536120de565b5b90600052602060002090600402016040518060800160405290816000820160009054906101000a900473ffffffffffffffffffffffffffffffffffffffff1673ffffffffffffffffffffffffffffffffffffffff1673ffffffffffffffffffffffffffffffffffffffff16815260200160018201548152602001600282015481526020016003820154815250509050848160200151101561102a576040517f08c379a0000000000000000000000000000000000000000000000000000000008152600401611021906121eb565b60405180910390fd5b60006110358261188b565b9050858260200151611047919061220b565b82602001818152505060008260200151036110e857600383815481106110705761106f6120de565b5b90600052602060002090600202016001018581548110611093576110926120de565b5b9060005260206000209060040201600080820160006101000a81549073ffffffffffffffffffffffffffffffffffffffff02191690556001820160009055600282016000905560038201600090555050611187565b816020015160038481548110611101576111006120de565b5b90600052602060002090600202016001018681548110611124576111236120de565b5b906000526020600020906004020160010181905550426003848154811061114e5761114d6120de565b5b90600052602060002090600202016001018681548110611171576111706120de565b5b9060005260206000209060040201600201819055505b80935050505092915050565b600073ffffffffffffffffffffffffffffffffffffffff168273ffffffffffffffffffffffffffffffffffffffff1603611202576040517f08c379a00000000000000000000000000000000000000000000000000000000081526004016111f99061228b565b60405180910390fd5b80600a60008473ffffffffffffffffffffffffffffffffffffffff1673ffffffffffffffffffffffffffffffffffffffff168152602001908152602001600020541015611284576040517f08c379a000000000000000000000000000000000000000000000000000000000815260040161127b906122f7565b60405180910390fd5b80600554611292919061220b565b60058190555080600a60008473ffffffffffffffffffffffffffffffffffffffff1673ffffffffffffffffffffffffffffffffffffffff168152602001908152602001600020546112e3919061220b565b600a60008473ffffffffffffffffffffffffffffffffffffffff1673ffffffffffffffffffffffffffffffffffffffff16815260200190815260200160002081905550600073ffffffffffffffffffffffffffffffffffffffff168273ffffffffffffffffffffffffffffffffffffffff167fddf252ad1be2c89b69c2b068fc378daa952ba7f163c4a11628f55a4df523b3ef836040516113849190611c93565b60405180910390a35050565b60008110156113d4576040517f08c379a00000000000000000000000000000000000000000000000000000000081526004016113cb90612363565b60405180910390fd5b6000600460003373ffffffffffffffffffffffffffffffffffffffff1673ffffffffffffffffffffffffffffffffffffffff1681526020019081526020016000205490506000429050600082036114315761142e336118eb565b91505b60038281548110611445576114446120de565b5b906000526020600020906002020160010160405180608001604052803373ffffffffffffffffffffffffffffffffffffffff1681526020018581526020018381526020016000815250908060018154018082558091505060019003906000526020600020906004020160009091909190915060008201518160000160006101000a81548173ffffffffffffffffffffffffffffffffffffffff021916908373ffffffffffffffffffffffffffffffffffffffff16021790555060208201518160010155604082015181600201556060820151816003015550503373ffffffffffffffffffffffffffffffffffffffff167fb4caaf29adda3eefee3ad552a8e85058589bf834c7466cae4ee58787f70589ed84848460405161156893929190612383565b60405180910390a2505050565b600073ffffffffffffffffffffffffffffffffffffffff168273ffffffffffffffffffffffffffffffffffffffff16036115e4576040517f08c379a00000000000000000000000000000000000000000000000000000000081526004016115db9061242c565b60405180910390fd5b80600a60008573ffffffffffffffffffffffffffffffffffffffff1673ffffffffffffffffffffffffffffffffffffffff168152602001908152602001600020541015611666576040517f08c379a000000000000000000000000000000000000000000000000000000000815260040161165d90612498565b60405180910390fd5b600061167184610a93565b9050600a60008573ffffffffffffffffffffffffffffffffffffffff1673ffffffffffffffffffffffffffffffffffffffff168152602001908152602001600020548282600001516116c39190611ff6565b1115611704576040517f08c379a00000000000000000000000000000000000000000000000000000000081526004016116fb906120be565b60405180910390fd5b81600a60008673ffffffffffffffffffffffffffffffffffffffff1673ffffffffffffffffffffffffffffffffffffffff1681526020019081526020016000205461174f919061220b565b600a60008673ffffffffffffffffffffffffffffffffffffffff1673ffffffffffffffffffffffffffffffffffffffff1681526020019081526020016000208190555081600a60008573ffffffffffffffffffffffffffffffffffffffff1673ffffffffffffffffffffffffffffffffffffffff168152602001908152602001600020546117dd9190611ff6565b600a60008573ffffffffffffffffffffffffffffffffffffffff1673ffffffffffffffffffffffffffffffffffffffff168152602001908152602001600020819055508273ffffffffffffffffffffffffffffffffffffffff168473ffffffffffffffffffffffffffffffffffffffff167fddf252ad1be2c89b69c2b068fc378daa952ba7f163c4a11628f55a4df523b3ef8460405161187d9190611c93565b60405180910390a350505050565b60008082604001514261189e919061220b565b9050610e10816118ae91906124e7565b905060008360200151826118c29190612518565b9050600154600054826118d59190612518565b6118df91906124e7565b90508092505050919050565b60006003600181600181540180825580915050039060005260206000209050506000600160038054905061191f919061220b565b90508260038281548110611936576119356120de565b5b906000526020600020906002020160000160006101000a81548173ffffffffffffffffffffffffffffffffffffffff021916908373ffffffffffffffffffffffffffffffffffffffff16021790555080600460008573ffffffffffffffffffffffffffffffffffffffff1673ffffffffffffffffffffffffffffffffffffffff1681526020019081526020016000208190555080915050919050565b604051806040016040528060008152602001606081525090565b600081519050919050565b600082825260208201905092915050565b60005b83811015611a26578082015181840152602081019050611a0b565b83811115611a35576000848401525b50505050565b6000601f19601f8301169050919050565b6000611a57826119ec565b611a6181856119f7565b9350611a71818560208601611a08565b611a7a81611a3b565b840191505092915050565b60006020820190508181036000830152611a9f8184611a4c565b905092915050565b600073ffffffffffffffffffffffffffffffffffffffff82169050919050565b6000611ad282611aa7565b9050919050565b611ae281611ac7565b82525050565b6000602082019050611afd6000830184611ad9565b92915050565b600060ff82169050919050565b611b1981611b03565b82525050565b6000602082019050611b346000830184611b10565b92915050565b600080fd5b611b4881611ac7565b8114611b5357600080fd5b50565b600081359050611b6581611b3f565b92915050565b6000819050919050565b611b7e81611b6b565b8114611b8957600080fd5b50565b600081359050611b9b81611b75565b92915050565b60008060408385031215611bb857611bb7611b3a565b5b6000611bc685828601611b56565b9250506020611bd785828601611b8c565b9150509250929050565b60008115159050919050565b611bf681611be1565b82525050565b6000602082019050611c116000830184611bed565b92915050565b600060208284031215611c2d57611c2c611b3a565b5b6000611c3b84828501611b8c565b91505092915050565b60008060408385031215611c5b57611c5a611b3a565b5b6000611c6985828601611b8c565b9250506020611c7a85828601611b8c565b9150509250929050565b611c8d81611b6b565b82525050565b6000602082019050611ca86000830184611c84565b92915050565b600060208284031215611cc457611cc3611b3a565b5b6000611cd284828501611b56565b91505092915050565b600081519050919050565b600082825260208201905092915050565b6000819050602082019050919050565b611d1081611ac7565b82525050565b611d1f81611b6b565b82525050565b608082016000820151611d3b6000850182611d07565b506020820151611d4e6020850182611d16565b506040820151611d616040850182611d16565b506060820151611d746060850182611d16565b50505050565b6000611d868383611d25565b60808301905092915050565b6000602082019050919050565b6000611daa82611cdb565b611db48185611ce6565b9350611dbf83611cf7565b8060005b83811015611df0578151611dd78882611d7a565b9750611de283611d92565b925050600181019050611dc3565b5085935050505092915050565b6000604082019050611e126000830185611c84565b8181036020830152611e248184611d9f565b90509392505050565b600082825260208201905092915050565b6000611e4982611cdb565b611e538185611e2d565b9350611e5e83611cf7565b8060005b83811015611e8f578151611e768882611d7a565b9750611e8183611d92565b925050600181019050611e62565b5085935050505092915050565b6000604083016000830151611eb46000860182611d16565b5060208301518482036020860152611ecc8282611e3e565b9150508091505092915050565b60006020820190508181036000830152611ef38184611e9c565b905092915050565b7f4e487b7100000000000000000000000000000000000000000000000000000000600052602260045260246000fd5b60006002820490506001821680611f4257607f821691505b602082108103611f5557611f54611efb565b5b50919050565b7f63616e2774207374616b65206d6f7265207468616e20796f75206f776e000000600082015250565b6000611f91601d836119f7565b9150611f9c82611f5b565b602082019050919050565b60006020820190508181036000830152611fc081611f84565b9050919050565b7f4e487b7100000000000000000000000000000000000000000000000000000000600052601160045260246000fd5b600061200182611b6b565b915061200c83611b6b565b9250827fffffffffffffffffffffffffffffffffffffffffffffffffffffffffffffffff0382111561204157612040611fc7565b5b828201905092915050565b7f6e6f7420656e6f7567682062616c616e63652064756520746f2072656d61696e60008201527f696e6720746f6b656e206973206265696e67207374616b656400000000000000602082015250565b60006120a86039836119f7565b91506120b38261204c565b604082019050919050565b600060208201905081810360008301526120d78161209b565b9050919050565b7f4e487b7100000000000000000000000000000000000000000000000000000000600052603260045260246000fd5b7f63616e6e6f74206d696e7420696e746f207a65726f2061646472657373000000600082015250565b6000612143601d836119f7565b915061214e8261210d565b602082019050919050565b6000602082019050818103600083015261217281612136565b9050919050565b7f63616e2774207769746864726177206e6f7265207468616e20617661696c616260008201527f6c652062616c616e636500000000000000000000000000000000000000000000602082015250565b60006121d5602a836119f7565b91506121e082612179565b604082019050919050565b60006020820190508181036000830152612204816121c8565b9050919050565b600061221682611b6b565b915061222183611b6b565b92508282101561223457612233611fc7565b5b828203905092915050565b7f63616e6e6f74206275726e20696e746f207a65726f2061646472657373000000600082015250565b6000612275601d836119f7565b91506122808261223f565b602082019050919050565b600060208201905081810360008301526122a481612268565b9050919050565b7f6e6f7420656e6f75676820746f6b656e20746f206275726e0000000000000000600082015250565b60006122e16018836119f7565b91506122ec826122ab565b602082019050919050565b60006020820190508181036000830152612310816122d4565b9050919050565b7f63616e2774207374616b65203020746f6b656e00000000000000000000000000600082015250565b600061234d6013836119f7565b915061235882612317565b602082019050919050565b6000602082019050818103600083015261237c81612340565b9050919050565b60006060820190506123986000830186611c84565b6123a56020830185611c84565b6123b26040830184611c84565b949350505050565b7f7472616e7366657220746f207a65726f20616464726573732069732070726f6860008201527f6962697465640000000000000000000000000000000000000000000000000000602082015250565b60006124166026836119f7565b9150612421826123ba565b604082019050919050565b6000602082019050818103600083015261244581612409565b9050919050565b7f6e6f7420656e6f75676820746f6b656e20746f207472616e7366657200000000600082015250565b6000612482601c836119f7565b915061248d8261244c565b602082019050919050565b600060208201905081810360008301526124b181612475565b9050919050565b7f4e487b7100000000000000000000000000000000000000000000000000000000600052601260045260246000fd5b60006124f282611b6b565b91506124fd83611b6b565b92508261250d5761250c6124b8565b5b828204905092915050565b600061252382611b6b565b915061252e83611b6b565b9250817fffffffffffffffffffffffffffffffffffffffffffffffffffffffffffffffff048311821515161561256757612566611fc7565b5b82820290509291505056fea264697066735822122086258b5e2b76e8632ba51c441b45a19af0f9631efc4600190d6b563998f4a8a964736f6c634300080d0033",
  "immutableReferences": {},
  "source": "// SPDX-License-Identifier: MIT\r\npragma solidity >=0.5.0 <0.9.0;\r\n\r\nimport \"./staking.sol\";\r\n\r\ncontract StakingToken is Stakable {\r\n    // required variable for the token operation\r\n\r\n    uint256 private totalSupply;\r\n    uint8 private decimals;\r\n    string private name;\r\n    string private symbol;\r\n    address private owner;\r\n\r\n    mapping(address => uint256) private balances;\r\n\r\n    event Transfer(address indexed from, address indexed to, uint256 value);\r\n\r\n    constructor(\r\n        string memory tokenName,\r\n        string memory tokenSymbol,\r\n        uint256 tokenTotalSupply,\r\n        uint8 tokenDecimals\r\n    ) {\r\n        name = tokenName;\r\n        symbol = tokenSymbol;\r\n        totalSupply = tokenTotalSupply;\r\n        decimals = tokenDecimals;\r\n\r\n        balances[msg.sender] = totalSupply;\r\n        owner = msg.sender;\r\n\r\n        emit Transfer(address(0), msg.sender, totalSupply);\r\n    }\r\n\r\n    function getBlockTime() external view returns (uint256) {\r\n        return block.timestamp;\r\n    }\r\n\r\n    function getOwner() external view returns (address) {\r\n        return owner;\r\n    }\r\n\r\n    function getName() external view returns (string memory) {\r\n        return name;\r\n    }\r\n\r\n    function getSymbol() external view returns (string memory) {\r\n        return symbol;\r\n    }\r\n\r\n    function getTotalSupply() external view returns (uint256) {\r\n        return totalSupply;\r\n    }\r\n\r\n    function getDecimal() external view returns (uint8) {\r\n        return decimals;\r\n    }\r\n\r\n    function getBalance(address account) external view returns (uint256) {\r\n        return balances[account];\r\n    }\r\n\r\n    function getContractAddress() external view returns (address) {\r\n        address contractAddress = address(this);\r\n\r\n        return contractAddress;\r\n    }\r\n\r\n    function _mint(address account, uint256 amount) internal {\r\n        require(account != address(0), \"cannot mint into zero address\");\r\n\r\n        totalSupply = totalSupply + amount;\r\n        balances[account] = balances[account] + amount;\r\n\r\n        emit Transfer(address(0), account, amount);\r\n    }\r\n\r\n    function mint(address account, uint256 amount)\r\n        external\r\n        onlyOwner\r\n        returns (bool)\r\n    {\r\n        _mint(account, amount);\r\n\r\n        return true;\r\n    }\r\n\r\n    function _burn(address account, uint256 amount) internal {\r\n        require(account != address(0), \"cannot burn into zero address\");\r\n        require(balances[account] >= amount, \"not enough token to burn\");\r\n\r\n        totalSupply = totalSupply - amount;\r\n        balances[account] = balances[account] - amount;\r\n\r\n        emit Transfer(account, address(0), amount);\r\n    }\r\n\r\n    function burn(address account, uint256 amount)\r\n        external\r\n        onlyOwner\r\n        returns (bool)\r\n    {\r\n        _burn(account, amount);\r\n\r\n        return true;\r\n    }\r\n\r\n    function transferLogic(\r\n        address sender,\r\n        address receipient,\r\n        uint256 amount\r\n    ) internal {\r\n        require(\r\n            receipient != address(0),\r\n            \"transfer to zero address is prohibited\"\r\n        );\r\n        require(balances[sender] >= amount, \"not enough token to transfer\");\r\n\r\n        StakingSummary memory userStakes = hasStake(sender);\r\n\r\n        require(\r\n            userStakes.totalAmount + amount <= balances[sender],\r\n            \"not enough balance due to remaining token is being staked\"\r\n        );\r\n\r\n        balances[sender] = balances[sender] - amount;\r\n        balances[receipient] = balances[receipient] + amount;\r\n\r\n        emit Transfer(sender, receipient, amount);\r\n    }\r\n\r\n    function transfer(address receipient, uint256 amount)\r\n        external\r\n        returns (bool)\r\n    {\r\n        transferLogic(msg.sender, receipient, amount);\r\n\r\n        return true;\r\n    }\r\n\r\n    function stake(uint256 amount) external returns (bool) {\r\n        require(\r\n            amount <= balances[msg.sender],\r\n            \"can't stake more than you own\"\r\n        );\r\n        StakingSummary memory userStakes = hasStake(msg.sender);\r\n        require(\r\n            userStakes.totalAmount + amount <= balances[msg.sender],\r\n            \"not enough balance due to remaining token is being staked\"\r\n        );\r\n\r\n        stakeLogic(amount);\r\n\r\n        return true;\r\n    }\r\n\r\n    function widthdrawStake(uint256 amount, uint256 stake_index)\r\n        external\r\n        returns (bool)\r\n    {\r\n        uint256 amountToMint = withdrawLogic(amount, stake_index);\r\n\r\n        //change to transfer from reserve account later\r\n        _mint(msg.sender, amountToMint);\r\n\r\n        return true;\r\n    }\r\n\r\n    //TODO: -make staking logic flow and add documentation\r\n}\r\n",
  "sourcePath": "C:\\Users\\ASUS\\Documents\\GitHub\\tugas-axel\\staking\\contracts\\erc20.sol",
  "compiler": {
    "name": "solc",
    "version": "0.8.13+commit.abaa5c0e.Emscripten.clang"
  },
  "schemaVersion": "3.4.7",
  "updatedAt": "2022-07-01T01:43:41.496Z",
  "networkType": "ethereum",
  "devdoc": {
    "kind": "dev",
    "methods": {},
    "version": 1
  },
  "userdoc": {
    "kind": "user",
    "methods": {},
    "version": 1
  }
}