{
  "contractName": "Stakable",
  "abi": [
    {
      "inputs": [],
      "stateMutability": "nonpayable",
      "type": "constructor"
    },
    {
      "anonymous": false,
      "inputs": [
        {
          "indexed": true,
          "internalType": "address",
          "name": "user",
          "type": "address"
        },
        {
          "indexed": false,
          "internalType": "uint256",
          "name": "amount",
          "type": "uint256"
        },
        {
          "indexed": false,
          "internalType": "uint256",
          "name": "index",
          "type": "uint256"
        },
        {
          "indexed": false,
          "internalType": "uint256",
          "name": "timestamp",
          "type": "uint256"
        }
      ],
      "name": "Staked",
      "type": "event"
    },
    {
      "inputs": [
        {
          "internalType": "uint256",
          "name": "newRewardRate",
          "type": "uint256"
        }
      ],
      "name": "changeRewardRate",
      "outputs": [
        {
          "internalType": "bool",
          "name": "",
          "type": "bool"
        }
      ],
      "stateMutability": "nonpayable",
      "type": "function"
    },
    {
      "inputs": [
        {
          "internalType": "uint256",
          "name": "newDivideRate",
          "type": "uint256"
        }
      ],
      "name": "changeDivideRate",
      "outputs": [
        {
          "internalType": "bool",
          "name": "",
          "type": "bool"
        }
      ],
      "stateMutability": "nonpayable",
      "type": "function"
    },
    {
      "inputs": [
        {
          "internalType": "address",
          "name": "staker",
          "type": "address"
        }
      ],
      "name": "hasStake",
      "outputs": [
        {
          "components": [
            {
              "internalType": "uint256",
              "name": "totalAmount",
              "type": "uint256"
            },
            {
              "components": [
                {
                  "internalType": "address",
                  "name": "user",
                  "type": "address"
                },
                {
                  "internalType": "uint256",
                  "name": "amount",
                  "type": "uint256"
                },
                {
                  "internalType": "uint256",
                  "name": "timestamp",
                  "type": "uint256"
                },
                {
                  "internalType": "uint256",
                  "name": "claimable",
                  "type": "uint256"
                }
              ],
              "internalType": "struct Stakable.Stake[]",
              "name": "stakes",
              "type": "tuple[]"
            }
          ],
          "internalType": "struct Stakable.StakingSummary",
          "name": "",
          "type": "tuple"
        }
      ],
      "stateMutability": "view",
      "type": "function"
    },
    {
      "inputs": [
        {
          "internalType": "address",
          "name": "staker",
          "type": "address"
        }
      ],
      "name": "hasStakePublic",
      "outputs": [
        {
          "internalType": "uint256",
          "name": "",
          "type": "uint256"
        },
        {
          "components": [
            {
              "internalType": "address",
              "name": "user",
              "type": "address"
            },
            {
              "internalType": "uint256",
              "name": "amount",
              "type": "uint256"
            },
            {
              "internalType": "uint256",
              "name": "timestamp",
              "type": "uint256"
            },
            {
              "internalType": "uint256",
              "name": "claimable",
              "type": "uint256"
            }
          ],
          "internalType": "struct Stakable.Stake[]",
          "name": "",
          "type": "tuple[]"
        }
      ],
      "stateMutability": "view",
      "type": "function"
    }
  ],
  "bytecode": "0x60806040526008600055606460015534801561001a57600080fd5b5060036001816001815401808255809150500390600052602060002090505033600260006101000a81548173ffffffffffffffffffffffffffffffffffffffff021916908373ffffffffffffffffffffffffffffffffffffffff160217905550610c37806100896000396000f3fe608060405234801561001057600080fd5b506004361061004c5760003560e01c80634c92a1ec1461005157806374f237c414610081578063e10b0c2c146100b1578063e73e14bf146100e2575b600080fd5b61006b60048036038101906100669190610742565b610112565b604051610078919061078a565b60405180910390f35b61009b60048036038101906100969190610742565b610183565b6040516100a8919061078a565b60405180910390f35b6100cb60048036038101906100c69190610803565b6101f4565b6040516100d9929190610961565b60405180910390f35b6100fc60048036038101906100f79190610803565b61040e565b6040516101099190610a3d565b60405180910390f35b6000600260009054906101000a900473ffffffffffffffffffffffffffffffffffffffff1673ffffffffffffffffffffffffffffffffffffffff163373ffffffffffffffffffffffffffffffffffffffff161461016e57600080fd5b61017a60005483610621565b60019050919050565b6000600260009054906101000a900473ffffffffffffffffffffffffffffffffffffffff1673ffffffffffffffffffffffffffffffffffffffff163373ffffffffffffffffffffffffffffffffffffffff16146101df57600080fd5b6101eb82600154610621565b60019050919050565b60006060600080600460008673ffffffffffffffffffffffffffffffffffffffff1673ffffffffffffffffffffffffffffffffffffffff16815260200190815260200160002054905060006040518060400160405280600081526020016003848154811061026557610264610a5f565b5b9060005260206000209060020201600101805480602002602001604051908101604052809291908181526020016000905b8282101561033c57838290600052602060002090600402016040518060800160405290816000820160009054906101000a900473ffffffffffffffffffffffffffffffffffffffff1673ffffffffffffffffffffffffffffffffffffffff1673ffffffffffffffffffffffffffffffffffffffff168152602001600182015481526020016002820154815260200160038201548152505081526020019060010190610296565b50505050815250905060005b8160200151518110156103ed57600061037e8360200151838151811061037157610370610a5f565b5b602002602001015161068d565b9050808360200151838151811061039857610397610a5f565b5b60200260200101516060018181525050826020015182815181106103bf576103be610a5f565b5b602002602001015160200151856103d69190610abd565b9450506001816103e69190610abd565b9050610348565b50828160000181815250508060000151816020015194509450505050915091565b6104166106ed565b600080600460008573ffffffffffffffffffffffffffffffffffffffff1673ffffffffffffffffffffffffffffffffffffffff16815260200190815260200160002054905060006040518060400160405280600081526020016003848154811061048357610482610a5f565b5b9060005260206000209060020201600101805480602002602001604051908101604052809291908181526020016000905b8282101561055a57838290600052602060002090600402016040518060800160405290816000820160009054906101000a900473ffffffffffffffffffffffffffffffffffffffff1673ffffffffffffffffffffffffffffffffffffffff1673ffffffffffffffffffffffffffffffffffffffff1681526020016001820154815260200160028201548152602001600382015481525050815260200190600101906104b4565b50505050815250905060005b81602001515181101561060b57600061059c8360200151838151811061058f5761058e610a5f565b5b602002602001015161068d565b905080836020015183815181106105b6576105b5610a5f565b5b60200260200101516060018181525050826020015182815181106105dd576105dc610a5f565b5b602002602001015160200151856105f49190610abd565b9450506001816106049190610abd565b9050610566565b5082816000018181525050809350505050919050565b600260009054906101000a900473ffffffffffffffffffffffffffffffffffffffff1673ffffffffffffffffffffffffffffffffffffffff163373ffffffffffffffffffffffffffffffffffffffff161461067b57600080fd5b81600081905550806001819055505050565b6000808260400151426106a09190610b13565b9050610e10816106b09190610b76565b905060008360200151826106c49190610ba7565b9050600154600054826106d79190610ba7565b6106e19190610b76565b90508092505050919050565b604051806040016040528060008152602001606081525090565b600080fd5b6000819050919050565b61071f8161070c565b811461072a57600080fd5b50565b60008135905061073c81610716565b92915050565b60006020828403121561075857610757610707565b5b60006107668482850161072d565b91505092915050565b60008115159050919050565b6107848161076f565b82525050565b600060208201905061079f600083018461077b565b92915050565b600073ffffffffffffffffffffffffffffffffffffffff82169050919050565b60006107d0826107a5565b9050919050565b6107e0816107c5565b81146107eb57600080fd5b50565b6000813590506107fd816107d7565b92915050565b60006020828403121561081957610818610707565b5b6000610827848285016107ee565b91505092915050565b6108398161070c565b82525050565b600081519050919050565b600082825260208201905092915050565b6000819050602082019050919050565b610874816107c5565b82525050565b6108838161070c565b82525050565b60808201600082015161089f600085018261086b565b5060208201516108b2602085018261087a565b5060408201516108c5604085018261087a565b5060608201516108d8606085018261087a565b50505050565b60006108ea8383610889565b60808301905092915050565b6000602082019050919050565b600061090e8261083f565b610918818561084a565b93506109238361085b565b8060005b8381101561095457815161093b88826108de565b9750610946836108f6565b925050600181019050610927565b5085935050505092915050565b60006040820190506109766000830185610830565b81810360208301526109888184610903565b90509392505050565b600082825260208201905092915050565b60006109ad8261083f565b6109b78185610991565b93506109c28361085b565b8060005b838110156109f35781516109da88826108de565b97506109e5836108f6565b9250506001810190506109c6565b5085935050505092915050565b6000604083016000830151610a18600086018261087a565b5060208301518482036020860152610a3082826109a2565b9150508091505092915050565b60006020820190508181036000830152610a578184610a00565b905092915050565b7f4e487b7100000000000000000000000000000000000000000000000000000000600052603260045260246000fd5b7f4e487b7100000000000000000000000000000000000000000000000000000000600052601160045260246000fd5b6000610ac88261070c565b9150610ad38361070c565b9250827fffffffffffffffffffffffffffffffffffffffffffffffffffffffffffffffff03821115610b0857610b07610a8e565b5b828201905092915050565b6000610b1e8261070c565b9150610b298361070c565b925082821015610b3c57610b3b610a8e565b5b828203905092915050565b7f4e487b7100000000000000000000000000000000000000000000000000000000600052601260045260246000fd5b6000610b818261070c565b9150610b8c8361070c565b925082610b9c57610b9b610b47565b5b828204905092915050565b6000610bb28261070c565b9150610bbd8361070c565b9250817fffffffffffffffffffffffffffffffffffffffffffffffffffffffffffffffff0483118215151615610bf657610bf5610a8e565b5b82820290509291505056fea264697066735822122004b81160d87432573c6be1531339097ea2c16ac615d9e5727117316d0c09e07164736f6c634300080d0033",
  "immutableReferences": {},
  "source": "// SPDX-License-Identifier: MIT\r\npragma solidity >=0.5.0 <0.9.0;\r\ncontract Stakable {\r\n\r\n    // 10% reward rate per hour(make it and the post-fix larger to represent decimals)\r\n    uint256 rewardRate = 8;\r\n    // post-fix to divide as so it will be the same as multiplying with %(make it larger to represent decimals)\r\n    uint256 divideRate = 100;\r\n\r\n    address private owner;\r\n\r\n    constructor() {\r\n        // push to avoid index -1 bug\r\n        stakeholders.push();\r\n        owner = msg.sender;\r\n    }\r\n\r\n    modifier onlyOwner() {\r\n        require(msg.sender == owner);\r\n        _;\r\n    }\r\n\r\n    struct Stake {\r\n        address user;\r\n        uint256 amount;\r\n        uint256 timestamp;\r\n        uint256 claimable;\r\n    }\r\n\r\n    struct StakingSummary {\r\n        uint256 totalAmount;\r\n        Stake[] stakes;\r\n    }\r\n\r\n    struct Stakeholder {\r\n        address user;\r\n        Stake[] StakesAddress;\r\n    }\r\n\r\n    Stakeholder[] internal stakeholders;\r\n\r\n    // mapping used to track user index in stakeholder array so we don't reiterate the whole array\r\n    mapping(address => uint256) internal stakes;\r\n\r\n    event Staked(\r\n        address indexed user,\r\n        uint256 amount,\r\n        uint256 index,\r\n        uint256 timestamp\r\n    );\r\n\r\n    function addStakeHolder(address staker) internal returns (uint256) {\r\n        stakeholders.push();\r\n\r\n        uint256 userIndex = stakeholders.length - 1;\r\n\r\n        stakeholders[userIndex].user = staker;\r\n        stakes[staker] = userIndex;\r\n        return userIndex;\r\n    }\r\n\r\n    function stakeLogic(uint256 amount) internal {\r\n        require(amount >= 0, \"can't stake 0 token\");\r\n\r\n        uint256 index = stakes[msg.sender];\r\n        uint256 timestamp = block.timestamp;\r\n\r\n        if (index == 0) {\r\n            index = addStakeHolder(msg.sender);\r\n        }\r\n\r\n        stakeholders[index].StakesAddress.push(\r\n            Stake(msg.sender, amount, timestamp, 0)\r\n        );\r\n\r\n        emit Staked(msg.sender, amount, index, timestamp);\r\n    }\r\n\r\n    function withdrawLogic(uint256 amount, uint256 index)\r\n        internal\r\n        returns (uint256)\r\n    {\r\n        // get the uesr index in the array of stakeholders\r\n        uint256 user_index = stakes[msg.sender];\r\n\r\n        // get the desired stake for withdrawal\r\n        Stake memory currentStake = stakeholders[user_index].StakesAddress[\r\n            index\r\n        ];\r\n        require(\r\n            currentStake.amount >= amount,\r\n            \"can't withdraw nore than available balance\"\r\n        );\r\n\r\n        uint256 reward = calculateReward(currentStake);\r\n\r\n        // remove the withdrawed token from the stakes\r\n        currentStake.amount = currentStake.amount - amount;\r\n\r\n        if (currentStake.amount == 0) {\r\n            // delete the current stake if the staked amount is 0\r\n            delete stakeholders[user_index].StakesAddress[index];\r\n        } else {\r\n            // replace the value of the current staked value with the new staked value after withdrawal\r\n            stakeholders[user_index].StakesAddress[index].amount = currentStake\r\n                .amount;\r\n\r\n            // reset the stakes timestamp\r\n            stakeholders[user_index].StakesAddress[index].timestamp = block\r\n                .timestamp;\r\n        }\r\n\r\n        return reward;\r\n    }\r\n\r\n    function calculateReward(Stake memory currentStake)\r\n        internal\r\n        view\r\n        returns (uint256)\r\n    {\r\n        // find the durations\r\n        uint256 duration = block.timestamp - currentStake.timestamp;\r\n        duration = duration / 1 hours;\r\n\r\n        // multiply by the staking amount(this return 1000% yield rate /token staked)\r\n        uint256 reward = duration * currentStake.amount;\r\n\r\n        // find the real reward by dividing with the reward rate to get  the real reward precentage(1000 / your reward rate);\r\n        reward = (reward * rewardRate) / divideRate;\r\n\r\n        return reward;\r\n    }\r\n\r\n    //function overloading to accept only 1 parameter\r\n    function changeReward(uint256 newRewardRate, uint256 newDivideRate)\r\n        internal\r\n        onlyOwner\r\n    {\r\n        rewardRate = newRewardRate;\r\n        divideRate = newDivideRate;\r\n    }\r\n\r\n    function changeRewardRate(uint256 newRewardRate)\r\n        external\r\n        onlyOwner\r\n        returns (bool)\r\n    {\r\n        changeReward(newRewardRate, divideRate);\r\n\r\n        return true;\r\n    }\r\n\r\n    function changeDivideRate(uint256 newDivideRate)\r\n        external\r\n        onlyOwner\r\n        returns (bool)\r\n    {\r\n        changeReward(rewardRate, newDivideRate);\r\n\r\n        return true;\r\n    }\r\n\r\n    function hasStake(address staker)\r\n        public\r\n        view\r\n        returns (StakingSummary memory)\r\n    {\r\n        uint256 totalStakeAmount;\r\n\r\n        uint256 user_index = stakes[staker];\r\n\r\n        // get the stakes array\r\n        StakingSummary memory summary = StakingSummary(\r\n            0,\r\n            stakeholders[user_index].StakesAddress\r\n        );\r\n\r\n        // loop through the stakes array calculating reward and the total stake amount\r\n        for (uint256 i = 0; i < summary.stakes.length; i += 1) {\r\n            uint256 reward = calculateReward(summary.stakes[i]);\r\n            summary.stakes[i].claimable = reward;\r\n            totalStakeAmount = totalStakeAmount + summary.stakes[i].amount;\r\n        }\r\n\r\n        summary.totalAmount = totalStakeAmount;\r\n        return summary;\r\n    }\r\n\r\n     function hasStakePublic(address staker)\r\n        external\r\n        view\r\n        returns (uint256, Stake[] memory)\r\n    {\r\n        uint256 totalStakeAmount;\r\n\r\n        uint256 user_index = stakes[staker];\r\n\r\n        // get the stakes array\r\n        StakingSummary memory summary = StakingSummary(\r\n            0,\r\n            stakeholders[user_index].StakesAddress\r\n        );\r\n\r\n        // loop through the stakes array calculating reward and the total stake amount\r\n        for (uint256 i = 0; i < summary.stakes.length; i += 1) {\r\n            uint256 reward = calculateReward(summary.stakes[i]);\r\n            summary.stakes[i].claimable = reward;\r\n            totalStakeAmount = totalStakeAmount + summary.stakes[i].amount;\r\n        }\r\n\r\n        summary.totalAmount = totalStakeAmount;\r\n        return (summary.totalAmount, summary.stakes);\r\n    }\r\n}\r\n",
  "sourcePath": "C:\\Users\\ASUS\\Documents\\GitHub\\tugas-axel\\staking\\contracts\\staking.sol",
  "compiler": {
    "name": "solc",
    "version": "0.8.13+commit.abaa5c0e.Emscripten.clang"
  },
  "schemaVersion": "3.4.7",
  "updatedAt": "2022-07-01T01:43:31.319Z",
  "devdoc": {
    "kind": "dev",
    "methods": {},
    "version": 1
  },
  "userdoc": {
    "kind": "user",
    "methods": {},
    "version": 1
  }
}