{
  "contractName": "Stakable",
  "abi": [
    {
      "inputs": [],
      "stateMutability": "nonpayable",
      "type": "constructor"
    },
    {
      "anonymous": false,
      "inputs": [
        {
          "indexed": true,
          "internalType": "address",
          "name": "user",
          "type": "address"
        },
        {
          "indexed": false,
          "internalType": "uint256",
          "name": "amount",
          "type": "uint256"
        },
        {
          "indexed": false,
          "internalType": "uint256",
          "name": "index",
          "type": "uint256"
        },
        {
          "indexed": false,
          "internalType": "uint256",
          "name": "timestamp",
          "type": "uint256"
        }
      ],
      "name": "Staked",
      "type": "event"
    },
    {
      "inputs": [
        {
          "internalType": "address",
          "name": "staker",
          "type": "address"
        }
      ],
      "name": "hasStake",
      "outputs": [
        {
          "components": [
            {
              "internalType": "uint256",
              "name": "totalAmount",
              "type": "uint256"
            },
            {
              "components": [
                {
                  "internalType": "address",
                  "name": "user",
                  "type": "address"
                },
                {
                  "internalType": "uint256",
                  "name": "amount",
                  "type": "uint256"
                },
                {
                  "internalType": "uint256",
                  "name": "timestamp",
                  "type": "uint256"
                },
                {
                  "internalType": "uint256",
                  "name": "claimable",
                  "type": "uint256"
                }
              ],
              "internalType": "struct Stakable.Stake[]",
              "name": "stakes",
              "type": "tuple[]"
            }
          ],
          "internalType": "struct Stakable.StakingSummary",
          "name": "",
          "type": "tuple"
        }
      ],
      "stateMutability": "view",
      "type": "function"
    }
  ],
  "bytecode": "0x6080604052600a60005534801561001557600080fd5b5060018081600181540180825580915050039060005260206000209050506106df806100426000396000f3fe608060405234801561001057600080fd5b506004361061002b5760003560e01c8063e73e14bf14610030575b600080fd5b61004a6004803603810190610045919061034f565b610060565b60405161005791906104e5565b60405180910390f35b6100686102d2565b600080600260008573ffffffffffffffffffffffffffffffffffffffff1673ffffffffffffffffffffffffffffffffffffffff1681526020019081526020016000205490506000604051806040016040528060008152602001600184815481106100d5576100d4610507565b5b9060005260206000209060020201600101805480602002602001604051908101604052809291908181526020016000905b828210156101ac57838290600052602060002090600402016040518060800160405290816000820160009054906101000a900473ffffffffffffffffffffffffffffffffffffffff1673ffffffffffffffffffffffffffffffffffffffff1673ffffffffffffffffffffffffffffffffffffffff168152602001600182015481526020016002820154815260200160038201548152505081526020019060010190610106565b50505050815250905060005b81602001515181101561025d5760006101ee836020015183815181106101e1576101e0610507565b5b6020026020010151610273565b9050808360200151838151811061020857610207610507565b5b602002602001015160600181815250508260200151828151811061022f5761022e610507565b5b602002602001015160200151856102469190610565565b9450506001816102569190610565565b90506101b8565b5082816000018181525050809350505050919050565b60008082604001514261028691906105bb565b9050610e1081610296919061061e565b905060008360200151826102aa919061064f565b905060005460646102bb919061061e565b816102c6919061061e565b90508092505050919050565b604051806040016040528060008152602001606081525090565b600080fd5b600073ffffffffffffffffffffffffffffffffffffffff82169050919050565b600061031c826102f1565b9050919050565b61032c81610311565b811461033757600080fd5b50565b60008135905061034981610323565b92915050565b600060208284031215610365576103646102ec565b5b60006103738482850161033a565b91505092915050565b6000819050919050565b61038f8161037c565b82525050565b600081519050919050565b600082825260208201905092915050565b6000819050602082019050919050565b6103ca81610311565b82525050565b6080820160008201516103e660008501826103c1565b5060208201516103f96020850182610386565b50604082015161040c6040850182610386565b50606082015161041f6060850182610386565b50505050565b600061043183836103d0565b60808301905092915050565b6000602082019050919050565b600061045582610395565b61045f81856103a0565b935061046a836103b1565b8060005b8381101561049b5781516104828882610425565b975061048d8361043d565b92505060018101905061046e565b5085935050505092915050565b60006040830160008301516104c06000860182610386565b50602083015184820360208601526104d8828261044a565b9150508091505092915050565b600060208201905081810360008301526104ff81846104a8565b905092915050565b7f4e487b7100000000000000000000000000000000000000000000000000000000600052603260045260246000fd5b7f4e487b7100000000000000000000000000000000000000000000000000000000600052601160045260246000fd5b60006105708261037c565b915061057b8361037c565b9250827fffffffffffffffffffffffffffffffffffffffffffffffffffffffffffffffff038211156105b0576105af610536565b5b828201905092915050565b60006105c68261037c565b91506105d18361037c565b9250828210156105e4576105e3610536565b5b828203905092915050565b7f4e487b7100000000000000000000000000000000000000000000000000000000600052601260045260246000fd5b60006106298261037c565b91506106348361037c565b925082610644576106436105ef565b5b828204905092915050565b600061065a8261037c565b91506106658361037c565b9250817fffffffffffffffffffffffffffffffffffffffffffffffffffffffffffffffff048311821515161561069e5761069d610536565b5b82820290509291505056fea2646970667358221220870167ad5ae7cccbc0de2712a57cc4df0dedf3e35089f5afd24bd84fb88b69a564736f6c634300080d0033",
  "immutableReferences": {},
  "source": "// SPDX-License-Identifier: MIT\r\npragma solidity >=0.5.0 <0.9.0;\r\n\r\ncontract Stakable {\r\n    uint256 rewardRate = 10;\r\n\r\n    constructor() {\r\n        // push to avoid index -1 bug\r\n        stakeholders.push();\r\n    }\r\n\r\n    struct Stake {\r\n        address user;\r\n        uint256 amount;\r\n        uint256 timestamp;\r\n        uint256 claimable;\r\n    }\r\n\r\n    struct StakingSummary {\r\n        uint256 totalAmount;\r\n        Stake[] stakes;\r\n    }\r\n\r\n    struct Stakeholder {\r\n        address user;\r\n        Stake[] StakesAddress;\r\n    }\r\n\r\n    Stakeholder[] internal stakeholders;\r\n\r\n    // mapping used to track user index in stakeholder array so we don't reiterate the whole array\r\n    mapping(address => uint256) internal stakes;\r\n\r\n    event Staked(\r\n        address indexed user,\r\n        uint256 amount,\r\n        uint256 index,\r\n        uint256 timestamp\r\n    );\r\n\r\n    function addStakeHolder(address staker) internal returns (uint256) {\r\n        stakeholders.push();\r\n\r\n        uint256 userIndex = stakeholders.length - 1;\r\n\r\n        stakeholders[userIndex].user = staker;\r\n        stakes[staker] = userIndex;\r\n        return userIndex;\r\n    }\r\n\r\n    function stakeLogic(uint256 amount) internal {\r\n        require(amount >= 0, \"can't stake 0 token\");\r\n\r\n        uint256 index = stakes[msg.sender];\r\n        uint256 timestamp = block.timestamp;\r\n\r\n        if (index == 0) {\r\n            index = addStakeHolder(msg.sender);\r\n        }\r\n\r\n        stakeholders[index].StakesAddress.push(\r\n            Stake(msg.sender, amount, timestamp, 0)\r\n        );\r\n\r\n        emit Staked(msg.sender, amount, index, timestamp);\r\n    }\r\n\r\n    function withdrawLogic(uint256 amount, uint256 index)\r\n        internal\r\n        returns (uint256)\r\n    {\r\n        // get the uesr index in the array of stakeholders\r\n        uint256 user_index = stakes[msg.sender];\r\n\r\n        // get the desired stake for withdrawal\r\n        Stake memory currentStake = stakeholders[user_index].StakesAddress[\r\n            index\r\n        ];\r\n        require(\r\n            currentStake.amount >= amount,\r\n            \"can't withdraw nore than available balance\"\r\n        );\r\n\r\n        uint256 reward = calculateReward(currentStake);\r\n\r\n        // remove the withdrawed token from the stakes\r\n        currentStake.amount = currentStake.amount - amount;\r\n\r\n        if (currentStake.amount == 0) {\r\n            // delete the current stake if the staked amount is 0\r\n            delete stakeholders[user_index].StakesAddress[index];\r\n        } else {\r\n            // replace the value of the current staked value with the new staked value after withdrawal\r\n            stakeholders[user_index].StakesAddress[index].amount = currentStake\r\n                .amount;\r\n\r\n            // reset the stakes timestamp\r\n            stakeholders[user_index].StakesAddress[index].timestamp = block\r\n                .timestamp;\r\n        }\r\n\r\n        return amount + reward;\r\n    }\r\n\r\n    function calculateReward(Stake memory currentStake)\r\n        internal\r\n        view\r\n        returns (uint256)\r\n    {\r\n        // find the durations\r\n        uint256 durationSeconds = block.timestamp - currentStake.timestamp;\r\n        durationSeconds = durationSeconds / 1 hours;\r\n\r\n        // multiply by the staking amount(this return 100% yield rate)\r\n        uint256 reward = durationSeconds * currentStake.amount;\r\n\r\n        // find the real reward by dividing with the % reward rate\r\n        reward = reward / (100 / rewardRate);\r\n\r\n        return reward;\r\n    }\r\n\r\n\r\n    function hasStake(address staker)\r\n        external\r\n        view\r\n        returns (StakingSummary memory)\r\n    {\r\n        uint256 totalStakeAmount;\r\n\r\n        uint256 user_index = stakes[staker];\r\n\r\n        // get the stakes array\r\n        StakingSummary memory summary = StakingSummary(\r\n            0,\r\n            stakeholders[user_index].StakesAddress\r\n        );\r\n\r\n        // loop through the stakes array calculating reward and the total stake amount\r\n        for (uint256 i = 0; i < summary.stakes.length; i += 1) {\r\n            uint256 reward = calculateReward(summary.stakes[i]);\r\n            summary.stakes[i].claimable = reward;\r\n            totalStakeAmount = totalStakeAmount + summary.stakes[i].amount;\r\n        }\r\n\r\n        summary.totalAmount = totalStakeAmount;\r\n        return summary;\r\n    }\r\n}\r\n",
  "sourcePath": "C:\\Users\\ASUS\\Documents\\GitHub\\tugas-axel\\staking\\contracts\\staking.sol",
  "compiler": {
    "name": "solc",
    "version": "0.8.13+commit.abaa5c0e.Emscripten.clang"
  },
  "schemaVersion": "3.4.7",
  "updatedAt": "2022-06-27T05:19:08.670Z",
  "devdoc": {
    "kind": "dev",
    "methods": {},
    "version": 1
  },
  "userdoc": {
    "kind": "user",
    "methods": {},
    "version": 1
  }
}