{
  "contractName": "StakingToken",
  "abi": [
    {
      "inputs": [
        {
          "internalType": "string",
          "name": "tokenName",
          "type": "string"
        },
        {
          "internalType": "string",
          "name": "tokenSymbol",
          "type": "string"
        },
        {
          "internalType": "uint256",
          "name": "tokenTotalSupply",
          "type": "uint256"
        },
        {
          "internalType": "uint8",
          "name": "tokenDecimals",
          "type": "uint8"
        }
      ],
      "stateMutability": "nonpayable",
      "type": "constructor"
    },
    {
      "anonymous": false,
      "inputs": [
        {
          "indexed": true,
          "internalType": "address",
          "name": "from",
          "type": "address"
        },
        {
          "indexed": true,
          "internalType": "address",
          "name": "to",
          "type": "address"
        },
        {
          "indexed": false,
          "internalType": "uint256",
          "name": "value",
          "type": "uint256"
        }
      ],
      "name": "Transfer",
      "type": "event"
    },
    {
      "inputs": [],
      "name": "getName",
      "outputs": [
        {
          "internalType": "string",
          "name": "",
          "type": "string"
        }
      ],
      "stateMutability": "view",
      "type": "function",
      "constant": true
    },
    {
      "inputs": [],
      "name": "getSymbol",
      "outputs": [
        {
          "internalType": "string",
          "name": "",
          "type": "string"
        }
      ],
      "stateMutability": "view",
      "type": "function",
      "constant": true
    },
    {
      "inputs": [],
      "name": "getTotalSupply",
      "outputs": [
        {
          "internalType": "uint256",
          "name": "",
          "type": "uint256"
        }
      ],
      "stateMutability": "view",
      "type": "function",
      "constant": true
    },
    {
      "inputs": [],
      "name": "getDecimal",
      "outputs": [
        {
          "internalType": "uint8",
          "name": "",
          "type": "uint8"
        }
      ],
      "stateMutability": "view",
      "type": "function",
      "constant": true
    },
    {
      "inputs": [
        {
          "internalType": "address",
          "name": "account",
          "type": "address"
        }
      ],
      "name": "getBalance",
      "outputs": [
        {
          "internalType": "uint256",
          "name": "",
          "type": "uint256"
        }
      ],
      "stateMutability": "view",
      "type": "function",
      "constant": true
    },
    {
      "inputs": [],
      "name": "getContractAddress",
      "outputs": [
        {
          "internalType": "address",
          "name": "",
          "type": "address"
        }
      ],
      "stateMutability": "view",
      "type": "function",
      "constant": true
    },
    {
      "inputs": [
        {
          "internalType": "address",
          "name": "account",
          "type": "address"
        },
        {
          "internalType": "uint256",
          "name": "amount",
          "type": "uint256"
        }
      ],
      "name": "mint",
      "outputs": [],
      "stateMutability": "nonpayable",
      "type": "function"
    },
    {
      "inputs": [
        {
          "internalType": "address",
          "name": "account",
          "type": "address"
        },
        {
          "internalType": "uint256",
          "name": "amount",
          "type": "uint256"
        }
      ],
      "name": "burn",
      "outputs": [],
      "stateMutability": "nonpayable",
      "type": "function"
    }
  ],
  "bytecode": "0x60806040523480156200001157600080fd5b506040516200106d3803806200106d83398181016040528101906200003791906200040b565b83600290805190602001906200004f92919062000145565b5082600390805190602001906200006892919062000145565b508160008190555080600160006101000a81548160ff021916908360ff160217905550600054600460003373ffffffffffffffffffffffffffffffffffffffff1673ffffffffffffffffffffffffffffffffffffffff168152602001908152602001600020819055503373ffffffffffffffffffffffffffffffffffffffff16600073ffffffffffffffffffffffffffffffffffffffff167fddf252ad1be2c89b69c2b068fc378daa952ba7f163c4a11628f55a4df523b3ef600054604051620001339190620004cc565b60405180910390a3505050506200054d565b828054620001539062000518565b90600052602060002090601f016020900481019282620001775760008555620001c3565b82601f106200019257805160ff1916838001178555620001c3565b82800160010185558215620001c3579182015b82811115620001c2578251825591602001919060010190620001a5565b5b509050620001d29190620001d6565b5090565b5b80821115620001f1576000816000905550600101620001d7565b5090565b6000604051905090565b600080fd5b600080fd5b600080fd5b600080fd5b6000601f19601f8301169050919050565b7f4e487b7100000000000000000000000000000000000000000000000000000000600052604160045260246000fd5b6200025e8262000213565b810181811067ffffffffffffffff8211171562000280576200027f62000224565b5b80604052505050565b600062000295620001f5565b9050620002a3828262000253565b919050565b600067ffffffffffffffff821115620002c657620002c562000224565b5b620002d18262000213565b9050602081019050919050565b60005b83811015620002fe578082015181840152602081019050620002e1565b838111156200030e576000848401525b50505050565b60006200032b6200032584620002a8565b62000289565b9050828152602081018484840111156200034a57620003496200020e565b5b62000357848285620002de565b509392505050565b600082601f83011262000377576200037662000209565b5b81516200038984826020860162000314565b91505092915050565b6000819050919050565b620003a78162000392565b8114620003b357600080fd5b50565b600081519050620003c7816200039c565b92915050565b600060ff82169050919050565b620003e581620003cd565b8114620003f157600080fd5b50565b6000815190506200040581620003da565b92915050565b60008060008060808587031215620004285762000427620001ff565b5b600085015167ffffffffffffffff81111562000449576200044862000204565b5b62000457878288016200035f565b945050602085015167ffffffffffffffff8111156200047b576200047a62000204565b5b62000489878288016200035f565b93505060406200049c87828801620003b6565b9250506060620004af87828801620003f4565b91505092959194509250565b620004c68162000392565b82525050565b6000602082019050620004e36000830184620004bb565b92915050565b7f4e487b7100000000000000000000000000000000000000000000000000000000600052602260045260246000fd5b600060028204905060018216806200053157607f821691505b602082108103620005475762000546620004e9565b5b50919050565b610b10806200055d6000396000f3fe608060405234801561001057600080fd5b50600436106100885760003560e01c806340c10f191161005b57806340c10f19146101055780639dc29fac14610121578063c4e41b221461013d578063f8b2cb4f1461015b57610088565b8063150704011461008d57806317d7de7c146100ab57806332a2c5d0146100c957806334ce10c4146100e7575b600080fd5b61009561018b565b6040516100a29190610736565b60405180910390f35b6100b361021d565b6040516100c09190610736565b60405180910390f35b6100d16102af565b6040516100de9190610799565b60405180910390f35b6100ef6102bc565b6040516100fc91906107d0565b60405180910390f35b61011f600480360381019061011a9190610852565b6102d3565b005b61013b60048036038101906101369190610852565b61044e565b005b61014561064b565b60405161015291906108a1565b60405180910390f35b610175600480360381019061017091906108bc565b610654565b60405161018291906108a1565b60405180910390f35b60606003805461019a90610918565b80601f01602080910402602001604051908101604052809291908181526020018280546101c690610918565b80156102135780601f106101e857610100808354040283529160200191610213565b820191906000526020600020905b8154815290600101906020018083116101f657829003601f168201915b5050505050905090565b60606002805461022c90610918565b80601f016020809104026020016040519081016040528092919081815260200182805461025890610918565b80156102a55780601f1061027a576101008083540402835291602001916102a5565b820191906000526020600020905b81548152906001019060200180831161028857829003601f168201915b5050505050905090565b6000803090508091505090565b6000600160009054906101000a900460ff16905090565b600073ffffffffffffffffffffffffffffffffffffffff168273ffffffffffffffffffffffffffffffffffffffff1603610342576040517f08c379a000000000000000000000000000000000000000000000000000000000815260040161033990610995565b60405180910390fd5b8060005461035091906109e4565b60008190555080600460008473ffffffffffffffffffffffffffffffffffffffff1673ffffffffffffffffffffffffffffffffffffffff168152602001908152602001600020546103a191906109e4565b600460008473ffffffffffffffffffffffffffffffffffffffff1673ffffffffffffffffffffffffffffffffffffffff168152602001908152602001600020819055508173ffffffffffffffffffffffffffffffffffffffff16600073ffffffffffffffffffffffffffffffffffffffff167fddf252ad1be2c89b69c2b068fc378daa952ba7f163c4a11628f55a4df523b3ef8360405161044291906108a1565b60405180910390a35050565b600073ffffffffffffffffffffffffffffffffffffffff168273ffffffffffffffffffffffffffffffffffffffff16036104bd576040517f08c379a00000000000000000000000000000000000000000000000000000000081526004016104b490610995565b60405180910390fd5b80600460008473ffffffffffffffffffffffffffffffffffffffff1673ffffffffffffffffffffffffffffffffffffffff16815260200190815260200160002054101561053f576040517f08c379a000000000000000000000000000000000000000000000000000000000815260040161053690610a86565b60405180910390fd5b8060005461054d9190610aa6565b60008190555080600460008473ffffffffffffffffffffffffffffffffffffffff1673ffffffffffffffffffffffffffffffffffffffff1681526020019081526020016000205461059e9190610aa6565b600460008473ffffffffffffffffffffffffffffffffffffffff1673ffffffffffffffffffffffffffffffffffffffff16815260200190815260200160002081905550600073ffffffffffffffffffffffffffffffffffffffff168273ffffffffffffffffffffffffffffffffffffffff167fddf252ad1be2c89b69c2b068fc378daa952ba7f163c4a11628f55a4df523b3ef8360405161063f91906108a1565b60405180910390a35050565b60008054905090565b6000600460008373ffffffffffffffffffffffffffffffffffffffff1673ffffffffffffffffffffffffffffffffffffffff168152602001908152602001600020549050919050565b600081519050919050565b600082825260208201905092915050565b60005b838110156106d75780820151818401526020810190506106bc565b838111156106e6576000848401525b50505050565b6000601f19601f8301169050919050565b60006107088261069d565b61071281856106a8565b93506107228185602086016106b9565b61072b816106ec565b840191505092915050565b6000602082019050818103600083015261075081846106fd565b905092915050565b600073ffffffffffffffffffffffffffffffffffffffff82169050919050565b600061078382610758565b9050919050565b61079381610778565b82525050565b60006020820190506107ae600083018461078a565b92915050565b600060ff82169050919050565b6107ca816107b4565b82525050565b60006020820190506107e560008301846107c1565b92915050565b600080fd5b6107f981610778565b811461080457600080fd5b50565b600081359050610816816107f0565b92915050565b6000819050919050565b61082f8161081c565b811461083a57600080fd5b50565b60008135905061084c81610826565b92915050565b60008060408385031215610869576108686107eb565b5b600061087785828601610807565b92505060206108888582860161083d565b9150509250929050565b61089b8161081c565b82525050565b60006020820190506108b66000830184610892565b92915050565b6000602082840312156108d2576108d16107eb565b5b60006108e084828501610807565b91505092915050565b7f4e487b7100000000000000000000000000000000000000000000000000000000600052602260045260246000fd5b6000600282049050600182168061093057607f821691505b602082108103610943576109426108e9565b5b50919050565b7f63616e6e6f74206d696e7420696e746f207a65726f2061646472657373000000600082015250565b600061097f601d836106a8565b915061098a82610949565b602082019050919050565b600060208201905081810360008301526109ae81610972565b9050919050565b7f4e487b7100000000000000000000000000000000000000000000000000000000600052601160045260246000fd5b60006109ef8261081c565b91506109fa8361081c565b9250827fffffffffffffffffffffffffffffffffffffffffffffffffffffffffffffffff03821115610a2f57610a2e6109b5565b5b828201905092915050565b7f62616c616e6365206973206e6f7420656e6f75676820746f206275726e000000600082015250565b6000610a70601d836106a8565b9150610a7b82610a3a565b602082019050919050565b60006020820190508181036000830152610a9f81610a63565b9050919050565b6000610ab18261081c565b9150610abc8361081c565b925082821015610acf57610ace6109b5565b5b82820390509291505056fea264697066735822122098729feaeb40116aa8d3bb158a01bf36f620138e65af172f8c5eced3c68ca7b564736f6c634300080d0033",
  "immutableReferences": {},
  "source": "// SPDX-License-Identifier: MIT\r\npragma solidity >=0.5.0 <0.9.0;\r\n\r\ncontract StakingToken {\r\n    // required variable for the token operation\r\n\r\n    uint256 private totalSupply;\r\n    uint8 private decimals;\r\n    string private name;\r\n    string private symbol;\r\n\r\n    mapping(address => uint256) private balances;\r\n\r\n    event Transfer(address indexed from, address indexed to, uint256 value);\r\n\r\n    constructor(\r\n        string memory tokenName,\r\n        string memory tokenSymbol,\r\n        uint256 tokenTotalSupply,\r\n        uint8 tokenDecimals\r\n    ) {\r\n        name = tokenName;\r\n        symbol = tokenSymbol;\r\n        totalSupply = tokenTotalSupply;\r\n        decimals = tokenDecimals;\r\n\r\n        balances[msg.sender] = totalSupply;\r\n\r\n        emit Transfer(address(0), msg.sender, totalSupply);\r\n    }\r\n\r\n    function getName() external view returns (string memory) {\r\n        return name;\r\n    }\r\n\r\n    function getSymbol() external view returns (string memory) {\r\n        return symbol;\r\n    }\r\n\r\n    function getTotalSupply() external view returns (uint256) {\r\n        return totalSupply;\r\n    }\r\n\r\n    function getDecimal() external view returns (uint8) {\r\n        return decimals;\r\n    }\r\n\r\n    function getBalance(address account) external view returns (uint256){\r\n        return balances[account];\r\n    }\r\n\r\n    function getContractAddress() external view returns (address){\r\n        address contractAddress = address(this);\r\n\r\n        return contractAddress;\r\n    }\r\n\r\n    function mint(address account, uint256 amount)  public{\r\n        require(account != address(0),\"cannot mint into zero address\");\r\n\r\n        totalSupply= totalSupply + amount;\r\n        balances[account] = balances[account] + amount;\r\n\r\n        emit Transfer(address(0), account, amount);\r\n    }\r\n\r\n    function burn(address account, uint256 amount) public {\r\n        require(account != address(0),\"cannot mint into zero address\");\r\n        require(balances[account] >= amount, \"balance is not enough to burn\");\r\n\r\n        totalSupply = totalSupply - amount;\r\n        balances[account] = balances[account] - amount;\r\n\r\n        emit Transfer(account, address(0), amount);\r\n\r\n    }\r\n}\r\n",
  "sourcePath": "C:\\Users\\ASUS\\Documents\\GitHub\\tugas-axel\\staking\\contracts\\erc20.sol",
  "compiler": {
    "name": "solc",
    "version": "0.8.13+commit.abaa5c0e.Emscripten.clang"
  },
  "schemaVersion": "3.4.7",
  "updatedAt": "2022-06-25T14:54:30.113Z",
  "networkType": "ethereum",
  "devdoc": {
    "kind": "dev",
    "methods": {},
    "version": 1
  },
  "userdoc": {
    "kind": "user",
    "methods": {},
    "version": 1
  }
}