{
  "contractName": "StakingToken",
  "abi": [
    {
      "inputs": [
        {
          "internalType": "string",
          "name": "tokenName",
          "type": "string"
        },
        {
          "internalType": "string",
          "name": "tokenSymbol",
          "type": "string"
        },
        {
          "internalType": "uint256",
          "name": "tokenTotalSupply",
          "type": "uint256"
        },
        {
          "internalType": "uint8",
          "name": "tokenDecimals",
          "type": "uint8"
        }
      ],
      "stateMutability": "nonpayable",
      "type": "constructor"
    },
    {
      "anonymous": false,
      "inputs": [
        {
          "indexed": true,
          "internalType": "address",
          "name": "from",
          "type": "address"
        },
        {
          "indexed": true,
          "internalType": "address",
          "name": "to",
          "type": "address"
        },
        {
          "indexed": false,
          "internalType": "uint256",
          "name": "value",
          "type": "uint256"
        }
      ],
      "name": "Transfer",
      "type": "event"
    },
    {
      "inputs": [],
      "name": "getOwner",
      "outputs": [
        {
          "internalType": "address",
          "name": "",
          "type": "address"
        }
      ],
      "stateMutability": "view",
      "type": "function"
    },
    {
      "inputs": [],
      "name": "getName",
      "outputs": [
        {
          "internalType": "string",
          "name": "",
          "type": "string"
        }
      ],
      "stateMutability": "view",
      "type": "function"
    },
    {
      "inputs": [],
      "name": "getSymbol",
      "outputs": [
        {
          "internalType": "string",
          "name": "",
          "type": "string"
        }
      ],
      "stateMutability": "view",
      "type": "function"
    },
    {
      "inputs": [],
      "name": "getTotalSupply",
      "outputs": [
        {
          "internalType": "uint256",
          "name": "",
          "type": "uint256"
        }
      ],
      "stateMutability": "view",
      "type": "function"
    },
    {
      "inputs": [],
      "name": "getDecimal",
      "outputs": [
        {
          "internalType": "uint8",
          "name": "",
          "type": "uint8"
        }
      ],
      "stateMutability": "view",
      "type": "function"
    },
    {
      "inputs": [
        {
          "internalType": "address",
          "name": "account",
          "type": "address"
        }
      ],
      "name": "getBalance",
      "outputs": [
        {
          "internalType": "uint256",
          "name": "",
          "type": "uint256"
        }
      ],
      "stateMutability": "view",
      "type": "function"
    },
    {
      "inputs": [],
      "name": "getContractAddress",
      "outputs": [
        {
          "internalType": "address",
          "name": "",
          "type": "address"
        }
      ],
      "stateMutability": "view",
      "type": "function"
    },
    {
      "inputs": [
        {
          "internalType": "address",
          "name": "account",
          "type": "address"
        },
        {
          "internalType": "uint256",
          "name": "amount",
          "type": "uint256"
        }
      ],
      "name": "mint",
      "outputs": [
        {
          "internalType": "bool",
          "name": "",
          "type": "bool"
        }
      ],
      "stateMutability": "nonpayable",
      "type": "function"
    },
    {
      "inputs": [
        {
          "internalType": "address",
          "name": "account",
          "type": "address"
        },
        {
          "internalType": "uint256",
          "name": "amount",
          "type": "uint256"
        }
      ],
      "name": "burn",
      "outputs": [
        {
          "internalType": "bool",
          "name": "",
          "type": "bool"
        }
      ],
      "stateMutability": "nonpayable",
      "type": "function"
    },
    {
      "inputs": [
        {
          "internalType": "address",
          "name": "receipient",
          "type": "address"
        },
        {
          "internalType": "uint256",
          "name": "amount",
          "type": "uint256"
        }
      ],
      "name": "transfer",
      "outputs": [
        {
          "internalType": "bool",
          "name": "",
          "type": "bool"
        }
      ],
      "stateMutability": "nonpayable",
      "type": "function"
    }
  ],
  "bytecode": "0x60806040523480156200001157600080fd5b50604051620016723803806200167283398181016040528101906200003791906200044c565b83600290805190602001906200004f92919062000186565b5082600390805190602001906200006892919062000186565b508160008190555080600160006101000a81548160ff021916908360ff160217905550600054600560003373ffffffffffffffffffffffffffffffffffffffff1673ffffffffffffffffffffffffffffffffffffffff1681526020019081526020016000208190555033600460006101000a81548173ffffffffffffffffffffffffffffffffffffffff021916908373ffffffffffffffffffffffffffffffffffffffff1602179055503373ffffffffffffffffffffffffffffffffffffffff16600073ffffffffffffffffffffffffffffffffffffffff167fddf252ad1be2c89b69c2b068fc378daa952ba7f163c4a11628f55a4df523b3ef6000546040516200017491906200050d565b60405180910390a3505050506200058e565b828054620001949062000559565b90600052602060002090601f016020900481019282620001b8576000855562000204565b82601f10620001d357805160ff191683800117855562000204565b8280016001018555821562000204579182015b8281111562000203578251825591602001919060010190620001e6565b5b50905062000213919062000217565b5090565b5b808211156200023257600081600090555060010162000218565b5090565b6000604051905090565b600080fd5b600080fd5b600080fd5b600080fd5b6000601f19601f8301169050919050565b7f4e487b7100000000000000000000000000000000000000000000000000000000600052604160045260246000fd5b6200029f8262000254565b810181811067ffffffffffffffff82111715620002c157620002c062000265565b5b80604052505050565b6000620002d662000236565b9050620002e4828262000294565b919050565b600067ffffffffffffffff82111562000307576200030662000265565b5b620003128262000254565b9050602081019050919050565b60005b838110156200033f57808201518184015260208101905062000322565b838111156200034f576000848401525b50505050565b60006200036c6200036684620002e9565b620002ca565b9050828152602081018484840111156200038b576200038a6200024f565b5b620003988482856200031f565b509392505050565b600082601f830112620003b857620003b76200024a565b5b8151620003ca84826020860162000355565b91505092915050565b6000819050919050565b620003e881620003d3565b8114620003f457600080fd5b50565b6000815190506200040881620003dd565b92915050565b600060ff82169050919050565b62000426816200040e565b81146200043257600080fd5b50565b60008151905062000446816200041b565b92915050565b6000806000806080858703121562000469576200046862000240565b5b600085015167ffffffffffffffff8111156200048a576200048962000245565b5b6200049887828801620003a0565b945050602085015167ffffffffffffffff811115620004bc57620004bb62000245565b5b620004ca87828801620003a0565b9350506040620004dd87828801620003f7565b9250506060620004f08782880162000435565b91505092959194509250565b6200050781620003d3565b82525050565b6000602082019050620005246000830184620004fc565b92915050565b7f4e487b7100000000000000000000000000000000000000000000000000000000600052602260045260246000fd5b600060028204905060018216806200057257607f821691505b6020821081036200058857620005876200052a565b5b50919050565b6110d4806200059e6000396000f3fe608060405234801561001057600080fd5b506004361061009e5760003560e01c8063893d20e811610066578063893d20e81461014b5780639dc29fac14610169578063a9059cbb14610199578063c4e41b22146101c9578063f8b2cb4f146101e75761009e565b806315070401146100a357806317d7de7c146100c157806332a2c5d0146100df57806334ce10c4146100fd57806340c10f191461011b575b600080fd5b6100ab610217565b6040516100b89190610b5a565b60405180910390f35b6100c96102a9565b6040516100d69190610b5a565b60405180910390f35b6100e761033b565b6040516100f49190610bbd565b60405180910390f35b610105610348565b6040516101129190610bf4565b60405180910390f35b61013560048036038101906101309190610c76565b61035f565b6040516101429190610cd1565b60405180910390f35b6101536103cf565b6040516101609190610bbd565b60405180910390f35b610183600480360381019061017e9190610c76565b6103f9565b6040516101909190610cd1565b60405180910390f35b6101b360048036038101906101ae9190610c76565b610469565b6040516101c09190610cd1565b60405180910390f35b6101d1610480565b6040516101de9190610cfb565b60405180910390f35b61020160048036038101906101fc9190610d16565b610489565b60405161020e9190610cfb565b60405180910390f35b60606003805461022690610d72565b80601f016020809104026020016040519081016040528092919081815260200182805461025290610d72565b801561029f5780601f106102745761010080835404028352916020019161029f565b820191906000526020600020905b81548152906001019060200180831161028257829003601f168201915b5050505050905090565b6060600280546102b890610d72565b80601f01602080910402602001604051908101604052809291908181526020018280546102e490610d72565b80156103315780601f1061030657610100808354040283529160200191610331565b820191906000526020600020905b81548152906001019060200180831161031457829003601f168201915b5050505050905090565b6000803090508091505090565b6000600160009054906101000a900460ff16905090565b6000600460009054906101000a900473ffffffffffffffffffffffffffffffffffffffff1673ffffffffffffffffffffffffffffffffffffffff163373ffffffffffffffffffffffffffffffffffffffff16146103bb57600080fd5b6103c583836104d2565b6001905092915050565b6000600460009054906101000a900473ffffffffffffffffffffffffffffffffffffffff16905090565b6000600460009054906101000a900473ffffffffffffffffffffffffffffffffffffffff1673ffffffffffffffffffffffffffffffffffffffff163373ffffffffffffffffffffffffffffffffffffffff161461045557600080fd5b61045f838361064d565b6001905092915050565b600061047633848461084a565b6001905092915050565b60008054905090565b6000600560008373ffffffffffffffffffffffffffffffffffffffff1673ffffffffffffffffffffffffffffffffffffffff168152602001908152602001600020549050919050565b600073ffffffffffffffffffffffffffffffffffffffff168273ffffffffffffffffffffffffffffffffffffffff1603610541576040517f08c379a000000000000000000000000000000000000000000000000000000000815260040161053890610def565b60405180910390fd5b8060005461054f9190610e3e565b60008190555080600560008473ffffffffffffffffffffffffffffffffffffffff1673ffffffffffffffffffffffffffffffffffffffff168152602001908152602001600020546105a09190610e3e565b600560008473ffffffffffffffffffffffffffffffffffffffff1673ffffffffffffffffffffffffffffffffffffffff168152602001908152602001600020819055508173ffffffffffffffffffffffffffffffffffffffff16600073ffffffffffffffffffffffffffffffffffffffff167fddf252ad1be2c89b69c2b068fc378daa952ba7f163c4a11628f55a4df523b3ef836040516106419190610cfb565b60405180910390a35050565b600073ffffffffffffffffffffffffffffffffffffffff168273ffffffffffffffffffffffffffffffffffffffff16036106bc576040517f08c379a00000000000000000000000000000000000000000000000000000000081526004016106b390610ee0565b60405180910390fd5b80600560008473ffffffffffffffffffffffffffffffffffffffff1673ffffffffffffffffffffffffffffffffffffffff16815260200190815260200160002054101561073e576040517f08c379a000000000000000000000000000000000000000000000000000000000815260040161073590610f4c565b60405180910390fd5b8060005461074c9190610f6c565b60008190555080600560008473ffffffffffffffffffffffffffffffffffffffff1673ffffffffffffffffffffffffffffffffffffffff1681526020019081526020016000205461079d9190610f6c565b600560008473ffffffffffffffffffffffffffffffffffffffff1673ffffffffffffffffffffffffffffffffffffffff16815260200190815260200160002081905550600073ffffffffffffffffffffffffffffffffffffffff168273ffffffffffffffffffffffffffffffffffffffff167fddf252ad1be2c89b69c2b068fc378daa952ba7f163c4a11628f55a4df523b3ef8360405161083e9190610cfb565b60405180910390a35050565b600073ffffffffffffffffffffffffffffffffffffffff168273ffffffffffffffffffffffffffffffffffffffff16036108b9576040517f08c379a00000000000000000000000000000000000000000000000000000000081526004016108b090611012565b60405180910390fd5b80600560008573ffffffffffffffffffffffffffffffffffffffff1673ffffffffffffffffffffffffffffffffffffffff16815260200190815260200160002054101561093b576040517f08c379a00000000000000000000000000000000000000000000000000000000081526004016109329061107e565b60405180910390fd5b80600560008573ffffffffffffffffffffffffffffffffffffffff1673ffffffffffffffffffffffffffffffffffffffff168152602001908152602001600020546109869190610f6c565b600560008573ffffffffffffffffffffffffffffffffffffffff1673ffffffffffffffffffffffffffffffffffffffff1681526020019081526020016000208190555080600560008473ffffffffffffffffffffffffffffffffffffffff1673ffffffffffffffffffffffffffffffffffffffff16815260200190815260200160002054610a149190610e3e565b600560008473ffffffffffffffffffffffffffffffffffffffff1673ffffffffffffffffffffffffffffffffffffffff168152602001908152602001600020819055508173ffffffffffffffffffffffffffffffffffffffff168373ffffffffffffffffffffffffffffffffffffffff167fddf252ad1be2c89b69c2b068fc378daa952ba7f163c4a11628f55a4df523b3ef83604051610ab49190610cfb565b60405180910390a3505050565b600081519050919050565b600082825260208201905092915050565b60005b83811015610afb578082015181840152602081019050610ae0565b83811115610b0a576000848401525b50505050565b6000601f19601f8301169050919050565b6000610b2c82610ac1565b610b368185610acc565b9350610b46818560208601610add565b610b4f81610b10565b840191505092915050565b60006020820190508181036000830152610b748184610b21565b905092915050565b600073ffffffffffffffffffffffffffffffffffffffff82169050919050565b6000610ba782610b7c565b9050919050565b610bb781610b9c565b82525050565b6000602082019050610bd26000830184610bae565b92915050565b600060ff82169050919050565b610bee81610bd8565b82525050565b6000602082019050610c096000830184610be5565b92915050565b600080fd5b610c1d81610b9c565b8114610c2857600080fd5b50565b600081359050610c3a81610c14565b92915050565b6000819050919050565b610c5381610c40565b8114610c5e57600080fd5b50565b600081359050610c7081610c4a565b92915050565b60008060408385031215610c8d57610c8c610c0f565b5b6000610c9b85828601610c2b565b9250506020610cac85828601610c61565b9150509250929050565b60008115159050919050565b610ccb81610cb6565b82525050565b6000602082019050610ce66000830184610cc2565b92915050565b610cf581610c40565b82525050565b6000602082019050610d106000830184610cec565b92915050565b600060208284031215610d2c57610d2b610c0f565b5b6000610d3a84828501610c2b565b91505092915050565b7f4e487b7100000000000000000000000000000000000000000000000000000000600052602260045260246000fd5b60006002820490506001821680610d8a57607f821691505b602082108103610d9d57610d9c610d43565b5b50919050565b7f63616e6e6f74206d696e7420696e746f207a65726f2061646472657373000000600082015250565b6000610dd9601d83610acc565b9150610de482610da3565b602082019050919050565b60006020820190508181036000830152610e0881610dcc565b9050919050565b7f4e487b7100000000000000000000000000000000000000000000000000000000600052601160045260246000fd5b6000610e4982610c40565b9150610e5483610c40565b9250827fffffffffffffffffffffffffffffffffffffffffffffffffffffffffffffffff03821115610e8957610e88610e0f565b5b828201905092915050565b7f63616e6e6f74206275726e20696e746f207a65726f2061646472657373000000600082015250565b6000610eca601d83610acc565b9150610ed582610e94565b602082019050919050565b60006020820190508181036000830152610ef981610ebd565b9050919050565b7f6e6f7420656e6f75676820746f6b656e20746f206275726e0000000000000000600082015250565b6000610f36601883610acc565b9150610f4182610f00565b602082019050919050565b60006020820190508181036000830152610f6581610f29565b9050919050565b6000610f7782610c40565b9150610f8283610c40565b925082821015610f9557610f94610e0f565b5b828203905092915050565b7f7472616e7366657220746f207a65726f20616464726573732069732070726f6860008201527f6962697465640000000000000000000000000000000000000000000000000000602082015250565b6000610ffc602683610acc565b915061100782610fa0565b604082019050919050565b6000602082019050818103600083015261102b81610fef565b9050919050565b7f6e6f7420656e6f75676820746f6b656e20746f207472616e7366657200000000600082015250565b6000611068601c83610acc565b915061107382611032565b602082019050919050565b600060208201905081810360008301526110978161105b565b905091905056fea2646970667358221220dc19a9a932a507e41699e6e102b5b7efd0a0728edd06cac5cd014b44367d3cfa64736f6c634300080d0033",
  "immutableReferences": {},
  "source": "// SPDX-License-Identifier: MIT\r\npragma solidity >=0.5.0 <0.9.0;\r\n\r\nimport \"./staking.sol\";\r\n\r\ncontract StakingToken {\r\n    // required variable for the token operation\r\n\r\n    uint256 private totalSupply;\r\n    uint8 private decimals;\r\n    string private name;\r\n    string private symbol;\r\n    address private owner;\r\n\r\n    modifier onlyOwner{\r\n        require(msg.sender == owner);\r\n        _;\r\n    }\r\n    \r\n\r\n    mapping(address => uint256) private balances;\r\n\r\n    event Transfer(address indexed from, address indexed to, uint256 value);\r\n\r\n    constructor(\r\n        string memory tokenName,\r\n        string memory tokenSymbol,\r\n        uint256 tokenTotalSupply,\r\n        uint8 tokenDecimals\r\n    ) {\r\n        name = tokenName;\r\n        symbol = tokenSymbol;\r\n        totalSupply = tokenTotalSupply;\r\n        decimals = tokenDecimals;\r\n\r\n        balances[msg.sender] = totalSupply;\r\n        owner = msg.sender;\r\n\r\n        emit Transfer(address(0), msg.sender, totalSupply);\r\n    }\r\n\r\n    function getOwner() view external returns(address){\r\n        return owner;\r\n    }\r\n\r\n    function getName() external view returns (string memory) {\r\n        return name;\r\n    }\r\n\r\n    function getSymbol() external view returns (string memory) {\r\n        return symbol;\r\n    }\r\n\r\n    function getTotalSupply() external view returns (uint256) {\r\n        return totalSupply;\r\n    }\r\n\r\n    function getDecimal() external view returns (uint8) {\r\n        return decimals;\r\n    }\r\n\r\n    function getBalance(address account) external view returns (uint256) {\r\n        return balances[account];\r\n    }\r\n\r\n    function getContractAddress() external view returns (address) {\r\n        address contractAddress = address(this);\r\n\r\n        return contractAddress;\r\n    }\r\n\r\n    function _mint(address account, uint256 amount) internal {\r\n        require(account != address(0), \"cannot mint into zero address\");\r\n\r\n        totalSupply = totalSupply + amount;\r\n        balances[account] = balances[account] + amount;\r\n\r\n        emit Transfer(address(0), account, amount);\r\n    }\r\n\r\n    function mint(address account, uint256 amount) onlyOwner external returns(bool) {\r\n        _mint(account, amount);\r\n        \r\n        return true;\r\n    }\r\n\r\n    function _burn(address account, uint256 amount) internal {\r\n        require(account != address(0), \"cannot burn into zero address\");\r\n        require(balances[account] >= amount, \"not enough token to burn\");\r\n\r\n        totalSupply = totalSupply - amount;\r\n        balances[account] = balances[account] - amount;\r\n\r\n        emit Transfer(account, address(0), amount);\r\n    }\r\n\r\n    function burn(address account, uint256 amount) onlyOwner external returns(bool){\r\n        _burn(account, amount);\r\n\r\n        return true;\r\n    }\r\n\r\n    function transferLogic(address sender, address receipient, uint256 amount) internal {\r\n        require(receipient != address(0),\"transfer to zero address is prohibited\");\r\n        require(balances[sender] >= amount, \"not enough token to transfer\");\r\n\r\n        balances[sender] = balances[sender] - amount;\r\n        balances[receipient] = balances[receipient] + amount;\r\n\r\n        emit Transfer(sender, receipient, amount);\r\n    }\r\n\r\n    function transfer(address receipient, uint256 amount) external returns(bool) {\r\n        transferLogic(msg.sender,receipient,amount);\r\n\r\n        return true;\r\n    }\r\n}\r\n",
  "sourcePath": "C:\\Users\\ASUS\\Documents\\GitHub\\tugas-axel\\staking\\contracts\\erc20.sol",
  "compiler": {
    "name": "solc",
    "version": "0.8.13+commit.abaa5c0e.Emscripten.clang"
  },
  "schemaVersion": "3.4.7",
  "updatedAt": "2022-06-26T13:06:00.141Z",
  "devdoc": {
    "kind": "dev",
    "methods": {},
    "version": 1
  },
  "userdoc": {
    "kind": "user",
    "methods": {},
    "version": 1
  }
}