{
  "contractName": "StakingToken",
  "abi": [
    {
      "inputs": [
        {
          "internalType": "string",
          "name": "tokenName",
          "type": "string"
        },
        {
          "internalType": "string",
          "name": "tokenSymbol",
          "type": "string"
        },
        {
          "internalType": "uint256",
          "name": "tokenTotalSupply",
          "type": "uint256"
        },
        {
          "internalType": "uint8",
          "name": "tokenDecimals",
          "type": "uint8"
        }
      ],
      "stateMutability": "nonpayable",
      "type": "constructor"
    },
    {
      "anonymous": false,
      "inputs": [
        {
          "indexed": true,
          "internalType": "address",
          "name": "user",
          "type": "address"
        },
        {
          "indexed": false,
          "internalType": "uint256",
          "name": "amount",
          "type": "uint256"
        },
        {
          "indexed": false,
          "internalType": "uint256",
          "name": "index",
          "type": "uint256"
        },
        {
          "indexed": false,
          "internalType": "uint256",
          "name": "timestamp",
          "type": "uint256"
        }
      ],
      "name": "Staked",
      "type": "event"
    },
    {
      "anonymous": false,
      "inputs": [
        {
          "indexed": true,
          "internalType": "address",
          "name": "from",
          "type": "address"
        },
        {
          "indexed": true,
          "internalType": "address",
          "name": "to",
          "type": "address"
        },
        {
          "indexed": false,
          "internalType": "uint256",
          "name": "value",
          "type": "uint256"
        }
      ],
      "name": "Transfer",
      "type": "event"
    },
    {
      "inputs": [
        {
          "internalType": "address",
          "name": "staker",
          "type": "address"
        }
      ],
      "name": "hasStake",
      "outputs": [
        {
          "components": [
            {
              "internalType": "uint256",
              "name": "totalAmount",
              "type": "uint256"
            },
            {
              "components": [
                {
                  "internalType": "address",
                  "name": "user",
                  "type": "address"
                },
                {
                  "internalType": "uint256",
                  "name": "amount",
                  "type": "uint256"
                },
                {
                  "internalType": "uint256",
                  "name": "timestamp",
                  "type": "uint256"
                },
                {
                  "internalType": "uint256",
                  "name": "claimable",
                  "type": "uint256"
                }
              ],
              "internalType": "struct Stakable.Stake[]",
              "name": "stakes",
              "type": "tuple[]"
            }
          ],
          "internalType": "struct Stakable.StakingSummary",
          "name": "",
          "type": "tuple"
        }
      ],
      "stateMutability": "view",
      "type": "function",
      "constant": true
    },
    {
      "inputs": [],
      "name": "getBlockTime",
      "outputs": [
        {
          "internalType": "uint256",
          "name": "",
          "type": "uint256"
        }
      ],
      "stateMutability": "view",
      "type": "function",
      "constant": true
    },
    {
      "inputs": [],
      "name": "getOwner",
      "outputs": [
        {
          "internalType": "address",
          "name": "",
          "type": "address"
        }
      ],
      "stateMutability": "view",
      "type": "function",
      "constant": true
    },
    {
      "inputs": [],
      "name": "getName",
      "outputs": [
        {
          "internalType": "string",
          "name": "",
          "type": "string"
        }
      ],
      "stateMutability": "view",
      "type": "function",
      "constant": true
    },
    {
      "inputs": [],
      "name": "getSymbol",
      "outputs": [
        {
          "internalType": "string",
          "name": "",
          "type": "string"
        }
      ],
      "stateMutability": "view",
      "type": "function",
      "constant": true
    },
    {
      "inputs": [],
      "name": "getTotalSupply",
      "outputs": [
        {
          "internalType": "uint256",
          "name": "",
          "type": "uint256"
        }
      ],
      "stateMutability": "view",
      "type": "function",
      "constant": true
    },
    {
      "inputs": [],
      "name": "getDecimal",
      "outputs": [
        {
          "internalType": "uint8",
          "name": "",
          "type": "uint8"
        }
      ],
      "stateMutability": "view",
      "type": "function",
      "constant": true
    },
    {
      "inputs": [
        {
          "internalType": "address",
          "name": "account",
          "type": "address"
        }
      ],
      "name": "getBalance",
      "outputs": [
        {
          "internalType": "uint256",
          "name": "",
          "type": "uint256"
        }
      ],
      "stateMutability": "view",
      "type": "function",
      "constant": true
    },
    {
      "inputs": [],
      "name": "getContractAddress",
      "outputs": [
        {
          "internalType": "address",
          "name": "",
          "type": "address"
        }
      ],
      "stateMutability": "view",
      "type": "function",
      "constant": true
    },
    {
      "inputs": [
        {
          "internalType": "address",
          "name": "account",
          "type": "address"
        },
        {
          "internalType": "uint256",
          "name": "amount",
          "type": "uint256"
        }
      ],
      "name": "mint",
      "outputs": [
        {
          "internalType": "bool",
          "name": "",
          "type": "bool"
        }
      ],
      "stateMutability": "nonpayable",
      "type": "function"
    },
    {
      "inputs": [
        {
          "internalType": "address",
          "name": "account",
          "type": "address"
        },
        {
          "internalType": "uint256",
          "name": "amount",
          "type": "uint256"
        }
      ],
      "name": "burn",
      "outputs": [
        {
          "internalType": "bool",
          "name": "",
          "type": "bool"
        }
      ],
      "stateMutability": "nonpayable",
      "type": "function"
    },
    {
      "inputs": [
        {
          "internalType": "address",
          "name": "receipient",
          "type": "address"
        },
        {
          "internalType": "uint256",
          "name": "amount",
          "type": "uint256"
        }
      ],
      "name": "transfer",
      "outputs": [
        {
          "internalType": "bool",
          "name": "",
          "type": "bool"
        }
      ],
      "stateMutability": "nonpayable",
      "type": "function"
    },
    {
      "inputs": [
        {
          "internalType": "uint256",
          "name": "amount",
          "type": "uint256"
        }
      ],
      "name": "stake",
      "outputs": [
        {
          "internalType": "bool",
          "name": "",
          "type": "bool"
        }
      ],
      "stateMutability": "nonpayable",
      "type": "function"
    },
    {
      "inputs": [
        {
          "internalType": "uint256",
          "name": "amount",
          "type": "uint256"
        },
        {
          "internalType": "uint256",
          "name": "stake_index",
          "type": "uint256"
        }
      ],
      "name": "widthdrawStake",
      "outputs": [
        {
          "internalType": "bool",
          "name": "",
          "type": "bool"
        }
      ],
      "stateMutability": "nonpayable",
      "type": "function"
    }
  ],
  "bytecode": "0x6080604052600a6000553480156200001657600080fd5b50604051620024f1380380620024f183398181016040528101906200003c91906200046e565b6001808160018154018082558091505003906000526020600020905050836005908051906020019062000071929190620001a8565b5082600690805190602001906200008a929190620001a8565b508160038190555080600460006101000a81548160ff021916908360ff160217905550600354600860003373ffffffffffffffffffffffffffffffffffffffff1673ffffffffffffffffffffffffffffffffffffffff1681526020019081526020016000208190555033600760006101000a81548173ffffffffffffffffffffffffffffffffffffffff021916908373ffffffffffffffffffffffffffffffffffffffff1602179055503373ffffffffffffffffffffffffffffffffffffffff16600073ffffffffffffffffffffffffffffffffffffffff167fddf252ad1be2c89b69c2b068fc378daa952ba7f163c4a11628f55a4df523b3ef6003546040516200019691906200052f565b60405180910390a350505050620005b0565b828054620001b6906200057b565b90600052602060002090601f016020900481019282620001da576000855562000226565b82601f10620001f557805160ff191683800117855562000226565b8280016001018555821562000226579182015b828111156200022557825182559160200191906001019062000208565b5b50905062000235919062000239565b5090565b5b80821115620002545760008160009055506001016200023a565b5090565b6000604051905090565b600080fd5b600080fd5b600080fd5b600080fd5b6000601f19601f8301169050919050565b7f4e487b7100000000000000000000000000000000000000000000000000000000600052604160045260246000fd5b620002c18262000276565b810181811067ffffffffffffffff82111715620002e357620002e262000287565b5b80604052505050565b6000620002f862000258565b9050620003068282620002b6565b919050565b600067ffffffffffffffff82111562000329576200032862000287565b5b620003348262000276565b9050602081019050919050565b60005b838110156200036157808201518184015260208101905062000344565b8381111562000371576000848401525b50505050565b60006200038e62000388846200030b565b620002ec565b905082815260208101848484011115620003ad57620003ac62000271565b5b620003ba84828562000341565b509392505050565b600082601f830112620003da57620003d96200026c565b5b8151620003ec84826020860162000377565b91505092915050565b6000819050919050565b6200040a81620003f5565b81146200041657600080fd5b50565b6000815190506200042a81620003ff565b92915050565b600060ff82169050919050565b620004488162000430565b81146200045457600080fd5b50565b60008151905062000468816200043d565b92915050565b600080600080608085870312156200048b576200048a62000262565b5b600085015167ffffffffffffffff811115620004ac57620004ab62000267565b5b620004ba87828801620003c2565b945050602085015167ffffffffffffffff811115620004de57620004dd62000267565b5b620004ec87828801620003c2565b9350506040620004ff8782880162000419565b9250506060620005128782880162000457565b91505092959194509250565b6200052981620003f5565b82525050565b60006020820190506200054660008301846200051e565b92915050565b7f4e487b7100000000000000000000000000000000000000000000000000000000600052602260045260246000fd5b600060028204905060018216806200059457607f821691505b602082108103620005aa57620005a96200054c565b5b50919050565b611f3180620005c06000396000f3fe608060405234801561001057600080fd5b50600436106100ea5760003560e01c8063893d20e81161008c578063a9059cbb11610066578063a9059cbb14610263578063c4e41b2214610293578063e73e14bf146102b1578063f8b2cb4f146102e1576100ea565b8063893d20e8146101e55780639dc29fac14610203578063a694fc3a14610233576100ea565b806334ce10c4116100c857806334ce10c41461014957806340c10f19146101675780635db19f771461019757806387ceff09146101c7576100ea565b806315070401146100ef57806317d7de7c1461010d57806332a2c5d01461012b575b600080fd5b6100f7610311565b604051610104919061153f565b60405180910390f35b6101156103a3565b604051610122919061153f565b60405180910390f35b610133610435565b60405161014091906115a2565b60405180910390f35b610151610442565b60405161015e91906115d9565b60405180910390f35b610181600480360381019061017c919061165b565b610459565b60405161018e91906116b6565b60405180910390f35b6101b160048036038101906101ac91906116d1565b6104c9565b6040516101be91906116b6565b60405180910390f35b6101cf6104ed565b6040516101dc9190611720565b60405180910390f35b6101ed6104f5565b6040516101fa91906115a2565b60405180910390f35b61021d6004803603810190610218919061165b565b61051f565b60405161022a91906116b6565b60405180910390f35b61024d6004803603810190610248919061173b565b61058f565b60405161025a91906116b6565b60405180910390f35b61027d6004803603810190610278919061165b565b61062f565b60405161028a91906116b6565b60405180910390f35b61029b610646565b6040516102a89190611720565b60405180910390f35b6102cb60048036038101906102c69190611768565b610650565b6040516102d891906118f4565b60405180910390f35b6102fb60048036038101906102f69190611768565b610863565b6040516103089190611720565b60405180910390f35b60606006805461032090611945565b80601f016020809104026020016040519081016040528092919081815260200182805461034c90611945565b80156103995780601f1061036e57610100808354040283529160200191610399565b820191906000526020600020905b81548152906001019060200180831161037c57829003601f168201915b5050505050905090565b6060600580546103b290611945565b80601f01602080910402602001604051908101604052809291908181526020018280546103de90611945565b801561042b5780601f106104005761010080835404028352916020019161042b565b820191906000526020600020905b81548152906001019060200180831161040e57829003601f168201915b5050505050905090565b6000803090508091505090565b6000600460009054906101000a900460ff16905090565b6000600760009054906101000a900473ffffffffffffffffffffffffffffffffffffffff1673ffffffffffffffffffffffffffffffffffffffff163373ffffffffffffffffffffffffffffffffffffffff16146104b557600080fd5b6104bf83836108ac565b6001905092915050565b6000806104d68484610a27565b90506104e233826108ac565b600191505092915050565b600042905090565b6000600760009054906101000a900473ffffffffffffffffffffffffffffffffffffffff16905090565b6000600760009054906101000a900473ffffffffffffffffffffffffffffffffffffffff1673ffffffffffffffffffffffffffffffffffffffff163373ffffffffffffffffffffffffffffffffffffffff161461057b57600080fd5b6105858383610cef565b6001905092915050565b6000600860003373ffffffffffffffffffffffffffffffffffffffff1673ffffffffffffffffffffffffffffffffffffffff16815260200190815260200160002054821115610613576040517f08c379a000000000000000000000000000000000000000000000000000000000815260040161060a906119c2565b60405180910390fd5b61061c82610eec565b6106263383610cef565b60019050919050565b600061063c3384846110d1565b6001905092915050565b6000600354905090565b61065861148c565b600080600260008573ffffffffffffffffffffffffffffffffffffffff1673ffffffffffffffffffffffffffffffffffffffff1681526020019081526020016000205490506000604051806040016040528060008152602001600184815481106106c5576106c46119e2565b5b9060005260206000209060020201600101805480602002602001604051908101604052809291908181526020016000905b8282101561079c57838290600052602060002090600402016040518060800160405290816000820160009054906101000a900473ffffffffffffffffffffffffffffffffffffffff1673ffffffffffffffffffffffffffffffffffffffff1673ffffffffffffffffffffffffffffffffffffffff1681526020016001820154815260200160028201548152602001600382015481525050815260200190600101906106f6565b50505050815250905060005b81602001515181101561084d5760006107de836020015183815181106107d1576107d06119e2565b5b6020026020010151611348565b905080836020015183815181106107f8576107f76119e2565b5b602002602001015160600181815250508260200151828151811061081f5761081e6119e2565b5b602002602001015160200151856108369190611a40565b9450506001816108469190611a40565b90506107a8565b5082816000018181525050809350505050919050565b6000600860008373ffffffffffffffffffffffffffffffffffffffff1673ffffffffffffffffffffffffffffffffffffffff168152602001908152602001600020549050919050565b600073ffffffffffffffffffffffffffffffffffffffff168273ffffffffffffffffffffffffffffffffffffffff160361091b576040517f08c379a000000000000000000000000000000000000000000000000000000000815260040161091290611ae2565b60405180910390fd5b806003546109299190611a40565b60038190555080600860008473ffffffffffffffffffffffffffffffffffffffff1673ffffffffffffffffffffffffffffffffffffffff1681526020019081526020016000205461097a9190611a40565b600860008473ffffffffffffffffffffffffffffffffffffffff1673ffffffffffffffffffffffffffffffffffffffff168152602001908152602001600020819055508173ffffffffffffffffffffffffffffffffffffffff16600073ffffffffffffffffffffffffffffffffffffffff167fddf252ad1be2c89b69c2b068fc378daa952ba7f163c4a11628f55a4df523b3ef83604051610a1b9190611720565b60405180910390a35050565b600080600260003373ffffffffffffffffffffffffffffffffffffffff1673ffffffffffffffffffffffffffffffffffffffff168152602001908152602001600020549050600060018281548110610a8257610a816119e2565b5b90600052602060002090600202016001018481548110610aa557610aa46119e2565b5b90600052602060002090600402016040518060800160405290816000820160009054906101000a900473ffffffffffffffffffffffffffffffffffffffff1673ffffffffffffffffffffffffffffffffffffffff1673ffffffffffffffffffffffffffffffffffffffff168152602001600182015481526020016002820154815260200160038201548152505090508481602001511015610b7b576040517f08c379a0000000000000000000000000000000000000000000000000000000008152600401610b7290611b74565b60405180910390fd5b6000610b8682611348565b9050858260200151610b989190611b94565b8260200181815250506000826020015103610c395760018381548110610bc157610bc06119e2565b5b90600052602060002090600202016001018581548110610be457610be36119e2565b5b9060005260206000209060040201600080820160006101000a81549073ffffffffffffffffffffffffffffffffffffffff02191690556001820160009055600282016000905560038201600090555050610cd8565b816020015160018481548110610c5257610c516119e2565b5b90600052602060002090600202016001018681548110610c7557610c746119e2565b5b9060005260206000209060040201600101819055504260018481548110610c9f57610c9e6119e2565b5b90600052602060002090600202016001018681548110610cc257610cc16119e2565b5b9060005260206000209060040201600201819055505b8086610ce49190611a40565b935050505092915050565b600073ffffffffffffffffffffffffffffffffffffffff168273ffffffffffffffffffffffffffffffffffffffff1603610d5e576040517f08c379a0000000000000000000000000000000000000000000000000000000008152600401610d5590611c14565b60405180910390fd5b80600860008473ffffffffffffffffffffffffffffffffffffffff1673ffffffffffffffffffffffffffffffffffffffff168152602001908152602001600020541015610de0576040517f08c379a0000000000000000000000000000000000000000000000000000000008152600401610dd790611c80565b60405180910390fd5b80600354610dee9190611b94565b60038190555080600860008473ffffffffffffffffffffffffffffffffffffffff1673ffffffffffffffffffffffffffffffffffffffff16815260200190815260200160002054610e3f9190611b94565b600860008473ffffffffffffffffffffffffffffffffffffffff1673ffffffffffffffffffffffffffffffffffffffff16815260200190815260200160002081905550600073ffffffffffffffffffffffffffffffffffffffff168273ffffffffffffffffffffffffffffffffffffffff167fddf252ad1be2c89b69c2b068fc378daa952ba7f163c4a11628f55a4df523b3ef83604051610ee09190611720565b60405180910390a35050565b6000811015610f30576040517f08c379a0000000000000000000000000000000000000000000000000000000008152600401610f2790611cec565b60405180910390fd5b6000600260003373ffffffffffffffffffffffffffffffffffffffff1673ffffffffffffffffffffffffffffffffffffffff168152602001908152602001600020549050600042905060008203610f8d57610f8a336113a7565b91505b60018281548110610fa157610fa06119e2565b5b906000526020600020906002020160010160405180608001604052803373ffffffffffffffffffffffffffffffffffffffff1681526020018581526020018381526020016000815250908060018154018082558091505060019003906000526020600020906004020160009091909190915060008201518160000160006101000a81548173ffffffffffffffffffffffffffffffffffffffff021916908373ffffffffffffffffffffffffffffffffffffffff16021790555060208201518160010155604082015181600201556060820151816003015550503373ffffffffffffffffffffffffffffffffffffffff167fb4caaf29adda3eefee3ad552a8e85058589bf834c7466cae4ee58787f70589ed8484846040516110c493929190611d0c565b60405180910390a2505050565b600073ffffffffffffffffffffffffffffffffffffffff168273ffffffffffffffffffffffffffffffffffffffff1603611140576040517f08c379a000000000000000000000000000000000000000000000000000000000815260040161113790611db5565b60405180910390fd5b80600860008573ffffffffffffffffffffffffffffffffffffffff1673ffffffffffffffffffffffffffffffffffffffff1681526020019081526020016000205410156111c2576040517f08c379a00000000000000000000000000000000000000000000000000000000081526004016111b990611e21565b60405180910390fd5b80600860008573ffffffffffffffffffffffffffffffffffffffff1673ffffffffffffffffffffffffffffffffffffffff1681526020019081526020016000205461120d9190611b94565b600860008573ffffffffffffffffffffffffffffffffffffffff1673ffffffffffffffffffffffffffffffffffffffff1681526020019081526020016000208190555080600860008473ffffffffffffffffffffffffffffffffffffffff1673ffffffffffffffffffffffffffffffffffffffff1681526020019081526020016000205461129b9190611a40565b600860008473ffffffffffffffffffffffffffffffffffffffff1673ffffffffffffffffffffffffffffffffffffffff168152602001908152602001600020819055508173ffffffffffffffffffffffffffffffffffffffff168373ffffffffffffffffffffffffffffffffffffffff167fddf252ad1be2c89b69c2b068fc378daa952ba7f163c4a11628f55a4df523b3ef8360405161133b9190611720565b60405180910390a3505050565b60008082604001514261135b9190611b94565b9050610e108161136b9190611e70565b9050600083602001518261137f9190611ea1565b905060005460646113909190611e70565b8161139b9190611e70565b90508092505050919050565b600060018081600181540180825580915050039060005260206000209050506000600180805490506113d99190611b94565b905082600182815481106113f0576113ef6119e2565b5b906000526020600020906002020160000160006101000a81548173ffffffffffffffffffffffffffffffffffffffff021916908373ffffffffffffffffffffffffffffffffffffffff16021790555080600260008573ffffffffffffffffffffffffffffffffffffffff1673ffffffffffffffffffffffffffffffffffffffff1681526020019081526020016000208190555080915050919050565b604051806040016040528060008152602001606081525090565b600081519050919050565b600082825260208201905092915050565b60005b838110156114e05780820151818401526020810190506114c5565b838111156114ef576000848401525b50505050565b6000601f19601f8301169050919050565b6000611511826114a6565b61151b81856114b1565b935061152b8185602086016114c2565b611534816114f5565b840191505092915050565b600060208201905081810360008301526115598184611506565b905092915050565b600073ffffffffffffffffffffffffffffffffffffffff82169050919050565b600061158c82611561565b9050919050565b61159c81611581565b82525050565b60006020820190506115b76000830184611593565b92915050565b600060ff82169050919050565b6115d3816115bd565b82525050565b60006020820190506115ee60008301846115ca565b92915050565b600080fd5b61160281611581565b811461160d57600080fd5b50565b60008135905061161f816115f9565b92915050565b6000819050919050565b61163881611625565b811461164357600080fd5b50565b6000813590506116558161162f565b92915050565b60008060408385031215611672576116716115f4565b5b600061168085828601611610565b925050602061169185828601611646565b9150509250929050565b60008115159050919050565b6116b08161169b565b82525050565b60006020820190506116cb60008301846116a7565b92915050565b600080604083850312156116e8576116e76115f4565b5b60006116f685828601611646565b925050602061170785828601611646565b9150509250929050565b61171a81611625565b82525050565b60006020820190506117356000830184611711565b92915050565b600060208284031215611751576117506115f4565b5b600061175f84828501611646565b91505092915050565b60006020828403121561177e5761177d6115f4565b5b600061178c84828501611610565b91505092915050565b61179e81611625565b82525050565b600081519050919050565b600082825260208201905092915050565b6000819050602082019050919050565b6117d981611581565b82525050565b6080820160008201516117f560008501826117d0565b5060208201516118086020850182611795565b50604082015161181b6040850182611795565b50606082015161182e6060850182611795565b50505050565b600061184083836117df565b60808301905092915050565b6000602082019050919050565b6000611864826117a4565b61186e81856117af565b9350611879836117c0565b8060005b838110156118aa5781516118918882611834565b975061189c8361184c565b92505060018101905061187d565b5085935050505092915050565b60006040830160008301516118cf6000860182611795565b50602083015184820360208601526118e78282611859565b9150508091505092915050565b6000602082019050818103600083015261190e81846118b7565b905092915050565b7f4e487b7100000000000000000000000000000000000000000000000000000000600052602260045260246000fd5b6000600282049050600182168061195d57607f821691505b6020821081036119705761196f611916565b5b50919050565b7f63616e2774207374616b65206d6f7265207468616e20796f75206f776e000000600082015250565b60006119ac601d836114b1565b91506119b782611976565b602082019050919050565b600060208201905081810360008301526119db8161199f565b9050919050565b7f4e487b7100000000000000000000000000000000000000000000000000000000600052603260045260246000fd5b7f4e487b7100000000000000000000000000000000000000000000000000000000600052601160045260246000fd5b6000611a4b82611625565b9150611a5683611625565b9250827fffffffffffffffffffffffffffffffffffffffffffffffffffffffffffffffff03821115611a8b57611a8a611a11565b5b828201905092915050565b7f63616e6e6f74206d696e7420696e746f207a65726f2061646472657373000000600082015250565b6000611acc601d836114b1565b9150611ad782611a96565b602082019050919050565b60006020820190508181036000830152611afb81611abf565b9050919050565b7f63616e2774207769746864726177206e6f7265207468616e20617661696c616260008201527f6c652062616c616e636500000000000000000000000000000000000000000000602082015250565b6000611b5e602a836114b1565b9150611b6982611b02565b604082019050919050565b60006020820190508181036000830152611b8d81611b51565b9050919050565b6000611b9f82611625565b9150611baa83611625565b925082821015611bbd57611bbc611a11565b5b828203905092915050565b7f63616e6e6f74206275726e20696e746f207a65726f2061646472657373000000600082015250565b6000611bfe601d836114b1565b9150611c0982611bc8565b602082019050919050565b60006020820190508181036000830152611c2d81611bf1565b9050919050565b7f6e6f7420656e6f75676820746f6b656e20746f206275726e0000000000000000600082015250565b6000611c6a6018836114b1565b9150611c7582611c34565b602082019050919050565b60006020820190508181036000830152611c9981611c5d565b9050919050565b7f63616e2774207374616b65203020746f6b656e00000000000000000000000000600082015250565b6000611cd66013836114b1565b9150611ce182611ca0565b602082019050919050565b60006020820190508181036000830152611d0581611cc9565b9050919050565b6000606082019050611d216000830186611711565b611d2e6020830185611711565b611d3b6040830184611711565b949350505050565b7f7472616e7366657220746f207a65726f20616464726573732069732070726f6860008201527f6962697465640000000000000000000000000000000000000000000000000000602082015250565b6000611d9f6026836114b1565b9150611daa82611d43565b604082019050919050565b60006020820190508181036000830152611dce81611d92565b9050919050565b7f6e6f7420656e6f75676820746f6b656e20746f207472616e7366657200000000600082015250565b6000611e0b601c836114b1565b9150611e1682611dd5565b602082019050919050565b60006020820190508181036000830152611e3a81611dfe565b9050919050565b7f4e487b7100000000000000000000000000000000000000000000000000000000600052601260045260246000fd5b6000611e7b82611625565b9150611e8683611625565b925082611e9657611e95611e41565b5b828204905092915050565b6000611eac82611625565b9150611eb783611625565b9250817fffffffffffffffffffffffffffffffffffffffffffffffffffffffffffffffff0483118215151615611ef057611eef611a11565b5b82820290509291505056fea2646970667358221220df6bc8820c283d76e169d1d77ba9644ce91b757909763495593f6e855473945e64736f6c634300080d0033",
  "immutableReferences": {},
  "source": "// SPDX-License-Identifier: MIT\r\npragma solidity >=0.5.0 <0.9.0;\r\n\r\nimport \"./staking.sol\";\r\n\r\ncontract StakingToken is Stakable {\r\n    // required variable for the token operation\r\n\r\n    uint256 private totalSupply;\r\n    uint8 private decimals;\r\n    string private name;\r\n    string private symbol;\r\n    address private owner;\r\n\r\n    modifier onlyOwner{\r\n        require(msg.sender == owner);\r\n        _;\r\n    }\r\n    \r\n\r\n    mapping(address => uint256) private balances;\r\n\r\n    event Transfer(address indexed from, address indexed to, uint256 value);\r\n\r\n    constructor(\r\n        string memory tokenName,\r\n        string memory tokenSymbol,\r\n        uint256 tokenTotalSupply,\r\n        uint8 tokenDecimals\r\n    ) {\r\n        name = tokenName;\r\n        symbol = tokenSymbol;\r\n        totalSupply = tokenTotalSupply;\r\n        decimals = tokenDecimals;\r\n\r\n        balances[msg.sender] = totalSupply;\r\n        owner = msg.sender;\r\n\r\n        emit Transfer(address(0), msg.sender, totalSupply);\r\n    }\r\n\r\n    function getBlockTime() external  view returns(uint256){\r\n         return block.timestamp;\r\n    }\r\n\r\n    function getOwner() view external returns(address){\r\n        return owner;\r\n    }\r\n\r\n    function getName() external view returns (string memory) {\r\n        return name;\r\n    }\r\n\r\n    function getSymbol() external view returns (string memory) {\r\n        return symbol;\r\n    }\r\n\r\n    function getTotalSupply() external view returns (uint256) {\r\n        return totalSupply;\r\n    }\r\n\r\n    function getDecimal() external view returns (uint8) {\r\n        return decimals;\r\n    }\r\n\r\n    function getBalance(address account) external view returns (uint256) {\r\n        return balances[account];\r\n    }\r\n\r\n    function getContractAddress() external view returns (address) {\r\n        address contractAddress = address(this);\r\n\r\n        return contractAddress;\r\n    }\r\n\r\n    function _mint(address account, uint256 amount) internal {\r\n        require(account != address(0), \"cannot mint into zero address\");\r\n\r\n        totalSupply = totalSupply + amount;\r\n        balances[account] = balances[account] + amount;\r\n\r\n        emit Transfer(address(0), account, amount);\r\n    }\r\n\r\n    function mint(address account, uint256 amount) onlyOwner external returns(bool) {\r\n        _mint(account, amount);\r\n        \r\n        return true;\r\n    }\r\n\r\n    function _burn(address account, uint256 amount) internal {\r\n        require(account != address(0), \"cannot burn into zero address\");\r\n        require(balances[account] >= amount, \"not enough token to burn\");\r\n\r\n        totalSupply = totalSupply - amount;\r\n        balances[account] = balances[account] - amount;\r\n\r\n        emit Transfer(account, address(0), amount);\r\n    }\r\n\r\n    function burn(address account, uint256 amount) onlyOwner external returns(bool){\r\n        _burn(account, amount);\r\n\r\n        return true;\r\n    }\r\n\r\n    function transferLogic(address sender, address receipient, uint256 amount) internal {\r\n        require(receipient != address(0),\"transfer to zero address is prohibited\");\r\n        require(balances[sender] >= amount, \"not enough token to transfer\");\r\n\r\n        balances[sender] = balances[sender] - amount;\r\n        balances[receipient] = balances[receipient] + amount;\r\n\r\n        emit Transfer(sender, receipient, amount);\r\n    }\r\n\r\n    function transfer(address receipient, uint256 amount) external returns(bool) {\r\n        transferLogic(msg.sender,receipient,amount);\r\n\r\n        return true;\r\n    }\r\n\r\n    function stake(uint256 amount) external returns(bool) {\r\n        require(amount <= balances[msg.sender],\"can't stake more than you own\");\r\n\r\n        stakeLogic(amount);\r\n\r\n        _burn(msg.sender, amount);\r\n\r\n        return true;\r\n    }\r\n\r\n    function widthdrawStake(uint256 amount, uint256 stake_index) external returns(bool) {\r\n\r\n       uint256 amountToMint = withdrawLogic(amount, stake_index);\r\n\r\n        _mint(msg.sender, amountToMint);\r\n\r\n        return true;\r\n    }\r\n\r\n    //TODO: -make staking logic flow and add documentation\r\n}\r\n",
  "sourcePath": "C:\\Users\\ASUS\\Documents\\GitHub\\tugas-axel\\staking\\contracts\\erc20.sol",
  "compiler": {
    "name": "solc",
    "version": "0.8.13+commit.abaa5c0e.Emscripten.clang"
  },
  "schemaVersion": "3.4.7",
  "updatedAt": "2022-06-27T05:19:13.128Z",
  "networkType": "ethereum",
  "devdoc": {
    "kind": "dev",
    "methods": {},
    "version": 1
  },
  "userdoc": {
    "kind": "user",
    "methods": {},
    "version": 1
  }
}