{
  "contractName": "StakingToken",
  "abi": [
    {
      "inputs": [
        {
          "internalType": "address",
          "name": "initialOwner",
          "type": "address"
        },
        {
          "internalType": "string",
          "name": "tokenName",
          "type": "string"
        },
        {
          "internalType": "string",
          "name": "tokenSymbol",
          "type": "string"
        },
        {
          "internalType": "uint256",
          "name": "tokenTotalSupply",
          "type": "uint256"
        },
        {
          "internalType": "uint8",
          "name": "tokenDecimals",
          "type": "uint8"
        }
      ],
      "stateMutability": "nonpayable",
      "type": "constructor"
    },
    {
      "anonymous": false,
      "inputs": [
        {
          "indexed": true,
          "internalType": "address",
          "name": "user",
          "type": "address"
        },
        {
          "indexed": false,
          "internalType": "uint256",
          "name": "amount",
          "type": "uint256"
        },
        {
          "indexed": false,
          "internalType": "uint256",
          "name": "index",
          "type": "uint256"
        },
        {
          "indexed": false,
          "internalType": "uint256",
          "name": "timestamp",
          "type": "uint256"
        }
      ],
      "name": "Staked",
      "type": "event"
    },
    {
      "anonymous": false,
      "inputs": [
        {
          "indexed": true,
          "internalType": "address",
          "name": "from",
          "type": "address"
        },
        {
          "indexed": true,
          "internalType": "address",
          "name": "to",
          "type": "address"
        },
        {
          "indexed": false,
          "internalType": "uint256",
          "name": "value",
          "type": "uint256"
        }
      ],
      "name": "Transfer",
      "type": "event"
    },
    {
      "inputs": [
        {
          "internalType": "uint256",
          "name": "newDivideRate",
          "type": "uint256"
        }
      ],
      "name": "changeDivideRate",
      "outputs": [
        {
          "internalType": "bool",
          "name": "",
          "type": "bool"
        }
      ],
      "stateMutability": "nonpayable",
      "type": "function"
    },
    {
      "inputs": [
        {
          "internalType": "uint256",
          "name": "newRewardRate",
          "type": "uint256"
        }
      ],
      "name": "changeRewardRate",
      "outputs": [
        {
          "internalType": "bool",
          "name": "",
          "type": "bool"
        }
      ],
      "stateMutability": "nonpayable",
      "type": "function"
    },
    {
      "inputs": [
        {
          "internalType": "address",
          "name": "staker",
          "type": "address"
        }
      ],
      "name": "hasStake",
      "outputs": [
        {
          "components": [
            {
              "internalType": "uint256",
              "name": "totalAmount",
              "type": "uint256"
            },
            {
              "components": [
                {
                  "internalType": "address",
                  "name": "user",
                  "type": "address"
                },
                {
                  "internalType": "uint256",
                  "name": "amount",
                  "type": "uint256"
                },
                {
                  "internalType": "uint256",
                  "name": "timestamp",
                  "type": "uint256"
                },
                {
                  "internalType": "uint256",
                  "name": "claimable",
                  "type": "uint256"
                }
              ],
              "internalType": "struct Stakable.Stake[]",
              "name": "stakes",
              "type": "tuple[]"
            }
          ],
          "internalType": "struct Stakable.StakingSummary",
          "name": "",
          "type": "tuple"
        }
      ],
      "stateMutability": "view",
      "type": "function"
    },
    {
      "inputs": [],
      "name": "getBlockTime",
      "outputs": [
        {
          "internalType": "uint256",
          "name": "",
          "type": "uint256"
        }
      ],
      "stateMutability": "view",
      "type": "function"
    },
    {
      "inputs": [],
      "name": "getOwner",
      "outputs": [
        {
          "internalType": "address",
          "name": "",
          "type": "address"
        }
      ],
      "stateMutability": "view",
      "type": "function"
    },
    {
      "inputs": [],
      "name": "getName",
      "outputs": [
        {
          "internalType": "string",
          "name": "",
          "type": "string"
        }
      ],
      "stateMutability": "view",
      "type": "function"
    },
    {
      "inputs": [],
      "name": "getSymbol",
      "outputs": [
        {
          "internalType": "string",
          "name": "",
          "type": "string"
        }
      ],
      "stateMutability": "view",
      "type": "function"
    },
    {
      "inputs": [],
      "name": "getTotalSupply",
      "outputs": [
        {
          "internalType": "uint256",
          "name": "",
          "type": "uint256"
        }
      ],
      "stateMutability": "view",
      "type": "function"
    },
    {
      "inputs": [],
      "name": "getDecimal",
      "outputs": [
        {
          "internalType": "uint8",
          "name": "",
          "type": "uint8"
        }
      ],
      "stateMutability": "view",
      "type": "function"
    },
    {
      "inputs": [
        {
          "internalType": "address",
          "name": "account",
          "type": "address"
        }
      ],
      "name": "getBalance",
      "outputs": [
        {
          "internalType": "uint256",
          "name": "",
          "type": "uint256"
        }
      ],
      "stateMutability": "view",
      "type": "function"
    },
    {
      "inputs": [],
      "name": "getContractAddress",
      "outputs": [
        {
          "internalType": "address",
          "name": "",
          "type": "address"
        }
      ],
      "stateMutability": "view",
      "type": "function"
    },
    {
      "inputs": [
        {
          "internalType": "address",
          "name": "account",
          "type": "address"
        },
        {
          "internalType": "uint256",
          "name": "amount",
          "type": "uint256"
        }
      ],
      "name": "mint",
      "outputs": [
        {
          "internalType": "bool",
          "name": "",
          "type": "bool"
        }
      ],
      "stateMutability": "nonpayable",
      "type": "function"
    },
    {
      "inputs": [
        {
          "internalType": "address",
          "name": "account",
          "type": "address"
        },
        {
          "internalType": "uint256",
          "name": "amount",
          "type": "uint256"
        }
      ],
      "name": "burn",
      "outputs": [
        {
          "internalType": "bool",
          "name": "",
          "type": "bool"
        }
      ],
      "stateMutability": "nonpayable",
      "type": "function"
    },
    {
      "inputs": [
        {
          "internalType": "address",
          "name": "receipient",
          "type": "address"
        },
        {
          "internalType": "uint256",
          "name": "amount",
          "type": "uint256"
        }
      ],
      "name": "transfer",
      "outputs": [
        {
          "internalType": "bool",
          "name": "",
          "type": "bool"
        }
      ],
      "stateMutability": "nonpayable",
      "type": "function"
    },
    {
      "inputs": [
        {
          "internalType": "uint256",
          "name": "amount",
          "type": "uint256"
        }
      ],
      "name": "stake",
      "outputs": [
        {
          "internalType": "bool",
          "name": "",
          "type": "bool"
        }
      ],
      "stateMutability": "nonpayable",
      "type": "function"
    },
    {
      "inputs": [
        {
          "internalType": "uint256",
          "name": "amount",
          "type": "uint256"
        },
        {
          "internalType": "uint256",
          "name": "stake_index",
          "type": "uint256"
        }
      ],
      "name": "widthdrawStake",
      "outputs": [
        {
          "internalType": "bool",
          "name": "",
          "type": "bool"
        }
      ],
      "stateMutability": "nonpayable",
      "type": "function"
    }
  ],
  "bytecode": "0x6080604052600860005560646001553480156200001b57600080fd5b50604051620028973803806200289783398181016040528101906200004191906200051b565b60036001816001815401808255809150500390600052602060002090505033600260006101000a81548173ffffffffffffffffffffffffffffffffffffffff021916908373ffffffffffffffffffffffffffffffffffffffff1602179055508360079080519060200190620000b8929190620001f0565b508260089080519060200190620000d1929190620001f0565b508160058190555080600660006101000a81548160ff021916908360ff160217905550600554600a60008773ffffffffffffffffffffffffffffffffffffffff1673ffffffffffffffffffffffffffffffffffffffff1681526020019081526020016000208190555084600960006101000a81548173ffffffffffffffffffffffffffffffffffffffff021916908373ffffffffffffffffffffffffffffffffffffffff1602179055503373ffffffffffffffffffffffffffffffffffffffff16600073ffffffffffffffffffffffffffffffffffffffff167fddf252ad1be2c89b69c2b068fc378daa952ba7f163c4a11628f55a4df523b3ef600554604051620001dd9190620005f2565b60405180910390a3505050505062000673565b828054620001fe906200063e565b90600052602060002090601f0160209004810192826200022257600085556200026e565b82601f106200023d57805160ff19168380011785556200026e565b828001600101855582156200026e579182015b828111156200026d57825182559160200191906001019062000250565b5b5090506200027d919062000281565b5090565b5b808211156200029c57600081600090555060010162000282565b5090565b6000604051905090565b600080fd5b600080fd5b600073ffffffffffffffffffffffffffffffffffffffff82169050919050565b6000620002e182620002b4565b9050919050565b620002f381620002d4565b8114620002ff57600080fd5b50565b6000815190506200031381620002e8565b92915050565b600080fd5b600080fd5b6000601f19601f8301169050919050565b7f4e487b7100000000000000000000000000000000000000000000000000000000600052604160045260246000fd5b6200036e8262000323565b810181811067ffffffffffffffff8211171562000390576200038f62000334565b5b80604052505050565b6000620003a5620002a0565b9050620003b3828262000363565b919050565b600067ffffffffffffffff821115620003d657620003d562000334565b5b620003e18262000323565b9050602081019050919050565b60005b838110156200040e578082015181840152602081019050620003f1565b838111156200041e576000848401525b50505050565b60006200043b6200043584620003b8565b62000399565b9050828152602081018484840111156200045a57620004596200031e565b5b62000467848285620003ee565b509392505050565b600082601f83011262000487576200048662000319565b5b81516200049984826020860162000424565b91505092915050565b6000819050919050565b620004b781620004a2565b8114620004c357600080fd5b50565b600081519050620004d781620004ac565b92915050565b600060ff82169050919050565b620004f581620004dd565b81146200050157600080fd5b50565b6000815190506200051581620004ea565b92915050565b600080600080600060a086880312156200053a5762000539620002aa565b5b60006200054a8882890162000302565b955050602086015167ffffffffffffffff8111156200056e576200056d620002af565b5b6200057c888289016200046f565b945050604086015167ffffffffffffffff811115620005a0576200059f620002af565b5b620005ae888289016200046f565b9350506060620005c188828901620004c6565b9250506080620005d48882890162000504565b9150509295509295909350565b620005ec81620004a2565b82525050565b6000602082019050620006096000830184620005e1565b92915050565b7f4e487b7100000000000000000000000000000000000000000000000000000000600052602260045260246000fd5b600060028204905060018216806200065757607f821691505b6020821081036200066d576200066c6200060f565b5b50919050565b61221480620006836000396000f3fe608060405234801561001057600080fd5b50600436106101005760003560e01c806387ceff0911610097578063a9059cbb11610066578063a9059cbb146102d9578063c4e41b2214610309578063e73e14bf14610327578063f8b2cb4f1461035757610100565b806387ceff091461023d578063893d20e81461025b5780639dc29fac14610279578063a694fc3a146102a957610100565b806340c10f19116100d357806340c10f191461017d5780634c92a1ec146101ad5780635db19f77146101dd57806374f237c41461020d57610100565b8063150704011461010557806317d7de7c1461012357806332a2c5d01461014157806334ce10c41461015f575b600080fd5b61010d610387565b60405161011a9190611790565b60405180910390f35b61012b610419565b6040516101389190611790565b60405180910390f35b6101496104ab565b60405161015691906117f3565b60405180910390f35b6101676104b8565b604051610174919061182a565b60405180910390f35b610197600480360381019061019291906118ac565b6104cf565b6040516101a49190611907565b60405180910390f35b6101c760048036038101906101c29190611922565b61053f565b6040516101d49190611907565b60405180910390f35b6101f760048036038101906101f2919061194f565b6105b0565b6040516102049190611907565b60405180910390f35b61022760048036038101906102229190611922565b6105d4565b6040516102349190611907565b60405180910390f35b610245610645565b604051610252919061199e565b60405180910390f35b61026361064d565b60405161027091906117f3565b60405180910390f35b610293600480360381019061028e91906118ac565b610677565b6040516102a09190611907565b60405180910390f35b6102c360048036038101906102be9190611922565b6106e7565b6040516102d09190611907565b60405180910390f35b6102f360048036038101906102ee91906118ac565b61077d565b6040516103009190611907565b60405180910390f35b610311610794565b60405161031e919061199e565b60405180910390f35b610341600480360381019061033c91906119b9565b61079e565b60405161034e9190611b45565b60405180910390f35b610371600480360381019061036c91906119b9565b6109b1565b60405161037e919061199e565b60405180910390f35b60606008805461039690611b96565b80601f01602080910402602001604051908101604052809291908181526020018280546103c290611b96565b801561040f5780601f106103e45761010080835404028352916020019161040f565b820191906000526020600020905b8154815290600101906020018083116103f257829003601f168201915b5050505050905090565b60606007805461042890611b96565b80601f016020809104026020016040519081016040528092919081815260200182805461045490611b96565b80156104a15780601f10610476576101008083540402835291602001916104a1565b820191906000526020600020905b81548152906001019060200180831161048457829003601f168201915b5050505050905090565b6000803090508091505090565b6000600660009054906101000a900460ff16905090565b6000600260009054906101000a900473ffffffffffffffffffffffffffffffffffffffff1673ffffffffffffffffffffffffffffffffffffffff163373ffffffffffffffffffffffffffffffffffffffff161461052b57600080fd5b61053583836109fa565b6001905092915050565b6000600260009054906101000a900473ffffffffffffffffffffffffffffffffffffffff1673ffffffffffffffffffffffffffffffffffffffff163373ffffffffffffffffffffffffffffffffffffffff161461059b57600080fd5b6105a760005483610b75565b60019050919050565b6000806105bd8484610be1565b90506105c933826109fa565b600191505092915050565b6000600260009054906101000a900473ffffffffffffffffffffffffffffffffffffffff1673ffffffffffffffffffffffffffffffffffffffff163373ffffffffffffffffffffffffffffffffffffffff161461063057600080fd5b61063c82600154610b75565b60019050919050565b600042905090565b6000600960009054906101000a900473ffffffffffffffffffffffffffffffffffffffff16905090565b6000600260009054906101000a900473ffffffffffffffffffffffffffffffffffffffff1673ffffffffffffffffffffffffffffffffffffffff163373ffffffffffffffffffffffffffffffffffffffff16146106d357600080fd5b6106dd8383610e9e565b6001905092915050565b6000600a60003373ffffffffffffffffffffffffffffffffffffffff1673ffffffffffffffffffffffffffffffffffffffff1681526020019081526020016000205482111561076b576040517f08c379a000000000000000000000000000000000000000000000000000000000815260040161076290611c13565b60405180910390fd5b6107748261109b565b60019050919050565b600061078a338484611280565b6001905092915050565b6000600554905090565b6107a66116dd565b600080600460008573ffffffffffffffffffffffffffffffffffffffff1673ffffffffffffffffffffffffffffffffffffffff16815260200190815260200160002054905060006040518060400160405280600081526020016003848154811061081357610812611c33565b5b9060005260206000209060020201600101805480602002602001604051908101604052809291908181526020016000905b828210156108ea57838290600052602060002090600402016040518060800160405290816000820160009054906101000a900473ffffffffffffffffffffffffffffffffffffffff1673ffffffffffffffffffffffffffffffffffffffff1673ffffffffffffffffffffffffffffffffffffffff168152602001600182015481526020016002820154815260200160038201548152505081526020019060010190610844565b50505050815250905060005b81602001515181101561099b57600061092c8360200151838151811061091f5761091e611c33565b5b6020026020010151611596565b9050808360200151838151811061094657610945611c33565b5b602002602001015160600181815250508260200151828151811061096d5761096c611c33565b5b602002602001015160200151856109849190611c91565b9450506001816109949190611c91565b90506108f6565b5082816000018181525050809350505050919050565b6000600a60008373ffffffffffffffffffffffffffffffffffffffff1673ffffffffffffffffffffffffffffffffffffffff168152602001908152602001600020549050919050565b600073ffffffffffffffffffffffffffffffffffffffff168273ffffffffffffffffffffffffffffffffffffffff1603610a69576040517f08c379a0000000000000000000000000000000000000000000000000000000008152600401610a6090611d33565b60405180910390fd5b80600554610a779190611c91565b60058190555080600a60008473ffffffffffffffffffffffffffffffffffffffff1673ffffffffffffffffffffffffffffffffffffffff16815260200190815260200160002054610ac89190611c91565b600a60008473ffffffffffffffffffffffffffffffffffffffff1673ffffffffffffffffffffffffffffffffffffffff168152602001908152602001600020819055508173ffffffffffffffffffffffffffffffffffffffff16600073ffffffffffffffffffffffffffffffffffffffff167fddf252ad1be2c89b69c2b068fc378daa952ba7f163c4a11628f55a4df523b3ef83604051610b69919061199e565b60405180910390a35050565b600260009054906101000a900473ffffffffffffffffffffffffffffffffffffffff1673ffffffffffffffffffffffffffffffffffffffff163373ffffffffffffffffffffffffffffffffffffffff1614610bcf57600080fd5b81600081905550806001819055505050565b600080600460003373ffffffffffffffffffffffffffffffffffffffff1673ffffffffffffffffffffffffffffffffffffffff168152602001908152602001600020549050600060038281548110610c3c57610c3b611c33565b5b90600052602060002090600202016001018481548110610c5f57610c5e611c33565b5b90600052602060002090600402016040518060800160405290816000820160009054906101000a900473ffffffffffffffffffffffffffffffffffffffff1673ffffffffffffffffffffffffffffffffffffffff1673ffffffffffffffffffffffffffffffffffffffff168152602001600182015481526020016002820154815260200160038201548152505090508481602001511015610d35576040517f08c379a0000000000000000000000000000000000000000000000000000000008152600401610d2c90611dc5565b60405180910390fd5b6000610d4082611596565b9050858260200151610d529190611de5565b8260200181815250506000826020015103610df35760038381548110610d7b57610d7a611c33565b5b90600052602060002090600202016001018581548110610d9e57610d9d611c33565b5b9060005260206000209060040201600080820160006101000a81549073ffffffffffffffffffffffffffffffffffffffff02191690556001820160009055600282016000905560038201600090555050610e92565b816020015160038481548110610e0c57610e0b611c33565b5b90600052602060002090600202016001018681548110610e2f57610e2e611c33565b5b9060005260206000209060040201600101819055504260038481548110610e5957610e58611c33565b5b90600052602060002090600202016001018681548110610e7c57610e7b611c33565b5b9060005260206000209060040201600201819055505b80935050505092915050565b600073ffffffffffffffffffffffffffffffffffffffff168273ffffffffffffffffffffffffffffffffffffffff1603610f0d576040517f08c379a0000000000000000000000000000000000000000000000000000000008152600401610f0490611e65565b60405180910390fd5b80600a60008473ffffffffffffffffffffffffffffffffffffffff1673ffffffffffffffffffffffffffffffffffffffff168152602001908152602001600020541015610f8f576040517f08c379a0000000000000000000000000000000000000000000000000000000008152600401610f8690611ed1565b60405180910390fd5b80600554610f9d9190611de5565b60058190555080600a60008473ffffffffffffffffffffffffffffffffffffffff1673ffffffffffffffffffffffffffffffffffffffff16815260200190815260200160002054610fee9190611de5565b600a60008473ffffffffffffffffffffffffffffffffffffffff1673ffffffffffffffffffffffffffffffffffffffff16815260200190815260200160002081905550600073ffffffffffffffffffffffffffffffffffffffff168273ffffffffffffffffffffffffffffffffffffffff167fddf252ad1be2c89b69c2b068fc378daa952ba7f163c4a11628f55a4df523b3ef8360405161108f919061199e565b60405180910390a35050565b60008110156110df576040517f08c379a00000000000000000000000000000000000000000000000000000000081526004016110d690611f3d565b60405180910390fd5b6000600460003373ffffffffffffffffffffffffffffffffffffffff1673ffffffffffffffffffffffffffffffffffffffff16815260200190815260200160002054905060004290506000820361113c57611139336115f6565b91505b600382815481106111505761114f611c33565b5b906000526020600020906002020160010160405180608001604052803373ffffffffffffffffffffffffffffffffffffffff1681526020018581526020018381526020016000815250908060018154018082558091505060019003906000526020600020906004020160009091909190915060008201518160000160006101000a81548173ffffffffffffffffffffffffffffffffffffffff021916908373ffffffffffffffffffffffffffffffffffffffff16021790555060208201518160010155604082015181600201556060820151816003015550503373ffffffffffffffffffffffffffffffffffffffff167fb4caaf29adda3eefee3ad552a8e85058589bf834c7466cae4ee58787f70589ed84848460405161127393929190611f5d565b60405180910390a2505050565b600073ffffffffffffffffffffffffffffffffffffffff168273ffffffffffffffffffffffffffffffffffffffff16036112ef576040517f08c379a00000000000000000000000000000000000000000000000000000000081526004016112e690612006565b60405180910390fd5b80600a60008573ffffffffffffffffffffffffffffffffffffffff1673ffffffffffffffffffffffffffffffffffffffff168152602001908152602001600020541015611371576040517f08c379a000000000000000000000000000000000000000000000000000000000815260040161136890612072565b60405180910390fd5b600061137c8461079e565b9050600a60008573ffffffffffffffffffffffffffffffffffffffff1673ffffffffffffffffffffffffffffffffffffffff168152602001908152602001600020548282600001516113ce9190611c91565b111561140f576040517f08c379a000000000000000000000000000000000000000000000000000000000815260040161140690612104565b60405180910390fd5b81600a60008673ffffffffffffffffffffffffffffffffffffffff1673ffffffffffffffffffffffffffffffffffffffff1681526020019081526020016000205461145a9190611de5565b600a60008673ffffffffffffffffffffffffffffffffffffffff1673ffffffffffffffffffffffffffffffffffffffff1681526020019081526020016000208190555081600a60008573ffffffffffffffffffffffffffffffffffffffff1673ffffffffffffffffffffffffffffffffffffffff168152602001908152602001600020546114e89190611c91565b600a60008573ffffffffffffffffffffffffffffffffffffffff1673ffffffffffffffffffffffffffffffffffffffff168152602001908152602001600020819055508273ffffffffffffffffffffffffffffffffffffffff168473ffffffffffffffffffffffffffffffffffffffff167fddf252ad1be2c89b69c2b068fc378daa952ba7f163c4a11628f55a4df523b3ef84604051611588919061199e565b60405180910390a350505050565b6000808260400151426115a99190611de5565b9050610e10816115b99190612153565b905060008360200151826115cd9190612184565b9050600154600054826115e09190612184565b6115ea9190612153565b90508092505050919050565b60006003600181600181540180825580915050039060005260206000209050506000600160038054905061162a9190611de5565b9050826003828154811061164157611640611c33565b5b906000526020600020906002020160000160006101000a81548173ffffffffffffffffffffffffffffffffffffffff021916908373ffffffffffffffffffffffffffffffffffffffff16021790555080600460008573ffffffffffffffffffffffffffffffffffffffff1673ffffffffffffffffffffffffffffffffffffffff1681526020019081526020016000208190555080915050919050565b604051806040016040528060008152602001606081525090565b600081519050919050565b600082825260208201905092915050565b60005b83811015611731578082015181840152602081019050611716565b83811115611740576000848401525b50505050565b6000601f19601f8301169050919050565b6000611762826116f7565b61176c8185611702565b935061177c818560208601611713565b61178581611746565b840191505092915050565b600060208201905081810360008301526117aa8184611757565b905092915050565b600073ffffffffffffffffffffffffffffffffffffffff82169050919050565b60006117dd826117b2565b9050919050565b6117ed816117d2565b82525050565b600060208201905061180860008301846117e4565b92915050565b600060ff82169050919050565b6118248161180e565b82525050565b600060208201905061183f600083018461181b565b92915050565b600080fd5b611853816117d2565b811461185e57600080fd5b50565b6000813590506118708161184a565b92915050565b6000819050919050565b61188981611876565b811461189457600080fd5b50565b6000813590506118a681611880565b92915050565b600080604083850312156118c3576118c2611845565b5b60006118d185828601611861565b92505060206118e285828601611897565b9150509250929050565b60008115159050919050565b611901816118ec565b82525050565b600060208201905061191c60008301846118f8565b92915050565b60006020828403121561193857611937611845565b5b600061194684828501611897565b91505092915050565b6000806040838503121561196657611965611845565b5b600061197485828601611897565b925050602061198585828601611897565b9150509250929050565b61199881611876565b82525050565b60006020820190506119b3600083018461198f565b92915050565b6000602082840312156119cf576119ce611845565b5b60006119dd84828501611861565b91505092915050565b6119ef81611876565b82525050565b600081519050919050565b600082825260208201905092915050565b6000819050602082019050919050565b611a2a816117d2565b82525050565b608082016000820151611a466000850182611a21565b506020820151611a5960208501826119e6565b506040820151611a6c60408501826119e6565b506060820151611a7f60608501826119e6565b50505050565b6000611a918383611a30565b60808301905092915050565b6000602082019050919050565b6000611ab5826119f5565b611abf8185611a00565b9350611aca83611a11565b8060005b83811015611afb578151611ae28882611a85565b9750611aed83611a9d565b925050600181019050611ace565b5085935050505092915050565b6000604083016000830151611b2060008601826119e6565b5060208301518482036020860152611b388282611aaa565b9150508091505092915050565b60006020820190508181036000830152611b5f8184611b08565b905092915050565b7f4e487b7100000000000000000000000000000000000000000000000000000000600052602260045260246000fd5b60006002820490506001821680611bae57607f821691505b602082108103611bc157611bc0611b67565b5b50919050565b7f63616e2774207374616b65206d6f7265207468616e20796f75206f776e000000600082015250565b6000611bfd601d83611702565b9150611c0882611bc7565b602082019050919050565b60006020820190508181036000830152611c2c81611bf0565b9050919050565b7f4e487b7100000000000000000000000000000000000000000000000000000000600052603260045260246000fd5b7f4e487b7100000000000000000000000000000000000000000000000000000000600052601160045260246000fd5b6000611c9c82611876565b9150611ca783611876565b9250827fffffffffffffffffffffffffffffffffffffffffffffffffffffffffffffffff03821115611cdc57611cdb611c62565b5b828201905092915050565b7f63616e6e6f74206d696e7420696e746f207a65726f2061646472657373000000600082015250565b6000611d1d601d83611702565b9150611d2882611ce7565b602082019050919050565b60006020820190508181036000830152611d4c81611d10565b9050919050565b7f63616e2774207769746864726177206e6f7265207468616e20617661696c616260008201527f6c652062616c616e636500000000000000000000000000000000000000000000602082015250565b6000611daf602a83611702565b9150611dba82611d53565b604082019050919050565b60006020820190508181036000830152611dde81611da2565b9050919050565b6000611df082611876565b9150611dfb83611876565b925082821015611e0e57611e0d611c62565b5b828203905092915050565b7f63616e6e6f74206275726e20696e746f207a65726f2061646472657373000000600082015250565b6000611e4f601d83611702565b9150611e5a82611e19565b602082019050919050565b60006020820190508181036000830152611e7e81611e42565b9050919050565b7f6e6f7420656e6f75676820746f6b656e20746f206275726e0000000000000000600082015250565b6000611ebb601883611702565b9150611ec682611e85565b602082019050919050565b60006020820190508181036000830152611eea81611eae565b9050919050565b7f63616e2774207374616b65203020746f6b656e00000000000000000000000000600082015250565b6000611f27601383611702565b9150611f3282611ef1565b602082019050919050565b60006020820190508181036000830152611f5681611f1a565b9050919050565b6000606082019050611f72600083018661198f565b611f7f602083018561198f565b611f8c604083018461198f565b949350505050565b7f7472616e7366657220746f207a65726f20616464726573732069732070726f6860008201527f6962697465640000000000000000000000000000000000000000000000000000602082015250565b6000611ff0602683611702565b9150611ffb82611f94565b604082019050919050565b6000602082019050818103600083015261201f81611fe3565b9050919050565b7f6e6f7420656e6f75676820746f6b656e20746f207472616e7366657200000000600082015250565b600061205c601c83611702565b915061206782612026565b602082019050919050565b6000602082019050818103600083015261208b8161204f565b9050919050565b7f6e6f7420656e6f7567682062616c616e63652064756520746f2072656d61696e60008201527f696e6720746f6b656e206973206265696e67207374616b656400000000000000602082015250565b60006120ee603983611702565b91506120f982612092565b604082019050919050565b6000602082019050818103600083015261211d816120e1565b9050919050565b7f4e487b7100000000000000000000000000000000000000000000000000000000600052601260045260246000fd5b600061215e82611876565b915061216983611876565b92508261217957612178612124565b5b828204905092915050565b600061218f82611876565b915061219a83611876565b9250817fffffffffffffffffffffffffffffffffffffffffffffffffffffffffffffffff04831182151516156121d3576121d2611c62565b5b82820290509291505056fea26469706673582212207499025fe57e8cc4895448fa4f2ca14c48b365e1d3158ab1871ebc0c9ac2f67564736f6c634300080d0033",
  "immutableReferences": {},
  "source": "// SPDX-License-Identifier: MIT\r\npragma solidity >=0.5.0 <0.9.0;\r\n\r\nimport \"./staking.sol\";\r\n\r\ncontract StakingToken is Stakable {\r\n    // required variable for the token operation\r\n\r\n    uint256 private totalSupply;\r\n    uint8 private decimals;\r\n    string private name;\r\n    string private symbol;\r\n    address private owner;\r\n    \r\n    mapping(address => uint256) private balances;\r\n\r\n    event Transfer(address indexed from, address indexed to, uint256 value);\r\n\r\n    constructor(\r\n        address initialOwner,\r\n        string memory tokenName,\r\n        string memory tokenSymbol,\r\n        uint256 tokenTotalSupply,\r\n        uint8 tokenDecimals\r\n    ) {\r\n        name = tokenName;\r\n        symbol = tokenSymbol;\r\n        totalSupply = tokenTotalSupply;\r\n        decimals = tokenDecimals;\r\n\r\n        balances[initialOwner] = totalSupply;\r\n        owner = initialOwner;\r\n\r\n        emit Transfer(address(0), msg.sender, totalSupply);\r\n    }\r\n\r\n    function getBlockTime() external  view returns(uint256){\r\n         return block.timestamp;\r\n    }\r\n\r\n    function getOwner() view external returns(address){\r\n        return owner;\r\n    }\r\n\r\n    function getName() external view returns (string memory) {\r\n        return name;\r\n    }\r\n\r\n    function getSymbol() external view returns (string memory) {\r\n        return symbol;\r\n    }\r\n\r\n    function getTotalSupply() external view returns (uint256) {\r\n        return totalSupply;\r\n    }\r\n\r\n    function getDecimal() external view returns (uint8) {\r\n        return decimals;\r\n    }\r\n\r\n    function getBalance(address account) external view returns (uint256) {\r\n        return balances[account];\r\n    }\r\n\r\n    function getContractAddress() external view returns (address) {\r\n        address contractAddress = address(this);\r\n\r\n        return contractAddress;\r\n    }\r\n\r\n    function _mint(address account, uint256 amount) internal {\r\n        require(account != address(0), \"cannot mint into zero address\");\r\n\r\n        totalSupply = totalSupply + amount;\r\n        balances[account] = balances[account] + amount;\r\n\r\n        emit Transfer(address(0), account, amount);\r\n    }\r\n\r\n    function mint(address account, uint256 amount) onlyOwner external returns(bool) {\r\n        _mint(account, amount);\r\n        \r\n        return true;\r\n    }\r\n\r\n    function _burn(address account, uint256 amount) internal {\r\n        require(account != address(0), \"cannot burn into zero address\");\r\n        require(balances[account] >= amount, \"not enough token to burn\");\r\n\r\n        totalSupply = totalSupply - amount;\r\n        balances[account] = balances[account] - amount;\r\n\r\n        emit Transfer(account, address(0), amount);\r\n    }\r\n\r\n    function burn(address account, uint256 amount) onlyOwner external returns(bool){\r\n        _burn(account, amount);\r\n\r\n        return true;\r\n    }\r\n\r\n    function transferLogic(address sender, address receipient, uint256 amount) internal {\r\n        require(receipient != address(0),\"transfer to zero address is prohibited\");\r\n        require(balances[sender] >= amount, \"not enough token to transfer\");\r\n\r\n        StakingSummary memory userStakes = hasStake(sender);\r\n\r\n        require(userStakes.totalAmount + amount  <= balances[sender], \"not enough balance due to remaining token is being staked\");\r\n\r\n        balances[sender] = balances[sender] - amount;\r\n        balances[receipient] = balances[receipient] + amount;\r\n\r\n        emit Transfer(sender, receipient, amount);\r\n    }\r\n\r\n    function transfer(address receipient, uint256 amount) external returns(bool) {\r\n        transferLogic(msg.sender,receipient,amount);\r\n\r\n        return true;\r\n    }\r\n\r\n    function stake(uint256 amount) external returns(bool) {\r\n        require(amount <= balances[msg.sender],\"can't stake more than you own\");\r\n\r\n        stakeLogic(amount);\r\n\r\n        \r\n        return true;\r\n    }\r\n\r\n    function widthdrawStake(uint256 amount, uint256 stake_index) external returns(bool) {\r\n\r\n       uint256 amountToMint = withdrawLogic(amount, stake_index);\r\n\r\n        //change to transfer from reserve account later\r\n       _mint(msg.sender,amountToMint);\r\n\r\n        return true;\r\n    }\r\n\r\n    //TODO: -make staking logic flow and add documentation\r\n}\r\n",
  "sourcePath": "C:\\Users\\ASUS\\Documents\\GitHub\\tugas-axel\\staking\\contracts\\erc20.sol",
  "compiler": {
    "name": "solc",
    "version": "0.8.13+commit.abaa5c0e.Emscripten.clang"
  },
  "schemaVersion": "3.4.7",
  "updatedAt": "2022-06-28T07:41:49.441Z",
  "devdoc": {
    "kind": "dev",
    "methods": {},
    "version": 1
  },
  "userdoc": {
    "kind": "user",
    "methods": {},
    "version": 1
  }
}