{
  "contractName": "StakingToken",
  "abi": [
    {
      "inputs": [
        {
          "internalType": "string",
          "name": "tokenName",
          "type": "string"
        },
        {
          "internalType": "string",
          "name": "tokenSymbol",
          "type": "string"
        },
        {
          "internalType": "uint256",
          "name": "tokenTotalSupply",
          "type": "uint256"
        },
        {
          "internalType": "uint8",
          "name": "tokenDecimals",
          "type": "uint8"
        }
      ],
      "stateMutability": "nonpayable",
      "type": "constructor"
    },
    {
      "anonymous": false,
      "inputs": [
        {
          "indexed": true,
          "internalType": "address",
          "name": "user",
          "type": "address"
        },
        {
          "indexed": false,
          "internalType": "uint256",
          "name": "amount",
          "type": "uint256"
        },
        {
          "indexed": false,
          "internalType": "uint256",
          "name": "index",
          "type": "uint256"
        },
        {
          "indexed": false,
          "internalType": "uint256",
          "name": "timestamp",
          "type": "uint256"
        }
      ],
      "name": "Staked",
      "type": "event"
    },
    {
      "anonymous": false,
      "inputs": [
        {
          "indexed": true,
          "internalType": "address",
          "name": "from",
          "type": "address"
        },
        {
          "indexed": true,
          "internalType": "address",
          "name": "to",
          "type": "address"
        },
        {
          "indexed": false,
          "internalType": "uint256",
          "name": "value",
          "type": "uint256"
        }
      ],
      "name": "Transfer",
      "type": "event"
    },
    {
      "inputs": [],
      "name": "getOwner",
      "outputs": [
        {
          "internalType": "address",
          "name": "",
          "type": "address"
        }
      ],
      "stateMutability": "view",
      "type": "function",
      "constant": true
    },
    {
      "inputs": [],
      "name": "getName",
      "outputs": [
        {
          "internalType": "string",
          "name": "",
          "type": "string"
        }
      ],
      "stateMutability": "view",
      "type": "function",
      "constant": true
    },
    {
      "inputs": [],
      "name": "getSymbol",
      "outputs": [
        {
          "internalType": "string",
          "name": "",
          "type": "string"
        }
      ],
      "stateMutability": "view",
      "type": "function",
      "constant": true
    },
    {
      "inputs": [],
      "name": "getTotalSupply",
      "outputs": [
        {
          "internalType": "uint256",
          "name": "",
          "type": "uint256"
        }
      ],
      "stateMutability": "view",
      "type": "function",
      "constant": true
    },
    {
      "inputs": [],
      "name": "getDecimal",
      "outputs": [
        {
          "internalType": "uint8",
          "name": "",
          "type": "uint8"
        }
      ],
      "stateMutability": "view",
      "type": "function",
      "constant": true
    },
    {
      "inputs": [
        {
          "internalType": "address",
          "name": "account",
          "type": "address"
        }
      ],
      "name": "getBalance",
      "outputs": [
        {
          "internalType": "uint256",
          "name": "",
          "type": "uint256"
        }
      ],
      "stateMutability": "view",
      "type": "function",
      "constant": true
    },
    {
      "inputs": [],
      "name": "getContractAddress",
      "outputs": [
        {
          "internalType": "address",
          "name": "",
          "type": "address"
        }
      ],
      "stateMutability": "view",
      "type": "function",
      "constant": true
    },
    {
      "inputs": [
        {
          "internalType": "address",
          "name": "account",
          "type": "address"
        },
        {
          "internalType": "uint256",
          "name": "amount",
          "type": "uint256"
        }
      ],
      "name": "mint",
      "outputs": [
        {
          "internalType": "bool",
          "name": "",
          "type": "bool"
        }
      ],
      "stateMutability": "nonpayable",
      "type": "function"
    },
    {
      "inputs": [
        {
          "internalType": "address",
          "name": "account",
          "type": "address"
        },
        {
          "internalType": "uint256",
          "name": "amount",
          "type": "uint256"
        }
      ],
      "name": "burn",
      "outputs": [
        {
          "internalType": "bool",
          "name": "",
          "type": "bool"
        }
      ],
      "stateMutability": "nonpayable",
      "type": "function"
    },
    {
      "inputs": [
        {
          "internalType": "address",
          "name": "receipient",
          "type": "address"
        },
        {
          "internalType": "uint256",
          "name": "amount",
          "type": "uint256"
        }
      ],
      "name": "transfer",
      "outputs": [
        {
          "internalType": "bool",
          "name": "",
          "type": "bool"
        }
      ],
      "stateMutability": "nonpayable",
      "type": "function"
    },
    {
      "inputs": [
        {
          "internalType": "uint256",
          "name": "amount",
          "type": "uint256"
        }
      ],
      "name": "stake",
      "outputs": [
        {
          "internalType": "bool",
          "name": "",
          "type": "bool"
        }
      ],
      "stateMutability": "nonpayable",
      "type": "function"
    }
  ],
  "bytecode": "0x60806040523480156200001157600080fd5b5060405162001b9138038062001b9183398181016040528101906200003791906200046a565b60006001816001815401808255809150500390600052602060002090505083600490805190602001906200006d929190620001a4565b50826005908051906020019062000086929190620001a4565b508160028190555080600360006101000a81548160ff021916908360ff160217905550600254600760003373ffffffffffffffffffffffffffffffffffffffff1673ffffffffffffffffffffffffffffffffffffffff1681526020019081526020016000208190555033600660006101000a81548173ffffffffffffffffffffffffffffffffffffffff021916908373ffffffffffffffffffffffffffffffffffffffff1602179055503373ffffffffffffffffffffffffffffffffffffffff16600073ffffffffffffffffffffffffffffffffffffffff167fddf252ad1be2c89b69c2b068fc378daa952ba7f163c4a11628f55a4df523b3ef6002546040516200019291906200052b565b60405180910390a350505050620005ac565b828054620001b29062000577565b90600052602060002090601f016020900481019282620001d6576000855562000222565b82601f10620001f157805160ff191683800117855562000222565b8280016001018555821562000222579182015b828111156200022157825182559160200191906001019062000204565b5b50905062000231919062000235565b5090565b5b808211156200025057600081600090555060010162000236565b5090565b6000604051905090565b600080fd5b600080fd5b600080fd5b600080fd5b6000601f19601f8301169050919050565b7f4e487b7100000000000000000000000000000000000000000000000000000000600052604160045260246000fd5b620002bd8262000272565b810181811067ffffffffffffffff82111715620002df57620002de62000283565b5b80604052505050565b6000620002f462000254565b9050620003028282620002b2565b919050565b600067ffffffffffffffff82111562000325576200032462000283565b5b620003308262000272565b9050602081019050919050565b60005b838110156200035d57808201518184015260208101905062000340565b838111156200036d576000848401525b50505050565b60006200038a620003848462000307565b620002e8565b905082815260208101848484011115620003a957620003a86200026d565b5b620003b68482856200033d565b509392505050565b600082601f830112620003d657620003d562000268565b5b8151620003e884826020860162000373565b91505092915050565b6000819050919050565b6200040681620003f1565b81146200041257600080fd5b50565b6000815190506200042681620003fb565b92915050565b600060ff82169050919050565b62000444816200042c565b81146200045057600080fd5b50565b600081519050620004648162000439565b92915050565b600080600080608085870312156200048757620004866200025e565b5b600085015167ffffffffffffffff811115620004a857620004a762000263565b5b620004b687828801620003be565b945050602085015167ffffffffffffffff811115620004da57620004d962000263565b5b620004e887828801620003be565b9350506040620004fb8782880162000415565b92505060606200050e8782880162000453565b91505092959194509250565b6200052581620003f1565b82525050565b60006020820190506200054260008301846200051a565b92915050565b7f4e487b7100000000000000000000000000000000000000000000000000000000600052602260045260246000fd5b600060028204905060018216806200059057607f821691505b602082108103620005a657620005a562000548565b5b50919050565b6115d580620005bc6000396000f3fe608060405234801561001057600080fd5b50600436106100a95760003560e01c8063893d20e811610071578063893d20e8146101565780639dc29fac14610174578063a694fc3a146101a4578063a9059cbb146101d4578063c4e41b2214610204578063f8b2cb4f14610222576100a9565b806315070401146100ae57806317d7de7c146100cc57806332a2c5d0146100ea57806334ce10c41461010857806340c10f1914610126575b600080fd5b6100b6610252565b6040516100c39190610ef0565b60405180910390f35b6100d46102e4565b6040516100e19190610ef0565b60405180910390f35b6100f2610376565b6040516100ff9190610f53565b60405180910390f35b610110610383565b60405161011d9190610f8a565b60405180910390f35b610140600480360381019061013b919061100c565b61039a565b60405161014d9190611067565b60405180910390f35b61015e61040a565b60405161016b9190610f53565b60405180910390f35b61018e6004803603810190610189919061100c565b610434565b60405161019b9190611067565b60405180910390f35b6101be60048036038101906101b99190611082565b6104a4565b6040516101cb9190611067565b60405180910390f35b6101ee60048036038101906101e9919061100c565b610544565b6040516101fb9190611067565b60405180910390f35b61020c61055b565b60405161021991906110be565b60405180910390f35b61023c600480360381019061023791906110d9565b610565565b60405161024991906110be565b60405180910390f35b60606005805461026190611135565b80601f016020809104026020016040519081016040528092919081815260200182805461028d90611135565b80156102da5780601f106102af576101008083540402835291602001916102da565b820191906000526020600020905b8154815290600101906020018083116102bd57829003601f168201915b5050505050905090565b6060600480546102f390611135565b80601f016020809104026020016040519081016040528092919081815260200182805461031f90611135565b801561036c5780601f106103415761010080835404028352916020019161036c565b820191906000526020600020905b81548152906001019060200180831161034f57829003601f168201915b5050505050905090565b6000803090508091505090565b6000600360009054906101000a900460ff16905090565b6000600660009054906101000a900473ffffffffffffffffffffffffffffffffffffffff1673ffffffffffffffffffffffffffffffffffffffff163373ffffffffffffffffffffffffffffffffffffffff16146103f657600080fd5b61040083836105ae565b6001905092915050565b6000600660009054906101000a900473ffffffffffffffffffffffffffffffffffffffff16905090565b6000600660009054906101000a900473ffffffffffffffffffffffffffffffffffffffff1673ffffffffffffffffffffffffffffffffffffffff163373ffffffffffffffffffffffffffffffffffffffff161461049057600080fd5b61049a8383610729565b6001905092915050565b6000600760003373ffffffffffffffffffffffffffffffffffffffff1673ffffffffffffffffffffffffffffffffffffffff16815260200190815260200160002054821115610528576040517f08c379a000000000000000000000000000000000000000000000000000000000815260040161051f906111b2565b60405180910390fd5b61053182610926565b61053b3383610729565b60019050919050565b6000610551338484610afa565b6001905092915050565b6000600254905090565b6000600760008373ffffffffffffffffffffffffffffffffffffffff1673ffffffffffffffffffffffffffffffffffffffff168152602001908152602001600020549050919050565b600073ffffffffffffffffffffffffffffffffffffffff168273ffffffffffffffffffffffffffffffffffffffff160361061d576040517f08c379a00000000000000000000000000000000000000000000000000000000081526004016106149061121e565b60405180910390fd5b8060025461062b919061126d565b60028190555080600760008473ffffffffffffffffffffffffffffffffffffffff1673ffffffffffffffffffffffffffffffffffffffff1681526020019081526020016000205461067c919061126d565b600760008473ffffffffffffffffffffffffffffffffffffffff1673ffffffffffffffffffffffffffffffffffffffff168152602001908152602001600020819055508173ffffffffffffffffffffffffffffffffffffffff16600073ffffffffffffffffffffffffffffffffffffffff167fddf252ad1be2c89b69c2b068fc378daa952ba7f163c4a11628f55a4df523b3ef8360405161071d91906110be565b60405180910390a35050565b600073ffffffffffffffffffffffffffffffffffffffff168273ffffffffffffffffffffffffffffffffffffffff1603610798576040517f08c379a000000000000000000000000000000000000000000000000000000000815260040161078f9061130f565b60405180910390fd5b80600760008473ffffffffffffffffffffffffffffffffffffffff1673ffffffffffffffffffffffffffffffffffffffff16815260200190815260200160002054101561081a576040517f08c379a00000000000000000000000000000000000000000000000000000000081526004016108119061137b565b60405180910390fd5b80600254610828919061139b565b60028190555080600760008473ffffffffffffffffffffffffffffffffffffffff1673ffffffffffffffffffffffffffffffffffffffff16815260200190815260200160002054610879919061139b565b600760008473ffffffffffffffffffffffffffffffffffffffff1673ffffffffffffffffffffffffffffffffffffffff16815260200190815260200160002081905550600073ffffffffffffffffffffffffffffffffffffffff168273ffffffffffffffffffffffffffffffffffffffff167fddf252ad1be2c89b69c2b068fc378daa952ba7f163c4a11628f55a4df523b3ef8360405161091a91906110be565b60405180910390a35050565b600081101561096a576040517f08c379a00000000000000000000000000000000000000000000000000000000081526004016109619061141b565b60405180910390fd5b6000600160003373ffffffffffffffffffffffffffffffffffffffff1673ffffffffffffffffffffffffffffffffffffffff1681526020019081526020016000205490506000429050600082036109c7576109c433610d71565b91505b600082815481106109db576109da61143b565b5b906000526020600020906002020160010160405180606001604052803373ffffffffffffffffffffffffffffffffffffffff16815260200185815260200183815250908060018154018082558091505060019003906000526020600020906003020160009091909190915060008201518160000160006101000a81548173ffffffffffffffffffffffffffffffffffffffff021916908373ffffffffffffffffffffffffffffffffffffffff160217905550602082015181600101556040820151816002015550503373ffffffffffffffffffffffffffffffffffffffff167fb4caaf29adda3eefee3ad552a8e85058589bf834c7466cae4ee58787f70589ed848484604051610aed9392919061146a565b60405180910390a2505050565b600073ffffffffffffffffffffffffffffffffffffffff168273ffffffffffffffffffffffffffffffffffffffff1603610b69576040517f08c379a0000000000000000000000000000000000000000000000000000000008152600401610b6090611513565b60405180910390fd5b80600760008573ffffffffffffffffffffffffffffffffffffffff1673ffffffffffffffffffffffffffffffffffffffff168152602001908152602001600020541015610beb576040517f08c379a0000000000000000000000000000000000000000000000000000000008152600401610be29061157f565b60405180910390fd5b80600760008573ffffffffffffffffffffffffffffffffffffffff1673ffffffffffffffffffffffffffffffffffffffff16815260200190815260200160002054610c36919061139b565b600760008573ffffffffffffffffffffffffffffffffffffffff1673ffffffffffffffffffffffffffffffffffffffff1681526020019081526020016000208190555080600760008473ffffffffffffffffffffffffffffffffffffffff1673ffffffffffffffffffffffffffffffffffffffff16815260200190815260200160002054610cc4919061126d565b600760008473ffffffffffffffffffffffffffffffffffffffff1673ffffffffffffffffffffffffffffffffffffffff168152602001908152602001600020819055508173ffffffffffffffffffffffffffffffffffffffff168373ffffffffffffffffffffffffffffffffffffffff167fddf252ad1be2c89b69c2b068fc378daa952ba7f163c4a11628f55a4df523b3ef83604051610d6491906110be565b60405180910390a3505050565b6000806001816001815401808255809150500390600052602060002090505060006001600080549050610da4919061139b565b90508260008281548110610dbb57610dba61143b565b5b906000526020600020906002020160000160006101000a81548173ffffffffffffffffffffffffffffffffffffffff021916908373ffffffffffffffffffffffffffffffffffffffff16021790555080600160008573ffffffffffffffffffffffffffffffffffffffff1673ffffffffffffffffffffffffffffffffffffffff1681526020019081526020016000208190555080915050919050565b600081519050919050565b600082825260208201905092915050565b60005b83811015610e91578082015181840152602081019050610e76565b83811115610ea0576000848401525b50505050565b6000601f19601f8301169050919050565b6000610ec282610e57565b610ecc8185610e62565b9350610edc818560208601610e73565b610ee581610ea6565b840191505092915050565b60006020820190508181036000830152610f0a8184610eb7565b905092915050565b600073ffffffffffffffffffffffffffffffffffffffff82169050919050565b6000610f3d82610f12565b9050919050565b610f4d81610f32565b82525050565b6000602082019050610f686000830184610f44565b92915050565b600060ff82169050919050565b610f8481610f6e565b82525050565b6000602082019050610f9f6000830184610f7b565b92915050565b600080fd5b610fb381610f32565b8114610fbe57600080fd5b50565b600081359050610fd081610faa565b92915050565b6000819050919050565b610fe981610fd6565b8114610ff457600080fd5b50565b60008135905061100681610fe0565b92915050565b6000806040838503121561102357611022610fa5565b5b600061103185828601610fc1565b925050602061104285828601610ff7565b9150509250929050565b60008115159050919050565b6110618161104c565b82525050565b600060208201905061107c6000830184611058565b92915050565b60006020828403121561109857611097610fa5565b5b60006110a684828501610ff7565b91505092915050565b6110b881610fd6565b82525050565b60006020820190506110d360008301846110af565b92915050565b6000602082840312156110ef576110ee610fa5565b5b60006110fd84828501610fc1565b91505092915050565b7f4e487b7100000000000000000000000000000000000000000000000000000000600052602260045260246000fd5b6000600282049050600182168061114d57607f821691505b6020821081036111605761115f611106565b5b50919050565b7f63616e2774207374616b65206d6f7265207468616e20796f75206f776e000000600082015250565b600061119c601d83610e62565b91506111a782611166565b602082019050919050565b600060208201905081810360008301526111cb8161118f565b9050919050565b7f63616e6e6f74206d696e7420696e746f207a65726f2061646472657373000000600082015250565b6000611208601d83610e62565b9150611213826111d2565b602082019050919050565b60006020820190508181036000830152611237816111fb565b9050919050565b7f4e487b7100000000000000000000000000000000000000000000000000000000600052601160045260246000fd5b600061127882610fd6565b915061128383610fd6565b9250827fffffffffffffffffffffffffffffffffffffffffffffffffffffffffffffffff038211156112b8576112b761123e565b5b828201905092915050565b7f63616e6e6f74206275726e20696e746f207a65726f2061646472657373000000600082015250565b60006112f9601d83610e62565b9150611304826112c3565b602082019050919050565b60006020820190508181036000830152611328816112ec565b9050919050565b7f6e6f7420656e6f75676820746f6b656e20746f206275726e0000000000000000600082015250565b6000611365601883610e62565b91506113708261132f565b602082019050919050565b6000602082019050818103600083015261139481611358565b9050919050565b60006113a682610fd6565b91506113b183610fd6565b9250828210156113c4576113c361123e565b5b828203905092915050565b7f63616e2774207374616b65203020746f6b656e00000000000000000000000000600082015250565b6000611405601383610e62565b9150611410826113cf565b602082019050919050565b60006020820190508181036000830152611434816113f8565b9050919050565b7f4e487b7100000000000000000000000000000000000000000000000000000000600052603260045260246000fd5b600060608201905061147f60008301866110af565b61148c60208301856110af565b61149960408301846110af565b949350505050565b7f7472616e7366657220746f207a65726f20616464726573732069732070726f6860008201527f6962697465640000000000000000000000000000000000000000000000000000602082015250565b60006114fd602683610e62565b9150611508826114a1565b604082019050919050565b6000602082019050818103600083015261152c816114f0565b9050919050565b7f6e6f7420656e6f75676820746f6b656e20746f207472616e7366657200000000600082015250565b6000611569601c83610e62565b915061157482611533565b602082019050919050565b600060208201905081810360008301526115988161155c565b905091905056fea2646970667358221220617bb39b028a791d2430525148c0ad169db9c7b0bad2dd4e7a8b5f13169ee09b64736f6c634300080d0033",
  "immutableReferences": {},
  "source": "// SPDX-License-Identifier: MIT\r\npragma solidity >=0.5.0 <0.9.0;\r\n\r\nimport \"./staking.sol\";\r\n\r\ncontract StakingToken is Stakable {\r\n    // required variable for the token operation\r\n\r\n    uint256 private totalSupply;\r\n    uint8 private decimals;\r\n    string private name;\r\n    string private symbol;\r\n    address private owner;\r\n\r\n    modifier onlyOwner{\r\n        require(msg.sender == owner);\r\n        _;\r\n    }\r\n    \r\n\r\n    mapping(address => uint256) private balances;\r\n\r\n    event Transfer(address indexed from, address indexed to, uint256 value);\r\n\r\n    constructor(\r\n        string memory tokenName,\r\n        string memory tokenSymbol,\r\n        uint256 tokenTotalSupply,\r\n        uint8 tokenDecimals\r\n    ) {\r\n        name = tokenName;\r\n        symbol = tokenSymbol;\r\n        totalSupply = tokenTotalSupply;\r\n        decimals = tokenDecimals;\r\n\r\n        balances[msg.sender] = totalSupply;\r\n        owner = msg.sender;\r\n\r\n        emit Transfer(address(0), msg.sender, totalSupply);\r\n    }\r\n\r\n    function getOwner() view external returns(address){\r\n        return owner;\r\n    }\r\n\r\n    function getName() external view returns (string memory) {\r\n        return name;\r\n    }\r\n\r\n    function getSymbol() external view returns (string memory) {\r\n        return symbol;\r\n    }\r\n\r\n    function getTotalSupply() external view returns (uint256) {\r\n        return totalSupply;\r\n    }\r\n\r\n    function getDecimal() external view returns (uint8) {\r\n        return decimals;\r\n    }\r\n\r\n    function getBalance(address account) external view returns (uint256) {\r\n        return balances[account];\r\n    }\r\n\r\n    function getContractAddress() external view returns (address) {\r\n        address contractAddress = address(this);\r\n\r\n        return contractAddress;\r\n    }\r\n\r\n    function _mint(address account, uint256 amount) internal {\r\n        require(account != address(0), \"cannot mint into zero address\");\r\n\r\n        totalSupply = totalSupply + amount;\r\n        balances[account] = balances[account] + amount;\r\n\r\n        emit Transfer(address(0), account, amount);\r\n    }\r\n\r\n    function mint(address account, uint256 amount) onlyOwner external returns(bool) {\r\n        _mint(account, amount);\r\n        \r\n        return true;\r\n    }\r\n\r\n    function _burn(address account, uint256 amount) internal {\r\n        require(account != address(0), \"cannot burn into zero address\");\r\n        require(balances[account] >= amount, \"not enough token to burn\");\r\n\r\n        totalSupply = totalSupply - amount;\r\n        balances[account] = balances[account] - amount;\r\n\r\n        emit Transfer(account, address(0), amount);\r\n    }\r\n\r\n    function burn(address account, uint256 amount) onlyOwner external returns(bool){\r\n        _burn(account, amount);\r\n\r\n        return true;\r\n    }\r\n\r\n    function transferLogic(address sender, address receipient, uint256 amount) internal {\r\n        require(receipient != address(0),\"transfer to zero address is prohibited\");\r\n        require(balances[sender] >= amount, \"not enough token to transfer\");\r\n\r\n        balances[sender] = balances[sender] - amount;\r\n        balances[receipient] = balances[receipient] + amount;\r\n\r\n        emit Transfer(sender, receipient, amount);\r\n    }\r\n\r\n    function transfer(address receipient, uint256 amount) external returns(bool) {\r\n        transferLogic(msg.sender,receipient,amount);\r\n\r\n        return true;\r\n    }\r\n\r\n    function stake(uint256 amount) external returns(bool) {\r\n        require(amount <= balances[msg.sender],\"can't stake more than you own\");\r\n\r\n        stakeLogic(amount);\r\n\r\n        _burn(msg.sender, amount);\r\n\r\n        return true;\r\n    }\r\n\r\n    //TODO: -make staking logic flow and add documentation\r\n}\r\n",
  "sourcePath": "C:\\Users\\ASUS\\Documents\\GitHub\\tugas-axel\\staking\\contracts\\erc20.sol",
  "compiler": {
    "name": "solc",
    "version": "0.8.13+commit.abaa5c0e.Emscripten.clang"
  },
  "schemaVersion": "3.4.7",
  "updatedAt": "2022-06-26T14:52:54.469Z",
  "networkType": "ethereum",
  "devdoc": {
    "kind": "dev",
    "methods": {},
    "version": 1
  },
  "userdoc": {
    "kind": "user",
    "methods": {},
    "version": 1
  }
}