{
	"contractName": "Stakable",
	"abi": [
		{
			"inputs": [],
			"stateMutability": "nonpayable",
			"type": "constructor"
		},
		{
			"anonymous": false,
			"inputs": [
				{
					"indexed": true,
					"internalType": "address",
					"name": "user",
					"type": "address"
				},
				{
					"indexed": false,
					"internalType": "uint256",
					"name": "amount",
					"type": "uint256"
				},
				{
					"indexed": false,
					"internalType": "uint256",
					"name": "index",
					"type": "uint256"
				},
				{
					"indexed": false,
					"internalType": "uint256",
					"name": "timestamp",
					"type": "uint256"
				}
			],
			"name": "Staked",
			"type": "event"
		},
		{
			"inputs": [
				{
					"internalType": "uint256",
					"name": "newRewardRate",
					"type": "uint256"
				}
			],
			"name": "changeRewardRate",
			"outputs": [
				{
					"internalType": "bool",
					"name": "",
					"type": "bool"
				}
			],
			"stateMutability": "nonpayable",
			"type": "function"
		},
		{
			"inputs": [
				{
					"internalType": "uint256",
					"name": "newDivideRate",
					"type": "uint256"
				}
			],
			"name": "changeDivideRate",
			"outputs": [
				{
					"internalType": "bool",
					"name": "",
					"type": "bool"
				}
			],
			"stateMutability": "nonpayable",
			"type": "function"
		},
		{
			"inputs": [
				{
					"internalType": "address",
					"name": "staker",
					"type": "address"
				}
			],
			"name": "hasStake",
			"outputs": [
				{
					"components": [
						{
							"internalType": "uint256",
							"name": "totalAmount",
							"type": "uint256"
						},
						{
							"components": [
								{
									"internalType": "address",
									"name": "user",
									"type": "address"
								},
								{
									"internalType": "uint256",
									"name": "amount",
									"type": "uint256"
								},
								{
									"internalType": "uint256",
									"name": "timestamp",
									"type": "uint256"
								},
								{
									"internalType": "uint256",
									"name": "claimable",
									"type": "uint256"
								}
							],
							"internalType": "struct Stakable.Stake[]",
							"name": "stakes",
							"type": "tuple[]"
						}
					],
					"internalType": "struct Stakable.StakingSummary",
					"name": "",
					"type": "tuple"
				}
			],
			"stateMutability": "view",
			"type": "function"
		}
	],
	"bytecode": "0x60806040526008600055606460015534801561001a57600080fd5b5060036001816001815401808255809150500390600052602060002090505033600260006101000a81548173ffffffffffffffffffffffffffffffffffffffff021916908373ffffffffffffffffffffffffffffffffffffffff160217905550610933806100896000396000f3fe608060405234801561001057600080fd5b50600436106100415760003560e01c80634c92a1ec1461004657806374f237c414610076578063e73e14bf146100a6575b600080fd5b610060600480360381019061005b91906104ec565b6100d6565b60405161006d9190610534565b60405180910390f35b610090600480360381019061008b91906104ec565b610147565b60405161009d9190610534565b60405180910390f35b6100c060048036038101906100bb91906105ad565b6101b8565b6040516100cd9190610739565b60405180910390f35b6000600260009054906101000a900473ffffffffffffffffffffffffffffffffffffffff1673ffffffffffffffffffffffffffffffffffffffff163373ffffffffffffffffffffffffffffffffffffffff161461013257600080fd5b61013e600054836103cb565b60019050919050565b6000600260009054906101000a900473ffffffffffffffffffffffffffffffffffffffff1673ffffffffffffffffffffffffffffffffffffffff163373ffffffffffffffffffffffffffffffffffffffff16146101a357600080fd5b6101af826001546103cb565b60019050919050565b6101c0610497565b600080600460008573ffffffffffffffffffffffffffffffffffffffff1673ffffffffffffffffffffffffffffffffffffffff16815260200190815260200160002054905060006040518060400160405280600081526020016003848154811061022d5761022c61075b565b5b9060005260206000209060020201600101805480602002602001604051908101604052809291908181526020016000905b8282101561030457838290600052602060002090600402016040518060800160405290816000820160009054906101000a900473ffffffffffffffffffffffffffffffffffffffff1673ffffffffffffffffffffffffffffffffffffffff1673ffffffffffffffffffffffffffffffffffffffff16815260200160018201548152602001600282015481526020016003820154815250508152602001906001019061025e565b50505050815250905060005b8160200151518110156103b5576000610346836020015183815181106103395761033861075b565b5b6020026020010151610437565b905080836020015183815181106103605761035f61075b565b5b60200260200101516060018181525050826020015182815181106103875761038661075b565b5b6020026020010151602001518561039e91906107b9565b9450506001816103ae91906107b9565b9050610310565b5082816000018181525050809350505050919050565b600260009054906101000a900473ffffffffffffffffffffffffffffffffffffffff1673ffffffffffffffffffffffffffffffffffffffff163373ffffffffffffffffffffffffffffffffffffffff161461042557600080fd5b81600081905550806001819055505050565b60008082604001514261044a919061080f565b9050610e108161045a9190610872565b9050600083602001518261046e91906108a3565b90506001546000548261048191906108a3565b61048b9190610872565b90508092505050919050565b604051806040016040528060008152602001606081525090565b600080fd5b6000819050919050565b6104c9816104b6565b81146104d457600080fd5b50565b6000813590506104e6816104c0565b92915050565b600060208284031215610502576105016104b1565b5b6000610510848285016104d7565b91505092915050565b60008115159050919050565b61052e81610519565b82525050565b60006020820190506105496000830184610525565b92915050565b600073ffffffffffffffffffffffffffffffffffffffff82169050919050565b600061057a8261054f565b9050919050565b61058a8161056f565b811461059557600080fd5b50565b6000813590506105a781610581565b92915050565b6000602082840312156105c3576105c26104b1565b5b60006105d184828501610598565b91505092915050565b6105e3816104b6565b82525050565b600081519050919050565b600082825260208201905092915050565b6000819050602082019050919050565b61061e8161056f565b82525050565b60808201600082015161063a6000850182610615565b50602082015161064d60208501826105da565b50604082015161066060408501826105da565b50606082015161067360608501826105da565b50505050565b60006106858383610624565b60808301905092915050565b6000602082019050919050565b60006106a9826105e9565b6106b381856105f4565b93506106be83610605565b8060005b838110156106ef5781516106d68882610679565b97506106e183610691565b9250506001810190506106c2565b5085935050505092915050565b600060408301600083015161071460008601826105da565b506020830151848203602086015261072c828261069e565b9150508091505092915050565b6000602082019050818103600083015261075381846106fc565b905092915050565b7f4e487b7100000000000000000000000000000000000000000000000000000000600052603260045260246000fd5b7f4e487b7100000000000000000000000000000000000000000000000000000000600052601160045260246000fd5b60006107c4826104b6565b91506107cf836104b6565b9250827fffffffffffffffffffffffffffffffffffffffffffffffffffffffffffffffff038211156108045761080361078a565b5b828201905092915050565b600061081a826104b6565b9150610825836104b6565b9250828210156108385761083761078a565b5b828203905092915050565b7f4e487b7100000000000000000000000000000000000000000000000000000000600052601260045260246000fd5b600061087d826104b6565b9150610888836104b6565b92508261089857610897610843565b5b828204905092915050565b60006108ae826104b6565b91506108b9836104b6565b9250817fffffffffffffffffffffffffffffffffffffffffffffffffffffffffffffffff04831182151516156108f2576108f161078a565b5b82820290509291505056fea264697066735822122024c9b36f2693d9dab42f11c82aa18bc56eae5d09e9b513f01b858c9e07301a0364736f6c634300080d0033",
	"immutableReferences": {},
	"source": "// SPDX-License-Identifier: MIT\r\npragma solidity >=0.5.0 <0.9.0;\r\ncontract Stakable {\r\n\r\n    // 10% reward rate per hour(make it and the post-fix larger to represent decimals)\r\n    uint256 rewardRate = 8;\r\n    // post-fix to divide as so it will be the same as multiplying with %(make it larger to represent decimals)\r\n    uint256 divideRate = 100;\r\n\r\n    address private owner;\r\n\r\n    constructor() {\r\n        // push to avoid index -1 bug\r\n        stakeholders.push();\r\n        owner = msg.sender;\r\n    }\r\n\r\n    modifier onlyOwner() {\r\n        require(msg.sender == owner);\r\n        _;\r\n    }\r\n\r\n    struct Stake {\r\n        address user;\r\n        uint256 amount;\r\n        uint256 timestamp;\r\n        uint256 claimable;\r\n    }\r\n\r\n    struct StakingSummary {\r\n        uint256 totalAmount;\r\n        Stake[] stakes;\r\n    }\r\n\r\n    struct Stakeholder {\r\n        address user;\r\n        Stake[] StakesAddress;\r\n    }\r\n\r\n    Stakeholder[] internal stakeholders;\r\n\r\n    // mapping used to track user index in stakeholder array so we don't reiterate the whole array\r\n    mapping(address => uint256) internal stakes;\r\n\r\n    event Staked(\r\n        address indexed user,\r\n        uint256 amount,\r\n        uint256 index,\r\n        uint256 timestamp\r\n    );\r\n\r\n    function addStakeHolder(address staker) internal returns (uint256) {\r\n        stakeholders.push();\r\n\r\n        uint256 userIndex = stakeholders.length - 1;\r\n\r\n        stakeholders[userIndex].user = staker;\r\n        stakes[staker] = userIndex;\r\n        return userIndex;\r\n    }\r\n\r\n    function stakeLogic(uint256 amount) internal {\r\n        require(amount >= 0, \"can't stake 0 token\");\r\n\r\n        uint256 index = stakes[msg.sender];\r\n        uint256 timestamp = block.timestamp;\r\n\r\n        if (index == 0) {\r\n            index = addStakeHolder(msg.sender);\r\n        }\r\n\r\n        stakeholders[index].StakesAddress.push(\r\n            Stake(msg.sender, amount, timestamp, 0)\r\n        );\r\n\r\n        emit Staked(msg.sender, amount, index, timestamp);\r\n    }\r\n\r\n    function withdrawLogic(uint256 amount, uint256 index)\r\n        internal\r\n        returns (uint256)\r\n    {\r\n        // get the uesr index in the array of stakeholders\r\n        uint256 user_index = stakes[msg.sender];\r\n\r\n        // get the desired stake for withdrawal\r\n        Stake memory currentStake = stakeholders[user_index].StakesAddress[\r\n            index\r\n        ];\r\n        require(\r\n            currentStake.amount >= amount,\r\n            \"can't withdraw nore than available balance\"\r\n        );\r\n\r\n        uint256 reward = calculateReward(currentStake);\r\n\r\n        // remove the withdrawed token from the stakes\r\n        currentStake.amount = currentStake.amount - amount;\r\n\r\n        if (currentStake.amount == 0) {\r\n            // delete the current stake if the staked amount is 0\r\n            delete stakeholders[user_index].StakesAddress[index];\r\n        } else {\r\n            // replace the value of the current staked value with the new staked value after withdrawal\r\n            stakeholders[user_index].StakesAddress[index].amount = currentStake\r\n                .amount;\r\n\r\n            // reset the stakes timestamp\r\n            stakeholders[user_index].StakesAddress[index].timestamp = block\r\n                .timestamp;\r\n        }\r\n\r\n        return reward;\r\n    }\r\n\r\n    function calculateReward(Stake memory currentStake)\r\n        internal\r\n        view\r\n        returns (uint256)\r\n    {\r\n        // find the durations\r\n        uint256 duration = block.timestamp - currentStake.timestamp;\r\n        duration = duration / 1 hours;\r\n\r\n        // multiply by the staking amount(this return 1000% yield rate /token staked)\r\n        uint256 reward = duration * currentStake.amount;\r\n\r\n        // find the real reward by dividing with the reward rate to get  the real reward precentage(1000 / your reward rate);\r\n        reward = (reward * rewardRate) / divideRate;\r\n\r\n        return reward;\r\n    }\r\n\r\n    //function overloading to accept only 1 parameter\r\n    function changeReward(uint256 newRewardRate, uint256 newDivideRate)\r\n        internal\r\n        onlyOwner\r\n    {\r\n        rewardRate = newRewardRate;\r\n        divideRate = newDivideRate;\r\n    }\r\n\r\n    function changeRewardRate(uint256 newRewardRate)\r\n        external\r\n        onlyOwner\r\n        returns (bool)\r\n    {\r\n        changeReward(newRewardRate, divideRate);\r\n\r\n        return true;\r\n    }\r\n\r\n    function changeDivideRate(uint256 newDivideRate)\r\n        external\r\n        onlyOwner\r\n        returns (bool)\r\n    {\r\n        changeReward(rewardRate, newDivideRate);\r\n\r\n        return true;\r\n    }\r\n\r\n    function hasStake(address staker)\r\n        public\r\n        view\r\n        returns (StakingSummary memory)\r\n    {\r\n        uint256 totalStakeAmount;\r\n\r\n        uint256 user_index = stakes[staker];\r\n\r\n        // get the stakes array\r\n        StakingSummary memory summary = StakingSummary(\r\n            0,\r\n            stakeholders[user_index].StakesAddress\r\n        );\r\n\r\n        // loop through the stakes array calculating reward and the total stake amount\r\n        for (uint256 i = 0; i < summary.stakes.length; i += 1) {\r\n            uint256 reward = calculateReward(summary.stakes[i]);\r\n            summary.stakes[i].claimable = reward;\r\n            totalStakeAmount = totalStakeAmount + summary.stakes[i].amount;\r\n        }\r\n\r\n        summary.totalAmount = totalStakeAmount;\r\n        return summary;\r\n    }\r\n}\r\n",
	"sourcePath": "C:\\Users\\ASUS\\Documents\\GitHub\\tugas-axel\\staking\\contracts\\staking.sol",
	"compiler": {
		"name": "solc",
		"version": "0.8.13+commit.abaa5c0e.Emscripten.clang"
	},
	"schemaVersion": "3.4.7",
	"updatedAt": "2022-06-28T07:41:49.466Z",
	"devdoc": {
		"kind": "dev",
		"methods": {},
		"version": 1
	},
	"userdoc": {
		"kind": "user",
		"methods": {},
		"version": 1
	}
}